{
  "_format": "hh-sol-artifact-1",
  "contractName": "IdeaFactory",
  "sourceName": "contracts/IdeaFactory.sol",
  "abi": [
    {
      "inputs": [],
      "name": "DECIMALS",
      "outputs": [
        {
          "internalType": "uint256",
          "name": "",
          "type": "uint256"
        }
      ],
      "stateMutability": "view",
      "type": "function"
    },
    {
      "inputs": [],
      "name": "IDEACOIN_FUNDING_GOAL",
      "outputs": [
        {
          "internalType": "uint256",
          "name": "",
          "type": "uint256"
        }
      ],
      "stateMutability": "view",
      "type": "function"
    },
    {
      "inputs": [],
      "name": "IDEATOKEN_CREATION_FEE",
      "outputs": [
        {
          "internalType": "uint256",
          "name": "",
          "type": "uint256"
        }
      ],
      "stateMutability": "view",
      "type": "function"
    },
    {
      "inputs": [],
      "name": "INITIAL_PRICE",
      "outputs": [
        {
          "internalType": "uint256",
          "name": "",
          "type": "uint256"
        }
      ],
      "stateMutability": "view",
      "type": "function"
    },
    {
      "inputs": [],
      "name": "INIT_SUPPLY",
      "outputs": [
        {
          "internalType": "uint256",
          "name": "",
          "type": "uint256"
        }
      ],
      "stateMutability": "view",
      "type": "function"
    },
    {
      "inputs": [],
      "name": "K",
      "outputs": [
        {
          "internalType": "uint256",
          "name": "",
          "type": "uint256"
        }
      ],
      "stateMutability": "view",
      "type": "function"
    },
    {
      "inputs": [],
      "name": "MAX_SUPPLY",
      "outputs": [
        {
          "internalType": "uint256",
          "name": "",
          "type": "uint256"
        }
      ],
      "stateMutability": "view",
      "type": "function"
    },
    {
      "inputs": [
        {
          "internalType": "address",
          "name": "",
          "type": "address"
        }
      ],
      "name": "addressToIdeaTokenMapping",
      "outputs": [
        {
          "internalType": "string",
          "name": "name",
          "type": "string"
        },
        {
          "internalType": "string",
          "name": "symbol",
          "type": "string"
        },
        {
          "internalType": "string",
          "name": "description",
          "type": "string"
        },
        {
          "internalType": "string",
          "name": "tokenImageUrl",
          "type": "string"
        },
        {
          "internalType": "string",
          "name": "productUrl",
          "type": "string"
        },
        {
          "internalType": "string",
          "name": "categories",
          "type": "string"
        },
        {
          "internalType": "string",
          "name": "productScreenshotUrl",
          "type": "string"
        },
        {
          "internalType": "string",
          "name": "twitterUrl",
          "type": "string"
        },
        {
          "internalType": "uint256",
          "name": "fundingRaised",
          "type": "uint256"
        },
        {
          "internalType": "address",
          "name": "tokenAddress",
          "type": "address"
        },
        {
          "internalType": "address",
          "name": "creatorAddress",
          "type": "address"
        },
        {
          "internalType": "uint256",
          "name": "tokenCurrentSupply",
          "type": "uint256"
        }
      ],
      "stateMutability": "view",
      "type": "function"
    },
    {
      "inputs": [
        {
          "internalType": "address",
          "name": "ideaTokenAddress",
          "type": "address"
        },
        {
          "internalType": "uint256",
          "name": "tokenQty",
          "type": "uint256"
        }
      ],
      "name": "buyIdeaToken",
      "outputs": [
        {
          "internalType": "uint256",
          "name": "",
          "type": "uint256"
        }
      ],
      "stateMutability": "payable",
      "type": "function"
    },
    {
      "inputs": [
        {
          "internalType": "uint256",
          "name": "currentSupply",
          "type": "uint256"
        },
        {
          "internalType": "uint256",
          "name": "tokensToBuy",
          "type": "uint256"
        }
      ],
      "name": "calculateCost",
      "outputs": [
        {
          "internalType": "uint256",
          "name": "",
          "type": "uint256"
        }
      ],
      "stateMutability": "pure",
      "type": "function"
    },
    {
      "inputs": [
        {
          "internalType": "string",
          "name": "name",
          "type": "string"
        },
        {
          "internalType": "string",
          "name": "symbol",
          "type": "string"
        },
        {
          "internalType": "string",
          "name": "imageUrl",
          "type": "string"
        },
        {
          "internalType": "string",
          "name": "description",
          "type": "string"
        },
        {
          "internalType": "string",
          "name": "categories",
          "type": "string"
        },
        {
          "internalType": "string",
          "name": "productScreenshotUrl",
          "type": "string"
        },
        {
          "internalType": "string",
          "name": "productUrl",
          "type": "string"
        },
        {
          "internalType": "string",
          "name": "twitterUrl",
          "type": "string"
        }
      ],
      "name": "createIdeaToken",
      "outputs": [
        {
          "internalType": "address",
          "name": "",
          "type": "address"
        }
      ],
      "stateMutability": "payable",
      "type": "function"
    },
    {
      "inputs": [],
      "name": "getAllIdeaTokens",
      "outputs": [
        {
          "components": [
            {
              "internalType": "string",
              "name": "name",
              "type": "string"
            },
            {
              "internalType": "string",
              "name": "symbol",
              "type": "string"
            },
            {
              "internalType": "string",
              "name": "description",
              "type": "string"
            },
            {
              "internalType": "string",
              "name": "tokenImageUrl",
              "type": "string"
            },
            {
              "internalType": "string",
              "name": "productUrl",
              "type": "string"
            },
            {
              "internalType": "string",
              "name": "categories",
              "type": "string"
            },
            {
              "internalType": "string",
              "name": "productScreenshotUrl",
              "type": "string"
            },
            {
              "internalType": "string",
              "name": "twitterUrl",
              "type": "string"
            },
            {
              "internalType": "uint256",
              "name": "fundingRaised",
              "type": "uint256"
            },
            {
              "internalType": "address",
              "name": "tokenAddress",
              "type": "address"
            },
            {
              "internalType": "address",
              "name": "creatorAddress",
              "type": "address"
            },
            {
              "internalType": "uint256",
              "name": "tokenCurrentSupply",
              "type": "uint256"
            }
          ],
          "internalType": "struct IdeaFactory.ideaToken[]",
          "name": "",
          "type": "tuple[]"
        }
      ],
      "stateMutability": "view",
      "type": "function"
    },
    {
      "inputs": [
        {
          "internalType": "address",
          "name": "ideaTokenAddress",
          "type": "address"
        }
      ],
      "name": "getIdeaToken",
      "outputs": [
        {
          "components": [
            {
              "internalType": "string",
              "name": "name",
              "type": "string"
            },
            {
              "internalType": "string",
              "name": "symbol",
              "type": "string"
            },
            {
              "internalType": "string",
              "name": "description",
              "type": "string"
            },
            {
              "internalType": "string",
              "name": "tokenImageUrl",
              "type": "string"
            },
            {
              "internalType": "string",
              "name": "productUrl",
              "type": "string"
            },
            {
              "internalType": "string",
              "name": "categories",
              "type": "string"
            },
            {
              "internalType": "string",
              "name": "productScreenshotUrl",
              "type": "string"
            },
            {
              "internalType": "string",
              "name": "twitterUrl",
              "type": "string"
            },
            {
              "internalType": "uint256",
              "name": "fundingRaised",
              "type": "uint256"
            },
            {
              "internalType": "address",
              "name": "tokenAddress",
              "type": "address"
            },
            {
              "internalType": "address",
              "name": "creatorAddress",
              "type": "address"
            },
            {
              "internalType": "uint256",
              "name": "tokenCurrentSupply",
              "type": "uint256"
            }
          ],
          "internalType": "struct IdeaFactory.ideaToken",
          "name": "",
          "type": "tuple"
        }
      ],
      "stateMutability": "nonpayable",
      "type": "function"
    },
    {
      "inputs": [
        {
          "internalType": "uint256",
          "name": "",
          "type": "uint256"
        }
      ],
      "name": "ideaTokenAddresses",
      "outputs": [
        {
          "internalType": "address",
          "name": "",
          "type": "address"
        }
      ],
      "stateMutability": "view",
      "type": "function"
    },
    {
      "inputs": [],
      "name": "poolFee",
      "outputs": [
        {
          "internalType": "uint24",
          "name": "",
          "type": "uint24"
        }
      ],
      "stateMutability": "view",
      "type": "function"
    }
  ],
  "bytecode": "0x608060405234801561001057600080fd5b506136e7806100206000396000f3fe608060405260043610620000fb5760003560e01c80636dec73981162000095578063a932492f1162000060578063a932492f14620002a7578063ce39469614620002c4578063e0f857bd14620002e9578063e2ce39e5146200030657600080fd5b80636dec739814620002405780637c5e2795146200025757806391898cb91462000273578063956cc859146200028f57600080fd5b806332cb6b0c11620000d657806332cb6b0c146200019d57806355756a6a14620001b5578063580e9ebb14620001e55780635beb78d9146200020c57600080fd5b8063089fe6aa146200010057806314145f9414620001315780632e0f26251462000170575b600080fd5b3480156200010d57600080fd5b5062000118610bb881565b60405162ffffff90911681526020015b60405180910390f35b3480156200013e57600080fd5b50620001566200015036600462002031565b6200032b565b604051620001289c9b9a99989796959493929190620020ac565b3480156200017d57600080fd5b506200018e670de0b6b3a764000081565b60405190815260200162000128565b348015620001aa57600080fd5b506200018e62000811565b620001cc620001c63660046200224c565b6200082b565b6040516001600160a01b03909116815260200162000128565b348015620001f257600080fd5b50620001fd62000abb565b604051620001289190620024d5565b3480156200021957600080fd5b50620002316200022b36600462002031565b620010ab565b6040516200012891906200253d565b6200018e6200025136600462002552565b62001666565b3480156200026457600080fd5b506200018e651b48eb57e00081565b3480156200028057600080fd5b506200018e655af3107a400081565b3480156200029c57600080fd5b506200018e620019f9565b348015620002b457600080fd5b506200018e6611c37937e0800081565b348015620002d157600080fd5b506200018e620002e336600462002581565b62001a1e565b348015620002f657600080fd5b506200018e66556f963b97fe0081565b3480156200031357600080fd5b50620001cc62000325366004620025a4565b62001afc565b6001602052600090815260409020805481906200034890620025be565b80601f01602080910402602001604051908101604052809291908181526020018280546200037690620025be565b8015620003c75780601f106200039b57610100808354040283529160200191620003c7565b820191906000526020600020905b815481529060010190602001808311620003a957829003601f168201915b505050505090806001018054620003de90620025be565b80601f01602080910402602001604051908101604052809291908181526020018280546200040c90620025be565b80156200045d5780601f1062000431576101008083540402835291602001916200045d565b820191906000526020600020905b8154815290600101906020018083116200043f57829003601f168201915b5050505050908060020180546200047490620025be565b80601f0160208091040260200160405190810160405280929190818152602001828054620004a290620025be565b8015620004f35780601f10620004c757610100808354040283529160200191620004f3565b820191906000526020600020905b815481529060010190602001808311620004d557829003601f168201915b5050505050908060030180546200050a90620025be565b80601f01602080910402602001604051908101604052809291908181526020018280546200053890620025be565b8015620005895780601f106200055d5761010080835404028352916020019162000589565b820191906000526020600020905b8154815290600101906020018083116200056b57829003601f168201915b505050505090806004018054620005a090620025be565b80601f0160208091040260200160405190810160405280929190818152602001828054620005ce90620025be565b80156200061f5780601f10620005f3576101008083540402835291602001916200061f565b820191906000526020600020905b8154815290600101906020018083116200060157829003601f168201915b5050505050908060050180546200063690620025be565b80601f01602080910402602001604051908101604052809291908181526020018280546200066490620025be565b8015620006b55780601f106200068957610100808354040283529160200191620006b5565b820191906000526020600020905b8154815290600101906020018083116200069757829003601f168201915b505050505090806006018054620006cc90620025be565b80601f0160208091040260200160405190810160405280929190818152602001828054620006fa90620025be565b80156200074b5780601f106200071f576101008083540402835291602001916200074b565b820191906000526020600020905b8154815290600101906020018083116200072d57829003601f168201915b5050505050908060070180546200076290620025be565b80601f01602080910402602001604051908101604052809291908181526020018280546200079090620025be565b8015620007e15780601f10620007b557610100808354040283529160200191620007e1565b820191906000526020600020905b815481529060010190602001808311620007c357829003601f168201915b50505060088401546009850154600a860154600b90960154949591946001600160a01b039182169450911691508c565b62000828670de0b6b3a7640000620f42406200260a565b81565b6000655af3107a4000341015620008895760405162461bcd60e51b815260206004820152601960248201527f496e73756666696369656e74206372656174696f6e206665650000000000000060448201526064015b60405180910390fd5b600089896005620008a6670de0b6b3a7640000620f42406200260a565b620008b2919062002624565b604051620008c09062001f97565b620008ce9392919062002647565b604051809103906000f080158015620008eb573d6000803e3d6000fd5b5060408051610180810182528c815260208082018d90528183018b9052606082018c90526080820188905260a082018a905260c0820189905260e08201879052600061010083018190526001600160a01b03851661012084018190523361014085015261016084018290528154600181810184557f290decd9548b62a8d60345a988386fc84ba6bc95484008f6362f93160ef3e56390910180546001600160a01b0319168317905590825290915291909120815192935083928291908190620009b59082620026d6565b5060208201516001820190620009cc9082620026d6565b5060408201516002820190620009e39082620026d6565b5060608201516003820190620009fa9082620026d6565b506080820151600482019062000a119082620026d6565b5060a0820151600582019062000a289082620026d6565b5060c0820151600682019062000a3f9082620026d6565b5060e0820151600782019062000a569082620026d6565b5061010082015160088201556101208201516009820180546001600160a01b039283166001600160a01b031991821617909155610140840151600a8401805491909316911617905561016090910151600b909101555091505098975050505050505050565b600080546060919067ffffffffffffffff81111562000ade5762000ade620021a1565b60405190808252806020026020018201604052801562000b1b57816020015b62000b0762001fa5565b81526020019060019003908162000afd5790505b50905060005b600054811015620010a5576001600080838154811062000b455762000b45620027a3565b60009182526020808320909101546001600160a01b0316835282019290925260409081019091208151610180810190925280548290829062000b8790620025be565b80601f016020809104026020016040519081016040528092919081815260200182805462000bb590620025be565b801562000c065780601f1062000bda5761010080835404028352916020019162000c06565b820191906000526020600020905b81548152906001019060200180831162000be857829003601f168201915b5050505050815260200160018201805462000c2190620025be565b80601f016020809104026020016040519081016040528092919081815260200182805462000c4f90620025be565b801562000ca05780601f1062000c745761010080835404028352916020019162000ca0565b820191906000526020600020905b81548152906001019060200180831162000c8257829003601f168201915b5050505050815260200160028201805462000cbb90620025be565b80601f016020809104026020016040519081016040528092919081815260200182805462000ce990620025be565b801562000d3a5780601f1062000d0e5761010080835404028352916020019162000d3a565b820191906000526020600020905b81548152906001019060200180831162000d1c57829003601f168201915b5050505050815260200160038201805462000d5590620025be565b80601f016020809104026020016040519081016040528092919081815260200182805462000d8390620025be565b801562000dd45780601f1062000da85761010080835404028352916020019162000dd4565b820191906000526020600020905b81548152906001019060200180831162000db657829003601f168201915b5050505050815260200160048201805462000def90620025be565b80601f016020809104026020016040519081016040528092919081815260200182805462000e1d90620025be565b801562000e6e5780601f1062000e425761010080835404028352916020019162000e6e565b820191906000526020600020905b81548152906001019060200180831162000e5057829003601f168201915b5050505050815260200160058201805462000e8990620025be565b80601f016020809104026020016040519081016040528092919081815260200182805462000eb790620025be565b801562000f085780601f1062000edc5761010080835404028352916020019162000f08565b820191906000526020600020905b81548152906001019060200180831162000eea57829003601f168201915b5050505050815260200160068201805462000f2390620025be565b80601f016020809104026020016040519081016040528092919081815260200182805462000f5190620025be565b801562000fa25780601f1062000f765761010080835404028352916020019162000fa2565b820191906000526020600020905b81548152906001019060200180831162000f8457829003601f168201915b5050505050815260200160078201805462000fbd90620025be565b80601f016020809104026020016040519081016040528092919081815260200182805462000feb90620025be565b80156200103c5780601f1062001010576101008083540402835291602001916200103c565b820191906000526020600020905b8154815290600101906020018083116200101e57829003601f168201915b50505091835250506008820154602082015260098201546001600160a01b039081166040830152600a830154166060820152600b909101546080909101528251839083908110620010915762001091620027a3565b602090810291909101015260010162000b21565b50919050565b620010b562001fa5565b6001600160a01b03821660008181526001602090815260409182902082516318160ddd60e01b815292519093869390926318160ddd926004808401938290030181865afa1580156200110b573d6000803e3d6000fd5b505050506040513d601f19601f82011682018060405250810190620011319190620027b9565b600b8301556001600160a01b03841660009081526001602052604090819020815161018081019092528054829082906200116b90620025be565b80601f01602080910402602001604051908101604052809291908181526020018280546200119990620025be565b8015620011ea5780601f10620011be57610100808354040283529160200191620011ea565b820191906000526020600020905b815481529060010190602001808311620011cc57829003601f168201915b505050505081526020016001820180546200120590620025be565b80601f01602080910402602001604051908101604052809291908181526020018280546200123390620025be565b8015620012845780601f10620012585761010080835404028352916020019162001284565b820191906000526020600020905b8154815290600101906020018083116200126657829003601f168201915b505050505081526020016002820180546200129f90620025be565b80601f0160208091040260200160405190810160405280929190818152602001828054620012cd90620025be565b80156200131e5780601f10620012f2576101008083540402835291602001916200131e565b820191906000526020600020905b8154815290600101906020018083116200130057829003601f168201915b505050505081526020016003820180546200133990620025be565b80601f01602080910402602001604051908101604052809291908181526020018280546200136790620025be565b8015620013b85780601f106200138c57610100808354040283529160200191620013b8565b820191906000526020600020905b8154815290600101906020018083116200139a57829003601f168201915b50505050508152602001600482018054620013d390620025be565b80601f01602080910402602001604051908101604052809291908181526020018280546200140190620025be565b8015620014525780601f10620014265761010080835404028352916020019162001452565b820191906000526020600020905b8154815290600101906020018083116200143457829003601f168201915b505050505081526020016005820180546200146d90620025be565b80601f01602080910402602001604051908101604052809291908181526020018280546200149b90620025be565b8015620014ec5780601f10620014c057610100808354040283529160200191620014ec565b820191906000526020600020905b815481529060010190602001808311620014ce57829003601f168201915b505050505081526020016006820180546200150790620025be565b80601f01602080910402602001604051908101604052809291908181526020018280546200153590620025be565b8015620015865780601f106200155a5761010080835404028352916020019162001586565b820191906000526020600020905b8154815290600101906020018083116200156857829003601f168201915b50505050508152602001600782018054620015a190620025be565b80601f0160208091040260200160405190810160405280929190818152602001828054620015cf90620025be565b8015620016205780601f10620015f45761010080835404028352916020019162001620565b820191906000526020600020905b8154815290600101906020018083116200160257829003601f168201915b50505091835250506008820154602082015260098201546001600160a01b039081166040830152600a830154166060820152600b90910154608090910152949350505050565b6001600160a01b03828116600090815260016020526040812060090154909116620016ca5760405162461bcd60e51b8152602060048201526013602482015272151bdad95b881a5cc81b9bdd081b1a5cdd1959606a1b604482015260640162000880565b6001600160a01b03831660009081526001602052604090206008810154849066556f963b97fe001015620017415760405162461bcd60e51b815260206004820152601f60248201527f46756e64696e672068617320616c7265616479206265656e2072616973656400604482015260640162000880565b6000816001600160a01b03166318160ddd6040518163ffffffff1660e01b8152600401602060405180830381865afa15801562001782573d6000803e3d6000fd5b505050506040513d601f19601f82011682018060405250810190620017a89190620027b9565b9050600081620017c4670de0b6b3a7640000620f42406200260a565b620017d09190620027d3565b90506000620017e8670de0b6b3a76400008362002624565b9050600062001800670de0b6b3a7640000896200260a565b905081881115620018545760405162461bcd60e51b815260206004820152601b60248201527f4e6f7420656e6f75676820617661696c61626c6520737570706c790000000000604482015260640162000880565b6000670de0b6b3a764000060056200187082620f42406200260a565b6200187c919062002624565b620018889087620027d3565b62001894919062002624565b90506000620018a4828b62001a1e565b905080341015620018f85760405162461bcd60e51b815260206004820152601b60248201527f496e636f72726563742076616c7565206f66204554482073656e740000000000604482015260640162000880565b348860080160008282546200190e9190620027e9565b9091555050600888015466556f963b97fe00116200197157620019318b62001b27565b50600060056200194d670de0b6b3a7640000620f42406200260a565b62001959919062002624565b60088a01549091506200196e8d838362001c2d565b50505b6040516394bf804d60e01b8152600481018490523360248201526001600160a01b038816906394bf804d906044016020604051808303816000875af1158015620019bf573d6000803e3d6000fd5b505050506040513d601f19601f82011682018060405250810190620019e59190620027ff565b506001985050505050505050505b92915050565b600562001a12670de0b6b3a7640000620f42406200260a565b62000828919062002624565b60008064e8d4a5100062001a338486620027e9565b62001a46906611c37937e080006200260a565b62001a52919062002624565b9050600064e8d4a5100062001a6f866611c37937e080006200260a565b62001a7b919062002624565b9050600062001a8a8362001dfb565b9050600062001a998362001dfb565b905060006611c37937e0800062001ab18385620027d3565b62001ac8651b48eb57e00064e8d4a510006200260a565b62001ad491906200260a565b62001ae0919062002624565b905062001af06103e88262002624565b98975050505050505050565b6000818154811062001b0d57600080fd5b6000918252602090912001546001600160a01b0316905081565b60405163a167129560e01b81526001600160a01b03821660048201526006602160991b016024820152610bb86044820152600090730227628f3f023bb0b980b67d528571c95c6dac1c90819063a1671295906064016020604051808303816000875af115801562001b9c573d6000803e3d6000fd5b505050506040513d601f19601f8201168201806040525081019062001bc2919062002823565b60405163f637731d60e01b8152600160601b600482018190529193506001600160a01b0384169063f637731d90602401600060405180830381600087803b15801562001c0d57600080fd5b505af115801562001c22573d6000803e3d6000fd5b505050505050919050565b62001c4e83731238536071e1c677a632429e3655c799b22cda528462001e72565b604080516101608101909152731238536071e1c677a632429e3655c799b22cda5290600090806006602160991b016001600160a01b0388161062001c9a576006602160991b0162001c9c565b865b6001600160a01b031681526020016006602160991b016001600160a01b0316876001600160a01b03161062001cd2578662001cdb565b6006602160991b015b6001600160a01b039081168252610bb86020830152620d89b3196040830152620d89b460608301526080909101906006602160991b019088161062001d21578462001d23565b855b81526020016006602160991b016001600160a01b0388161062001d47578562001d49565b845b81526020016000815260200160008152602001306001600160a01b03168152602001428152509050600080600080856001600160a01b0316638831645688876040518363ffffffff1660e01b815260040162001da6919062002843565b60806040518083038185885af115801562001dc5573d6000803e3d6000fd5b50505050506040513d601f19601f8201168201806040525081019062001dec91906200290c565b50505050505050505050505050565b600064e8d4a51000808360015b6014811162001e685762001e228164e8d4a510006200260a565b62001e2e83856200260a565b62001e3a919062002624565b925062001e488385620027e9565b93506001831062001e68578062001e5f8162002961565b91505062001e08565b5091949350505050565b604080516001600160a01b038481166024830152604480830185905283518084039091018152606490920183526020820180516001600160e01b031663095ea7b360e01b179052915160009283929087169162001ed091906200297d565b6000604051808303816000865af19150503d806000811462001f0f576040519150601f19603f3d011682016040523d82523d6000602084013e62001f14565b606091505b509150915081801562001f4257508051158062001f4257508080602001905181019062001f429190620027ff565b62001f905760405162461bcd60e51b815260206004820152601e60248201527f5472616e7366657248656c7065723a20415050524f56455f4641494c45440000604482015260640162000880565b5050505050565b610d16806200299c83390190565b60405180610180016040528060608152602001606081526020016060815260200160608152602001606081526020016060815260200160608152602001606081526020016000815260200160006001600160a01b0316815260200160006001600160a01b03168152602001600081525090565b6001600160a01b03811681146200202e57600080fd5b50565b6000602082840312156200204457600080fd5b8135620020518162002018565b9392505050565b60005b83811015620020755781810151838201526020016200205b565b50506000910152565b600081518084526200209881602086016020860162002058565b601f01601f19169290920160200192915050565b61018081526000620020c361018083018f6200207e565b8281036020840152620020d7818f6200207e565b90508281036040840152620020ed818e6200207e565b9050828103606084015262002103818d6200207e565b9050828103608084015262002119818c6200207e565b905082810360a08401526200212f818b6200207e565b905082810360c084015262002145818a6200207e565b905082810360e08401526200215b81896200207e565b915050856101008301526200217c6101208301866001600160a01b03169052565b6001600160a01b039390931661014082015261016001529a9950505050505050505050565b634e487b7160e01b600052604160045260246000fd5b600082601f830112620021c957600080fd5b813567ffffffffffffffff80821115620021e757620021e7620021a1565b604051601f8301601f19908116603f01168101908282118183101715620022125762002212620021a1565b816040528381528660208588010111156200222c57600080fd5b836020870160208301376000602085830101528094505050505092915050565b600080600080600080600080610100898b0312156200226a57600080fd5b883567ffffffffffffffff808211156200228357600080fd5b620022918c838d01620021b7565b995060208b0135915080821115620022a857600080fd5b620022b68c838d01620021b7565b985060408b0135915080821115620022cd57600080fd5b620022db8c838d01620021b7565b975060608b0135915080821115620022f257600080fd5b620023008c838d01620021b7565b965060808b01359150808211156200231757600080fd5b620023258c838d01620021b7565b955060a08b01359150808211156200233c57600080fd5b6200234a8c838d01620021b7565b945060c08b01359150808211156200236157600080fd5b6200236f8c838d01620021b7565b935060e08b01359150808211156200238657600080fd5b50620023958b828c01620021b7565b9150509295985092959890939650565b60006101808251818552620023bd828601826200207e565b91505060208301518482036020860152620023d982826200207e565b91505060408301518482036040860152620023f582826200207e565b915050606083015184820360608601526200241182826200207e565b915050608083015184820360808601526200242d82826200207e565b91505060a083015184820360a08601526200244982826200207e565b91505060c083015184820360c08601526200246582826200207e565b91505060e083015184820360e08601526200248182826200207e565b91505061010080840151818601525061012080840151620024ac828701826001600160a01b03169052565b5050610140838101516001600160a01b0316908501526101609283015192909301919091525090565b600060208083016020845280855180835260408601915060408160051b87010192506020870160005b828110156200253057603f198886030184526200251d858351620023a5565b94509285019290850190600101620024fe565b5092979650505050505050565b602081526000620020516020830184620023a5565b600080604083850312156200256657600080fd5b8235620025738162002018565b946020939093013593505050565b600080604083850312156200259557600080fd5b50508035926020909101359150565b600060208284031215620025b757600080fd5b5035919050565b600181811c90821680620025d357607f821691505b602082108103620010a557634e487b7160e01b600052602260045260246000fd5b634e487b7160e01b600052601160045260246000fd5b8082028115828204841417620019f357620019f3620025f4565b6000826200264257634e487b7160e01b600052601260045260246000fd5b500490565b6060815260006200265c60608301866200207e565b82810360208401526200267081866200207e565b915050826040830152949350505050565b601f821115620026d1576000816000526020600020601f850160051c81016020861015620026ac5750805b601f850160051c820191505b81811015620026cd57828155600101620026b8565b5050505b505050565b815167ffffffffffffffff811115620026f357620026f3620021a1565b6200270b81620027048454620025be565b8462002681565b602080601f8311600181146200274357600084156200272a5750858301515b600019600386901b1c1916600185901b178555620026cd565b600085815260208120601f198616915b82811015620027745788860151825594840194600190910190840162002753565b5085821015620027935787850151600019600388901b60f8161c191681555b5050505050600190811b01905550565b634e487b7160e01b600052603260045260246000fd5b600060208284031215620027cc57600080fd5b5051919050565b81810381811115620019f357620019f3620025f4565b80820180821115620019f357620019f3620025f4565b6000602082840312156200281257600080fd5b815180151581146200205157600080fd5b6000602082840312156200283657600080fd5b8151620020518162002018565b81516001600160a01b03168152610160810160208301516200287060208401826001600160a01b03169052565b50604083015162002888604084018262ffffff169052565b5060608301516200289e606084018260020b9052565b506080830151620028b4608084018260020b9052565b5060a083015160a083015260c083015160c083015260e083015160e083015261010080840151818401525061012080840151620028fb828501826001600160a01b03169052565b505061014092830151919092015290565b600080600080608085870312156200292357600080fd5b8451935060208501516fffffffffffffffffffffffffffffffff811681146200294b57600080fd5b6040860151606090960151949790965092505050565b600060018201620029765762002976620025f4565b5060010190565b600082516200299181846020870162002058565b919091019291505056fe60806040523480156200001157600080fd5b5060405162000d1638038062000d168339810160408190526200003491620002c0565b82826003620000448382620003c4565b506004620000538282620003c4565b5050506200006833826200008360201b60201c565b5050600580546001600160a01b0319163317905550620004b8565b6001600160a01b038216620000b35760405163ec442f0560e01b8152600060048201526024015b60405180910390fd5b620000c160008383620000c5565b5050565b6001600160a01b038316620000f4578060026000828254620000e8919062000490565b90915550620001689050565b6001600160a01b03831660009081526020819052604090205481811015620001495760405163391434e360e21b81526001600160a01b03851660048201526024810182905260448101839052606401620000aa565b6001600160a01b03841660009081526020819052604090209082900390555b6001600160a01b0382166200018657600280548290039055620001a5565b6001600160a01b03821660009081526020819052604090208054820190555b816001600160a01b0316836001600160a01b03167fddf252ad1be2c89b69c2b068fc378daa952ba7f163c4a11628f55a4df523b3ef83604051620001eb91815260200190565b60405180910390a3505050565b634e487b7160e01b600052604160045260246000fd5b600082601f8301126200022057600080fd5b81516001600160401b03808211156200023d576200023d620001f8565b604051601f8301601f19908116603f01168101908282118183101715620002685762000268620001f8565b81604052838152602092508660208588010111156200028657600080fd5b600091505b83821015620002aa57858201830151818301840152908201906200028b565b6000602085830101528094505050505092915050565b600080600060608486031215620002d657600080fd5b83516001600160401b0380821115620002ee57600080fd5b620002fc878388016200020e565b945060208601519150808211156200031357600080fd5b5062000322868287016200020e565b925050604084015190509250925092565b600181811c908216806200034857607f821691505b6020821081036200036957634e487b7160e01b600052602260045260246000fd5b50919050565b601f821115620003bf576000816000526020600020601f850160051c810160208610156200039a5750805b601f850160051c820191505b81811015620003bb57828155600101620003a6565b5050505b505050565b81516001600160401b03811115620003e057620003e0620001f8565b620003f881620003f1845462000333565b846200036f565b602080601f831160018114620004305760008415620004175750858301515b600019600386901b1c1916600185901b178555620003bb565b600085815260208120601f198616915b82811015620004615788860151825594840194600190910190840162000440565b5085821015620004805787850151600019600388901b60f8161c191681555b5050505050600190811b01905550565b80820180821115620004b257634e487b7160e01b600052601160045260246000fd5b92915050565b61084e80620004c86000396000f3fe608060405234801561001057600080fd5b50600436106100a95760003560e01c806370a082311161007157806370a08231146101235780638da5cb5b1461014c57806394bf804d1461017757806395d89b411461018a578063a9059cbb14610192578063dd62ed3e146101a557600080fd5b806306fdde03146100ae578063095ea7b3146100cc57806318160ddd146100ef57806323b872dd14610101578063313ce56714610114575b600080fd5b6100b66101de565b6040516100c39190610674565b60405180910390f35b6100df6100da3660046106df565b610270565b60405190151581526020016100c3565b6002545b6040519081526020016100c3565b6100df61010f366004610709565b61028a565b604051601281526020016100c3565b6100f3610131366004610745565b6001600160a01b031660009081526020819052604090205490565b60055461015f906001600160a01b031681565b6040516001600160a01b0390911681526020016100c3565b6100df610185366004610767565b6102ae565b6100b661032f565b6100df6101a03660046106df565b61033e565b6100f36101b3366004610793565b6001600160a01b03918216600090815260016020908152604080832093909416825291909152205490565b6060600380546101ed906107bd565b80601f0160208091040260200160405190810160405280929190818152602001828054610219906107bd565b80156102665780601f1061023b57610100808354040283529160200191610266565b820191906000526020600020905b81548152906001019060200180831161024957829003601f168201915b5050505050905090565b60003361027e81858561034c565b60019150505b92915050565b60003361029885828561035e565b6102a38585856103dc565b506001949350505050565b6005546000906001600160a01b0316331461031c5760405162461bcd60e51b8152602060048201526024808201527f4d696e742063616e206f6e6c792062652063616c6c656420627920746865206f6044820152633bb732b960e11b60648201526084015b60405180910390fd5b610326828461043b565b50600192915050565b6060600480546101ed906107bd565b60003361027e8185856103dc565b6103598383836001610475565b505050565b6001600160a01b0383811660009081526001602090815260408083209386168352929052205460001981146103d657818110156103c757604051637dc7a0d960e11b81526001600160a01b03841660048201526024810182905260448101839052606401610313565b6103d684848484036000610475565b50505050565b6001600160a01b03831661040657604051634b637e8f60e11b815260006004820152602401610313565b6001600160a01b0382166104305760405163ec442f0560e01b815260006004820152602401610313565b61035983838361054a565b6001600160a01b0382166104655760405163ec442f0560e01b815260006004820152602401610313565b6104716000838361054a565b5050565b6001600160a01b03841661049f5760405163e602df0560e01b815260006004820152602401610313565b6001600160a01b0383166104c957604051634a1406b160e11b815260006004820152602401610313565b6001600160a01b03808516600090815260016020908152604080832093871683529290522082905580156103d657826001600160a01b0316846001600160a01b03167f8c5be1e5ebec7d5bd14f71427d1e84f3dd0314c0f7b2291e5b200ac8c7c3b9258460405161053c91815260200190565b60405180910390a350505050565b6001600160a01b03831661057557806002600082825461056a91906107f7565b909155506105e79050565b6001600160a01b038316600090815260208190526040902054818110156105c85760405163391434e360e21b81526001600160a01b03851660048201526024810182905260448101839052606401610313565b6001600160a01b03841660009081526020819052604090209082900390555b6001600160a01b03821661060357600280548290039055610622565b6001600160a01b03821660009081526020819052604090208054820190555b816001600160a01b0316836001600160a01b03167fddf252ad1be2c89b69c2b068fc378daa952ba7f163c4a11628f55a4df523b3ef8360405161066791815260200190565b60405180910390a3505050565b60006020808352835180602085015260005b818110156106a257858101830151858201604001528201610686565b506000604082860101526040601f19601f8301168501019250505092915050565b80356001600160a01b03811681146106da57600080fd5b919050565b600080604083850312156106f257600080fd5b6106fb836106c3565b946020939093013593505050565b60008060006060848603121561071e57600080fd5b610727846106c3565b9250610735602085016106c3565b9150604084013590509250925092565b60006020828403121561075757600080fd5b610760826106c3565b9392505050565b6000806040838503121561077a57600080fd5b8235915061078a602084016106c3565b90509250929050565b600080604083850312156107a657600080fd5b6107af836106c3565b915061078a602084016106c3565b600181811c908216806107d157607f821691505b6020821081036107f157634e487b7160e01b600052602260045260246000fd5b50919050565b8082018082111561028457634e487b7160e01b600052601160045260246000fdfea2646970667358221220b3cda2be5985ae0d96e44f1884ac7240f3ce3914bfed1c30cc1b5d0a36cdf1fd64736f6c63430008180033a2646970667358221220b382598e81096bcf1adab52ccba72cf91f90746c475954271382b2529aff176264736f6c63430008180033",
  "linkReferences": {},
  "deployedLinkReferences": {}
}