{"contracts/IdeaFactory.sol":{"IdeaFactory":{"abi":[{"inputs":[],"name":"DECIMALS","outputs":[{"internalType":"uint256","name":"","type":"uint256"}],"stateMutability":"view","type":"function"},{"inputs":[],"name":"IDEACOIN_FUNDING_GOAL","outputs":[{"internalType":"uint256","name":"","type":"uint256"}],"stateMutability":"view","type":"function"},{"inputs":[],"name":"IDEATOKEN_CREATION_FEE","outputs":[{"internalType":"uint256","name":"","type":"uint256"}],"stateMutability":"view","type":"function"},{"inputs":[],"name":"INITIAL_PRICE","outputs":[{"internalType":"uint256","name":"","type":"uint256"}],"stateMutability":"view","type":"function"},{"inputs":[],"name":"INIT_SUPPLY","outputs":[{"internalType":"uint256","name":"","type":"uint256"}],"stateMutability":"view","type":"function"},{"inputs":[],"name":"K","outputs":[{"internalType":"uint256","name":"","type":"uint256"}],"stateMutability":"view","type":"function"},{"inputs":[],"name":"MAX_SUPPLY","outputs":[{"internalType":"uint256","name":"","type":"uint256"}],"stateMutability":"view","type":"function"},{"inputs":[{"internalType":"address","name":"","type":"address"}],"name":"addressToIdeaTokenMapping","outputs":[{"internalType":"string","name":"name","type":"string"},{"internalType":"string","name":"symbol","type":"string"},{"internalType":"string","name":"description","type":"string"},{"internalType":"string","name":"tokenImageUrl","type":"string"},{"internalType":"string","name":"productUrl","type":"string"},{"internalType":"string","name":"categories","type":"string"},{"internalType":"string","name":"productScreenshotUrl","type":"string"},{"internalType":"string","name":"twitterUrl","type":"string"},{"internalType":"uint256","name":"fundingRaised","type":"uint256"},{"internalType":"address","name":"tokenAddress","type":"address"},{"internalType":"address","name":"creatorAddress","type":"address"},{"internalType":"uint256","name":"tokenCurrentSupply","type":"uint256"}],"stateMutability":"view","type":"function"},{"inputs":[{"internalType":"address","name":"ideaTokenAddress","type":"address"},{"internalType":"uint256","name":"tokenQty","type":"uint256"}],"name":"buyIdeaToken","outputs":[{"internalType":"uint256","name":"","type":"uint256"}],"stateMutability":"payable","type":"function"},{"inputs":[{"internalType":"uint256","name":"currentSupply","type":"uint256"},{"internalType":"uint256","name":"tokensToBuy","type":"uint256"}],"name":"calculateCost","outputs":[{"internalType":"uint256","name":"","type":"uint256"}],"stateMutability":"pure","type":"function"},{"inputs":[{"internalType":"string","name":"name","type":"string"},{"internalType":"string","name":"symbol","type":"string"},{"internalType":"string","name":"imageUrl","type":"string"},{"internalType":"string","name":"description","type":"string"},{"internalType":"string","name":"categories","type":"string"},{"internalType":"string","name":"productScreenshotUrl","type":"string"},{"internalType":"string","name":"productUrl","type":"string"},{"internalType":"string","name":"twitterUrl","type":"string"}],"name":"createIdeaToken","outputs":[{"internalType":"address","name":"","type":"address"}],"stateMutability":"payable","type":"function"},{"inputs":[],"name":"getAllIdeaTokens","outputs":[{"components":[{"internalType":"string","name":"name","type":"string"},{"internalType":"string","name":"symbol","type":"string"},{"internalType":"string","name":"description","type":"string"},{"internalType":"string","name":"tokenImageUrl","type":"string"},{"internalType":"string","name":"productUrl","type":"string"},{"internalType":"string","name":"categories","type":"string"},{"internalType":"string","name":"productScreenshotUrl","type":"string"},{"internalType":"string","name":"twitterUrl","type":"string"},{"internalType":"uint256","name":"fundingRaised","type":"uint256"},{"internalType":"address","name":"tokenAddress","type":"address"},{"internalType":"address","name":"creatorAddress","type":"address"},{"internalType":"uint256","name":"tokenCurrentSupply","type":"uint256"}],"internalType":"struct IdeaFactory.ideaToken[]","name":"","type":"tuple[]"}],"stateMutability":"view","type":"function"},{"inputs":[{"internalType":"address","name":"ideaTokenAddress","type":"address"}],"name":"getIdeaToken","outputs":[{"components":[{"internalType":"string","name":"name","type":"string"},{"internalType":"string","name":"symbol","type":"string"},{"internalType":"string","name":"description","type":"string"},{"internalType":"string","name":"tokenImageUrl","type":"string"},{"internalType":"string","name":"productUrl","type":"string"},{"internalType":"string","name":"categories","type":"string"},{"internalType":"string","name":"productScreenshotUrl","type":"string"},{"internalType":"string","name":"twitterUrl","type":"string"},{"internalType":"uint256","name":"fundingRaised","type":"uint256"},{"internalType":"address","name":"tokenAddress","type":"address"},{"internalType":"address","name":"creatorAddress","type":"address"},{"internalType":"uint256","name":"tokenCurrentSupply","type":"uint256"}],"internalType":"struct IdeaFactory.ideaToken","name":"","type":"tuple"}],"stateMutability":"nonpayable","type":"function"},{"inputs":[{"internalType":"uint256","name":"","type":"uint256"}],"name":"ideaTokenAddresses","outputs":[{"internalType":"address","name":"","type":"address"}],"stateMutability":"view","type":"function"},{"inputs":[],"name":"poolFee","outputs":[{"internalType":"uint24","name":"","type":"uint24"}],"stateMutability":"view","type":"function"}],"evm":{"bytecode":{"linkReferences":{},"object":"608060405234801561001057600080fd5b506136e7806100206000396000f3fe608060405260043610620000fb5760003560e01c80636dec73981162000095578063a932492f1162000060578063a932492f14620002a7578063ce39469614620002c4578063e0f857bd14620002e9578063e2ce39e5146200030657600080fd5b80636dec739814620002405780637c5e2795146200025757806391898cb91462000273578063956cc859146200028f57600080fd5b806332cb6b0c11620000d657806332cb6b0c146200019d57806355756a6a14620001b5578063580e9ebb14620001e55780635beb78d9146200020c57600080fd5b8063089fe6aa146200010057806314145f9414620001315780632e0f26251462000170575b600080fd5b3480156200010d57600080fd5b5062000118610bb881565b60405162ffffff90911681526020015b60405180910390f35b3480156200013e57600080fd5b50620001566200015036600462002031565b6200032b565b604051620001289c9b9a99989796959493929190620020ac565b3480156200017d57600080fd5b506200018e670de0b6b3a764000081565b60405190815260200162000128565b348015620001aa57600080fd5b506200018e62000811565b620001cc620001c63660046200224c565b6200082b565b6040516001600160a01b03909116815260200162000128565b348015620001f257600080fd5b50620001fd62000abb565b604051620001289190620024d5565b3480156200021957600080fd5b50620002316200022b36600462002031565b620010ab565b6040516200012891906200253d565b6200018e6200025136600462002552565b62001666565b3480156200026457600080fd5b506200018e651b48eb57e00081565b3480156200028057600080fd5b506200018e655af3107a400081565b3480156200029c57600080fd5b506200018e620019f9565b348015620002b457600080fd5b506200018e6611c37937e0800081565b348015620002d157600080fd5b506200018e620002e336600462002581565b62001a1e565b348015620002f657600080fd5b506200018e66556f963b97fe0081565b3480156200031357600080fd5b50620001cc62000325366004620025a4565b62001afc565b6001602052600090815260409020805481906200034890620025be565b80601f01602080910402602001604051908101604052809291908181526020018280546200037690620025be565b8015620003c75780601f106200039b57610100808354040283529160200191620003c7565b820191906000526020600020905b815481529060010190602001808311620003a957829003601f168201915b505050505090806001018054620003de90620025be565b80601f01602080910402602001604051908101604052809291908181526020018280546200040c90620025be565b80156200045d5780601f1062000431576101008083540402835291602001916200045d565b820191906000526020600020905b8154815290600101906020018083116200043f57829003601f168201915b5050505050908060020180546200047490620025be565b80601f0160208091040260200160405190810160405280929190818152602001828054620004a290620025be565b8015620004f35780601f10620004c757610100808354040283529160200191620004f3565b820191906000526020600020905b815481529060010190602001808311620004d557829003601f168201915b5050505050908060030180546200050a90620025be565b80601f01602080910402602001604051908101604052809291908181526020018280546200053890620025be565b8015620005895780601f106200055d5761010080835404028352916020019162000589565b820191906000526020600020905b8154815290600101906020018083116200056b57829003601f168201915b505050505090806004018054620005a090620025be565b80601f0160208091040260200160405190810160405280929190818152602001828054620005ce90620025be565b80156200061f5780601f10620005f3576101008083540402835291602001916200061f565b820191906000526020600020905b8154815290600101906020018083116200060157829003601f168201915b5050505050908060050180546200063690620025be565b80601f01602080910402602001604051908101604052809291908181526020018280546200066490620025be565b8015620006b55780601f106200068957610100808354040283529160200191620006b5565b820191906000526020600020905b8154815290600101906020018083116200069757829003601f168201915b505050505090806006018054620006cc90620025be565b80601f0160208091040260200160405190810160405280929190818152602001828054620006fa90620025be565b80156200074b5780601f106200071f576101008083540402835291602001916200074b565b820191906000526020600020905b8154815290600101906020018083116200072d57829003601f168201915b5050505050908060070180546200076290620025be565b80601f01602080910402602001604051908101604052809291908181526020018280546200079090620025be565b8015620007e15780601f10620007b557610100808354040283529160200191620007e1565b820191906000526020600020905b815481529060010190602001808311620007c357829003601f168201915b50505060088401546009850154600a860154600b90960154949591946001600160a01b039182169450911691508c565b62000828670de0b6b3a7640000620f42406200260a565b81565b6000655af3107a4000341015620008895760405162461bcd60e51b815260206004820152601960248201527f496e73756666696369656e74206372656174696f6e206665650000000000000060448201526064015b60405180910390fd5b600089896005620008a6670de0b6b3a7640000620f42406200260a565b620008b2919062002624565b604051620008c09062001f97565b620008ce9392919062002647565b604051809103906000f080158015620008eb573d6000803e3d6000fd5b5060408051610180810182528c815260208082018d90528183018b9052606082018c90526080820188905260a082018a905260c0820189905260e08201879052600061010083018190526001600160a01b03851661012084018190523361014085015261016084018290528154600181810184557f290decd9548b62a8d60345a988386fc84ba6bc95484008f6362f93160ef3e56390910180546001600160a01b0319168317905590825290915291909120815192935083928291908190620009b59082620026d6565b5060208201516001820190620009cc9082620026d6565b5060408201516002820190620009e39082620026d6565b5060608201516003820190620009fa9082620026d6565b506080820151600482019062000a119082620026d6565b5060a0820151600582019062000a289082620026d6565b5060c0820151600682019062000a3f9082620026d6565b5060e0820151600782019062000a569082620026d6565b5061010082015160088201556101208201516009820180546001600160a01b039283166001600160a01b031991821617909155610140840151600a8401805491909316911617905561016090910151600b909101555091505098975050505050505050565b600080546060919067ffffffffffffffff81111562000ade5762000ade620021a1565b60405190808252806020026020018201604052801562000b1b57816020015b62000b0762001fa5565b81526020019060019003908162000afd5790505b50905060005b600054811015620010a5576001600080838154811062000b455762000b45620027a3565b60009182526020808320909101546001600160a01b0316835282019290925260409081019091208151610180810190925280548290829062000b8790620025be565b80601f016020809104026020016040519081016040528092919081815260200182805462000bb590620025be565b801562000c065780601f1062000bda5761010080835404028352916020019162000c06565b820191906000526020600020905b81548152906001019060200180831162000be857829003601f168201915b5050505050815260200160018201805462000c2190620025be565b80601f016020809104026020016040519081016040528092919081815260200182805462000c4f90620025be565b801562000ca05780601f1062000c745761010080835404028352916020019162000ca0565b820191906000526020600020905b81548152906001019060200180831162000c8257829003601f168201915b5050505050815260200160028201805462000cbb90620025be565b80601f016020809104026020016040519081016040528092919081815260200182805462000ce990620025be565b801562000d3a5780601f1062000d0e5761010080835404028352916020019162000d3a565b820191906000526020600020905b81548152906001019060200180831162000d1c57829003601f168201915b5050505050815260200160038201805462000d5590620025be565b80601f016020809104026020016040519081016040528092919081815260200182805462000d8390620025be565b801562000dd45780601f1062000da85761010080835404028352916020019162000dd4565b820191906000526020600020905b81548152906001019060200180831162000db657829003601f168201915b5050505050815260200160048201805462000def90620025be565b80601f016020809104026020016040519081016040528092919081815260200182805462000e1d90620025be565b801562000e6e5780601f1062000e425761010080835404028352916020019162000e6e565b820191906000526020600020905b81548152906001019060200180831162000e5057829003601f168201915b5050505050815260200160058201805462000e8990620025be565b80601f016020809104026020016040519081016040528092919081815260200182805462000eb790620025be565b801562000f085780601f1062000edc5761010080835404028352916020019162000f08565b820191906000526020600020905b81548152906001019060200180831162000eea57829003601f168201915b5050505050815260200160068201805462000f2390620025be565b80601f016020809104026020016040519081016040528092919081815260200182805462000f5190620025be565b801562000fa25780601f1062000f765761010080835404028352916020019162000fa2565b820191906000526020600020905b81548152906001019060200180831162000f8457829003601f168201915b5050505050815260200160078201805462000fbd90620025be565b80601f016020809104026020016040519081016040528092919081815260200182805462000feb90620025be565b80156200103c5780601f1062001010576101008083540402835291602001916200103c565b820191906000526020600020905b8154815290600101906020018083116200101e57829003601f168201915b50505091835250506008820154602082015260098201546001600160a01b039081166040830152600a830154166060820152600b909101546080909101528251839083908110620010915762001091620027a3565b602090810291909101015260010162000b21565b50919050565b620010b562001fa5565b6001600160a01b03821660008181526001602090815260409182902082516318160ddd60e01b815292519093869390926318160ddd926004808401938290030181865afa1580156200110b573d6000803e3d6000fd5b505050506040513d601f19601f82011682018060405250810190620011319190620027b9565b600b8301556001600160a01b03841660009081526001602052604090819020815161018081019092528054829082906200116b90620025be565b80601f01602080910402602001604051908101604052809291908181526020018280546200119990620025be565b8015620011ea5780601f10620011be57610100808354040283529160200191620011ea565b820191906000526020600020905b815481529060010190602001808311620011cc57829003601f168201915b505050505081526020016001820180546200120590620025be565b80601f01602080910402602001604051908101604052809291908181526020018280546200123390620025be565b8015620012845780601f10620012585761010080835404028352916020019162001284565b820191906000526020600020905b8154815290600101906020018083116200126657829003601f168201915b505050505081526020016002820180546200129f90620025be565b80601f0160208091040260200160405190810160405280929190818152602001828054620012cd90620025be565b80156200131e5780601f10620012f2576101008083540402835291602001916200131e565b820191906000526020600020905b8154815290600101906020018083116200130057829003601f168201915b505050505081526020016003820180546200133990620025be565b80601f01602080910402602001604051908101604052809291908181526020018280546200136790620025be565b8015620013b85780601f106200138c57610100808354040283529160200191620013b8565b820191906000526020600020905b8154815290600101906020018083116200139a57829003601f168201915b50505050508152602001600482018054620013d390620025be565b80601f01602080910402602001604051908101604052809291908181526020018280546200140190620025be565b8015620014525780601f10620014265761010080835404028352916020019162001452565b820191906000526020600020905b8154815290600101906020018083116200143457829003601f168201915b505050505081526020016005820180546200146d90620025be565b80601f01602080910402602001604051908101604052809291908181526020018280546200149b90620025be565b8015620014ec5780601f10620014c057610100808354040283529160200191620014ec565b820191906000526020600020905b815481529060010190602001808311620014ce57829003601f168201915b505050505081526020016006820180546200150790620025be565b80601f01602080910402602001604051908101604052809291908181526020018280546200153590620025be565b8015620015865780601f106200155a5761010080835404028352916020019162001586565b820191906000526020600020905b8154815290600101906020018083116200156857829003601f168201915b50505050508152602001600782018054620015a190620025be565b80601f0160208091040260200160405190810160405280929190818152602001828054620015cf90620025be565b8015620016205780601f10620015f45761010080835404028352916020019162001620565b820191906000526020600020905b8154815290600101906020018083116200160257829003601f168201915b50505091835250506008820154602082015260098201546001600160a01b039081166040830152600a830154166060820152600b90910154608090910152949350505050565b6001600160a01b03828116600090815260016020526040812060090154909116620016ca5760405162461bcd60e51b8152602060048201526013602482015272151bdad95b881a5cc81b9bdd081b1a5cdd1959606a1b604482015260640162000880565b6001600160a01b03831660009081526001602052604090206008810154849066556f963b97fe001015620017415760405162461bcd60e51b815260206004820152601f60248201527f46756e64696e672068617320616c7265616479206265656e2072616973656400604482015260640162000880565b6000816001600160a01b03166318160ddd6040518163ffffffff1660e01b8152600401602060405180830381865afa15801562001782573d6000803e3d6000fd5b505050506040513d601f19601f82011682018060405250810190620017a89190620027b9565b9050600081620017c4670de0b6b3a7640000620f42406200260a565b620017d09190620027d3565b90506000620017e8670de0b6b3a76400008362002624565b9050600062001800670de0b6b3a7640000896200260a565b905081881115620018545760405162461bcd60e51b815260206004820152601b60248201527f4e6f7420656e6f75676820617661696c61626c6520737570706c790000000000604482015260640162000880565b6000670de0b6b3a764000060056200187082620f42406200260a565b6200187c919062002624565b620018889087620027d3565b62001894919062002624565b90506000620018a4828b62001a1e565b905080341015620018f85760405162461bcd60e51b815260206004820152601b60248201527f496e636f72726563742076616c7565206f66204554482073656e740000000000604482015260640162000880565b348860080160008282546200190e9190620027e9565b9091555050600888015466556f963b97fe00116200197157620019318b62001b27565b50600060056200194d670de0b6b3a7640000620f42406200260a565b62001959919062002624565b60088a01549091506200196e8d838362001c2d565b50505b6040516394bf804d60e01b8152600481018490523360248201526001600160a01b038816906394bf804d906044016020604051808303816000875af1158015620019bf573d6000803e3d6000fd5b505050506040513d601f19601f82011682018060405250810190620019e59190620027ff565b506001985050505050505050505b92915050565b600562001a12670de0b6b3a7640000620f42406200260a565b62000828919062002624565b60008064e8d4a5100062001a338486620027e9565b62001a46906611c37937e080006200260a565b62001a52919062002624565b9050600064e8d4a5100062001a6f866611c37937e080006200260a565b62001a7b919062002624565b9050600062001a8a8362001dfb565b9050600062001a998362001dfb565b905060006611c37937e0800062001ab18385620027d3565b62001ac8651b48eb57e00064e8d4a510006200260a565b62001ad491906200260a565b62001ae0919062002624565b905062001af06103e88262002624565b98975050505050505050565b6000818154811062001b0d57600080fd5b6000918252602090912001546001600160a01b0316905081565b60405163a167129560e01b81526001600160a01b03821660048201526006602160991b016024820152610bb86044820152600090730227628f3f023bb0b980b67d528571c95c6dac1c90819063a1671295906064016020604051808303816000875af115801562001b9c573d6000803e3d6000fd5b505050506040513d601f19601f8201168201806040525081019062001bc2919062002823565b60405163f637731d60e01b8152600160601b600482018190529193506001600160a01b0384169063f637731d90602401600060405180830381600087803b15801562001c0d57600080fd5b505af115801562001c22573d6000803e3d6000fd5b505050505050919050565b62001c4e83731238536071e1c677a632429e3655c799b22cda528462001e72565b604080516101608101909152731238536071e1c677a632429e3655c799b22cda5290600090806006602160991b016001600160a01b0388161062001c9a576006602160991b0162001c9c565b865b6001600160a01b031681526020016006602160991b016001600160a01b0316876001600160a01b03161062001cd2578662001cdb565b6006602160991b015b6001600160a01b039081168252610bb86020830152620d89b3196040830152620d89b460608301526080909101906006602160991b019088161062001d21578462001d23565b855b81526020016006602160991b016001600160a01b0388161062001d47578562001d49565b845b81526020016000815260200160008152602001306001600160a01b03168152602001428152509050600080600080856001600160a01b0316638831645688876040518363ffffffff1660e01b815260040162001da6919062002843565b60806040518083038185885af115801562001dc5573d6000803e3d6000fd5b50505050506040513d601f19601f8201168201806040525081019062001dec91906200290c565b50505050505050505050505050565b600064e8d4a51000808360015b6014811162001e685762001e228164e8d4a510006200260a565b62001e2e83856200260a565b62001e3a919062002624565b925062001e488385620027e9565b93506001831062001e68578062001e5f8162002961565b91505062001e08565b5091949350505050565b604080516001600160a01b038481166024830152604480830185905283518084039091018152606490920183526020820180516001600160e01b031663095ea7b360e01b179052915160009283929087169162001ed091906200297d565b6000604051808303816000865af19150503d806000811462001f0f576040519150601f19603f3d011682016040523d82523d6000602084013e62001f14565b606091505b509150915081801562001f4257508051158062001f4257508080602001905181019062001f429190620027ff565b62001f905760405162461bcd60e51b815260206004820152601e60248201527f5472616e7366657248656c7065723a20415050524f56455f4641494c45440000604482015260640162000880565b5050505050565b610d16806200299c83390190565b60405180610180016040528060608152602001606081526020016060815260200160608152602001606081526020016060815260200160608152602001606081526020016000815260200160006001600160a01b0316815260200160006001600160a01b03168152602001600081525090565b6001600160a01b03811681146200202e57600080fd5b50565b6000602082840312156200204457600080fd5b8135620020518162002018565b9392505050565b60005b83811015620020755781810151838201526020016200205b565b50506000910152565b600081518084526200209881602086016020860162002058565b601f01601f19169290920160200192915050565b61018081526000620020c361018083018f6200207e565b8281036020840152620020d7818f6200207e565b90508281036040840152620020ed818e6200207e565b9050828103606084015262002103818d6200207e565b9050828103608084015262002119818c6200207e565b905082810360a08401526200212f818b6200207e565b905082810360c084015262002145818a6200207e565b905082810360e08401526200215b81896200207e565b915050856101008301526200217c6101208301866001600160a01b03169052565b6001600160a01b039390931661014082015261016001529a9950505050505050505050565b634e487b7160e01b600052604160045260246000fd5b600082601f830112620021c957600080fd5b813567ffffffffffffffff80821115620021e757620021e7620021a1565b604051601f8301601f19908116603f01168101908282118183101715620022125762002212620021a1565b816040528381528660208588010111156200222c57600080fd5b836020870160208301376000602085830101528094505050505092915050565b600080600080600080600080610100898b0312156200226a57600080fd5b883567ffffffffffffffff808211156200228357600080fd5b620022918c838d01620021b7565b995060208b0135915080821115620022a857600080fd5b620022b68c838d01620021b7565b985060408b0135915080821115620022cd57600080fd5b620022db8c838d01620021b7565b975060608b0135915080821115620022f257600080fd5b620023008c838d01620021b7565b965060808b01359150808211156200231757600080fd5b620023258c838d01620021b7565b955060a08b01359150808211156200233c57600080fd5b6200234a8c838d01620021b7565b945060c08b01359150808211156200236157600080fd5b6200236f8c838d01620021b7565b935060e08b01359150808211156200238657600080fd5b50620023958b828c01620021b7565b9150509295985092959890939650565b60006101808251818552620023bd828601826200207e565b91505060208301518482036020860152620023d982826200207e565b91505060408301518482036040860152620023f582826200207e565b915050606083015184820360608601526200241182826200207e565b915050608083015184820360808601526200242d82826200207e565b91505060a083015184820360a08601526200244982826200207e565b91505060c083015184820360c08601526200246582826200207e565b91505060e083015184820360e08601526200248182826200207e565b91505061010080840151818601525061012080840151620024ac828701826001600160a01b03169052565b5050610140838101516001600160a01b0316908501526101609283015192909301919091525090565b600060208083016020845280855180835260408601915060408160051b87010192506020870160005b828110156200253057603f198886030184526200251d858351620023a5565b94509285019290850190600101620024fe565b5092979650505050505050565b602081526000620020516020830184620023a5565b600080604083850312156200256657600080fd5b8235620025738162002018565b946020939093013593505050565b600080604083850312156200259557600080fd5b50508035926020909101359150565b600060208284031215620025b757600080fd5b5035919050565b600181811c90821680620025d357607f821691505b602082108103620010a557634e487b7160e01b600052602260045260246000fd5b634e487b7160e01b600052601160045260246000fd5b8082028115828204841417620019f357620019f3620025f4565b6000826200264257634e487b7160e01b600052601260045260246000fd5b500490565b6060815260006200265c60608301866200207e565b82810360208401526200267081866200207e565b915050826040830152949350505050565b601f821115620026d1576000816000526020600020601f850160051c81016020861015620026ac5750805b601f850160051c820191505b81811015620026cd57828155600101620026b8565b5050505b505050565b815167ffffffffffffffff811115620026f357620026f3620021a1565b6200270b81620027048454620025be565b8462002681565b602080601f8311600181146200274357600084156200272a5750858301515b600019600386901b1c1916600185901b178555620026cd565b600085815260208120601f198616915b82811015620027745788860151825594840194600190910190840162002753565b5085821015620027935787850151600019600388901b60f8161c191681555b5050505050600190811b01905550565b634e487b7160e01b600052603260045260246000fd5b600060208284031215620027cc57600080fd5b5051919050565b81810381811115620019f357620019f3620025f4565b80820180821115620019f357620019f3620025f4565b6000602082840312156200281257600080fd5b815180151581146200205157600080fd5b6000602082840312156200283657600080fd5b8151620020518162002018565b81516001600160a01b03168152610160810160208301516200287060208401826001600160a01b03169052565b50604083015162002888604084018262ffffff169052565b5060608301516200289e606084018260020b9052565b506080830151620028b4608084018260020b9052565b5060a083015160a083015260c083015160c083015260e083015160e083015261010080840151818401525061012080840151620028fb828501826001600160a01b03169052565b505061014092830151919092015290565b600080600080608085870312156200292357600080fd5b8451935060208501516fffffffffffffffffffffffffffffffff811681146200294b57600080fd5b6040860151606090960151949790965092505050565b600060018201620029765762002976620025f4565b5060010190565b600082516200299181846020870162002058565b919091019291505056fe60806040523480156200001157600080fd5b5060405162000d1638038062000d168339810160408190526200003491620002c0565b82826003620000448382620003c4565b506004620000538282620003c4565b5050506200006833826200008360201b60201c565b5050600580546001600160a01b0319163317905550620004b8565b6001600160a01b038216620000b35760405163ec442f0560e01b8152600060048201526024015b60405180910390fd5b620000c160008383620000c5565b5050565b6001600160a01b038316620000f4578060026000828254620000e8919062000490565b90915550620001689050565b6001600160a01b03831660009081526020819052604090205481811015620001495760405163391434e360e21b81526001600160a01b03851660048201526024810182905260448101839052606401620000aa565b6001600160a01b03841660009081526020819052604090209082900390555b6001600160a01b0382166200018657600280548290039055620001a5565b6001600160a01b03821660009081526020819052604090208054820190555b816001600160a01b0316836001600160a01b03167fddf252ad1be2c89b69c2b068fc378daa952ba7f163c4a11628f55a4df523b3ef83604051620001eb91815260200190565b60405180910390a3505050565b634e487b7160e01b600052604160045260246000fd5b600082601f8301126200022057600080fd5b81516001600160401b03808211156200023d576200023d620001f8565b604051601f8301601f19908116603f01168101908282118183101715620002685762000268620001f8565b81604052838152602092508660208588010111156200028657600080fd5b600091505b83821015620002aa57858201830151818301840152908201906200028b565b6000602085830101528094505050505092915050565b600080600060608486031215620002d657600080fd5b83516001600160401b0380821115620002ee57600080fd5b620002fc878388016200020e565b945060208601519150808211156200031357600080fd5b5062000322868287016200020e565b925050604084015190509250925092565b600181811c908216806200034857607f821691505b6020821081036200036957634e487b7160e01b600052602260045260246000fd5b50919050565b601f821115620003bf576000816000526020600020601f850160051c810160208610156200039a5750805b601f850160051c820191505b81811015620003bb57828155600101620003a6565b5050505b505050565b81516001600160401b03811115620003e057620003e0620001f8565b620003f881620003f1845462000333565b846200036f565b602080601f831160018114620004305760008415620004175750858301515b600019600386901b1c1916600185901b178555620003bb565b600085815260208120601f198616915b82811015620004615788860151825594840194600190910190840162000440565b5085821015620004805787850151600019600388901b60f8161c191681555b5050505050600190811b01905550565b80820180821115620004b257634e487b7160e01b600052601160045260246000fd5b92915050565b61084e80620004c86000396000f3fe608060405234801561001057600080fd5b50600436106100a95760003560e01c806370a082311161007157806370a08231146101235780638da5cb5b1461014c57806394bf804d1461017757806395d89b411461018a578063a9059cbb14610192578063dd62ed3e146101a557600080fd5b806306fdde03146100ae578063095ea7b3146100cc57806318160ddd146100ef57806323b872dd14610101578063313ce56714610114575b600080fd5b6100b66101de565b6040516100c39190610674565b60405180910390f35b6100df6100da3660046106df565b610270565b60405190151581526020016100c3565b6002545b6040519081526020016100c3565b6100df61010f366004610709565b61028a565b604051601281526020016100c3565b6100f3610131366004610745565b6001600160a01b031660009081526020819052604090205490565b60055461015f906001600160a01b031681565b6040516001600160a01b0390911681526020016100c3565b6100df610185366004610767565b6102ae565b6100b661032f565b6100df6101a03660046106df565b61033e565b6100f36101b3366004610793565b6001600160a01b03918216600090815260016020908152604080832093909416825291909152205490565b6060600380546101ed906107bd565b80601f0160208091040260200160405190810160405280929190818152602001828054610219906107bd565b80156102665780601f1061023b57610100808354040283529160200191610266565b820191906000526020600020905b81548152906001019060200180831161024957829003601f168201915b5050505050905090565b60003361027e81858561034c565b60019150505b92915050565b60003361029885828561035e565b6102a38585856103dc565b506001949350505050565b6005546000906001600160a01b0316331461031c5760405162461bcd60e51b8152602060048201526024808201527f4d696e742063616e206f6e6c792062652063616c6c656420627920746865206f6044820152633bb732b960e11b60648201526084015b60405180910390fd5b610326828461043b565b50600192915050565b6060600480546101ed906107bd565b60003361027e8185856103dc565b6103598383836001610475565b505050565b6001600160a01b0383811660009081526001602090815260408083209386168352929052205460001981146103d657818110156103c757604051637dc7a0d960e11b81526001600160a01b03841660048201526024810182905260448101839052606401610313565b6103d684848484036000610475565b50505050565b6001600160a01b03831661040657604051634b637e8f60e11b815260006004820152602401610313565b6001600160a01b0382166104305760405163ec442f0560e01b815260006004820152602401610313565b61035983838361054a565b6001600160a01b0382166104655760405163ec442f0560e01b815260006004820152602401610313565b6104716000838361054a565b5050565b6001600160a01b03841661049f5760405163e602df0560e01b815260006004820152602401610313565b6001600160a01b0383166104c957604051634a1406b160e11b815260006004820152602401610313565b6001600160a01b03808516600090815260016020908152604080832093871683529290522082905580156103d657826001600160a01b0316846001600160a01b03167f8c5be1e5ebec7d5bd14f71427d1e84f3dd0314c0f7b2291e5b200ac8c7c3b9258460405161053c91815260200190565b60405180910390a350505050565b6001600160a01b03831661057557806002600082825461056a91906107f7565b909155506105e79050565b6001600160a01b038316600090815260208190526040902054818110156105c85760405163391434e360e21b81526001600160a01b03851660048201526024810182905260448101839052606401610313565b6001600160a01b03841660009081526020819052604090209082900390555b6001600160a01b03821661060357600280548290039055610622565b6001600160a01b03821660009081526020819052604090208054820190555b816001600160a01b0316836001600160a01b03167fddf252ad1be2c89b69c2b068fc378daa952ba7f163c4a11628f55a4df523b3ef8360405161066791815260200190565b60405180910390a3505050565b60006020808352835180602085015260005b818110156106a257858101830151858201604001528201610686565b506000604082860101526040601f19601f8301168501019250505092915050565b80356001600160a01b03811681146106da57600080fd5b919050565b600080604083850312156106f257600080fd5b6106fb836106c3565b946020939093013593505050565b60008060006060848603121561071e57600080fd5b610727846106c3565b9250610735602085016106c3565b9150604084013590509250925092565b60006020828403121561075757600080fd5b610760826106c3565b9392505050565b6000806040838503121561077a57600080fd5b8235915061078a602084016106c3565b90509250929050565b600080604083850312156107a657600080fd5b6107af836106c3565b915061078a602084016106c3565b600181811c908216806107d157607f821691505b6020821081036107f157634e487b7160e01b600052602260045260246000fd5b50919050565b8082018082111561028457634e487b7160e01b600052601160045260246000fdfea2646970667358221220b3cda2be5985ae0d96e44f1884ac7240f3ce3914bfed1c30cc1b5d0a36cdf1fd64736f6c63430008180033a2646970667358221220b382598e81096bcf1adab52ccba72cf91f90746c475954271382b2529aff176264736f6c63430008180033","opcodes":"PUSH1 0x80 PUSH1 0x40 MSTORE CALLVALUE DUP1 ISZERO PUSH2 0x10 JUMPI PUSH1 0x0 DUP1 REVERT JUMPDEST POP PUSH2 0x36E7 DUP1 PUSH2 0x20 PUSH1 0x0 CODECOPY PUSH1 0x0 RETURN INVALID PUSH1 0x80 PUSH1 0x40 MSTORE PUSH1 0x4 CALLDATASIZE LT PUSH3 0xFB JUMPI PUSH1 0x0 CALLDATALOAD PUSH1 0xE0 SHR DUP1 PUSH4 0x6DEC7398 GT PUSH3 0x95 JUMPI DUP1 PUSH4 0xA932492F GT PUSH3 0x60 JUMPI DUP1 PUSH4 0xA932492F EQ PUSH3 0x2A7 JUMPI DUP1 PUSH4 0xCE394696 EQ PUSH3 0x2C4 JUMPI DUP1 PUSH4 0xE0F857BD EQ PUSH3 0x2E9 JUMPI DUP1 PUSH4 0xE2CE39E5 EQ PUSH3 0x306 JUMPI PUSH1 0x0 DUP1 REVERT JUMPDEST DUP1 PUSH4 0x6DEC7398 EQ PUSH3 0x240 JUMPI DUP1 PUSH4 0x7C5E2795 EQ PUSH3 0x257 JUMPI DUP1 PUSH4 0x91898CB9 EQ PUSH3 0x273 JUMPI DUP1 PUSH4 0x956CC859 EQ PUSH3 0x28F JUMPI PUSH1 0x0 DUP1 REVERT JUMPDEST DUP1 PUSH4 0x32CB6B0C GT PUSH3 0xD6 JUMPI DUP1 PUSH4 0x32CB6B0C EQ PUSH3 0x19D JUMPI DUP1 PUSH4 0x55756A6A EQ PUSH3 0x1B5 JUMPI DUP1 PUSH4 0x580E9EBB EQ PUSH3 0x1E5 JUMPI DUP1 PUSH4 0x5BEB78D9 EQ PUSH3 0x20C JUMPI PUSH1 0x0 DUP1 REVERT JUMPDEST DUP1 PUSH4 0x89FE6AA EQ PUSH3 0x100 JUMPI DUP1 PUSH4 0x14145F94 EQ PUSH3 0x131 JUMPI DUP1 PUSH4 0x2E0F2625 EQ PUSH3 0x170 JUMPI JUMPDEST PUSH1 0x0 DUP1 REVERT JUMPDEST CALLVALUE DUP1 ISZERO PUSH3 0x10D JUMPI PUSH1 0x0 DUP1 REVERT JUMPDEST POP PUSH3 0x118 PUSH2 0xBB8 DUP2 JUMP JUMPDEST PUSH1 0x40 MLOAD PUSH3 0xFFFFFF SWAP1 SWAP2 AND DUP2 MSTORE PUSH1 0x20 ADD JUMPDEST PUSH1 0x40 MLOAD DUP1 SWAP2 SUB SWAP1 RETURN JUMPDEST CALLVALUE DUP1 ISZERO PUSH3 0x13E JUMPI PUSH1 0x0 DUP1 REVERT JUMPDEST POP PUSH3 0x156 PUSH3 0x150 CALLDATASIZE PUSH1 0x4 PUSH3 0x2031 JUMP JUMPDEST PUSH3 0x32B JUMP JUMPDEST PUSH1 0x40 MLOAD PUSH3 0x128 SWAP13 SWAP12 SWAP11 SWAP10 SWAP9 SWAP8 SWAP7 SWAP6 SWAP5 SWAP4 SWAP3 SWAP2 SWAP1 PUSH3 0x20AC JUMP JUMPDEST CALLVALUE DUP1 ISZERO PUSH3 0x17D JUMPI PUSH1 0x0 DUP1 REVERT JUMPDEST POP PUSH3 0x18E PUSH8 0xDE0B6B3A7640000 DUP2 JUMP JUMPDEST PUSH1 0x40 MLOAD SWAP1 DUP2 MSTORE PUSH1 0x20 ADD PUSH3 0x128 JUMP JUMPDEST CALLVALUE DUP1 ISZERO PUSH3 0x1AA JUMPI PUSH1 0x0 DUP1 REVERT JUMPDEST POP PUSH3 0x18E PUSH3 0x811 JUMP JUMPDEST PUSH3 0x1CC PUSH3 0x1C6 CALLDATASIZE PUSH1 0x4 PUSH3 0x224C JUMP JUMPDEST PUSH3 0x82B JUMP JUMPDEST PUSH1 0x40 MLOAD PUSH1 0x1 PUSH1 0x1 PUSH1 0xA0 SHL SUB SWAP1 SWAP2 AND DUP2 MSTORE PUSH1 0x20 ADD PUSH3 0x128 JUMP JUMPDEST CALLVALUE DUP1 ISZERO PUSH3 0x1F2 JUMPI PUSH1 0x0 DUP1 REVERT JUMPDEST POP PUSH3 0x1FD PUSH3 0xABB JUMP JUMPDEST PUSH1 0x40 MLOAD PUSH3 0x128 SWAP2 SWAP1 PUSH3 0x24D5 JUMP JUMPDEST CALLVALUE DUP1 ISZERO PUSH3 0x219 JUMPI PUSH1 0x0 DUP1 REVERT JUMPDEST POP PUSH3 0x231 PUSH3 0x22B CALLDATASIZE PUSH1 0x4 PUSH3 0x2031 JUMP JUMPDEST PUSH3 0x10AB JUMP JUMPDEST PUSH1 0x40 MLOAD PUSH3 0x128 SWAP2 SWAP1 PUSH3 0x253D JUMP JUMPDEST PUSH3 0x18E PUSH3 0x251 CALLDATASIZE PUSH1 0x4 PUSH3 0x2552 JUMP JUMPDEST PUSH3 0x1666 JUMP JUMPDEST CALLVALUE DUP1 ISZERO PUSH3 0x264 JUMPI PUSH1 0x0 DUP1 REVERT JUMPDEST POP PUSH3 0x18E PUSH6 0x1B48EB57E000 DUP2 JUMP JUMPDEST CALLVALUE DUP1 ISZERO PUSH3 0x280 JUMPI PUSH1 0x0 DUP1 REVERT JUMPDEST POP PUSH3 0x18E PUSH6 0x5AF3107A4000 DUP2 JUMP JUMPDEST CALLVALUE DUP1 ISZERO PUSH3 0x29C JUMPI PUSH1 0x0 DUP1 REVERT JUMPDEST POP PUSH3 0x18E PUSH3 0x19F9 JUMP JUMPDEST CALLVALUE DUP1 ISZERO PUSH3 0x2B4 JUMPI PUSH1 0x0 DUP1 REVERT JUMPDEST POP PUSH3 0x18E PUSH7 0x11C37937E08000 DUP2 JUMP JUMPDEST CALLVALUE DUP1 ISZERO PUSH3 0x2D1 JUMPI PUSH1 0x0 DUP1 REVERT JUMPDEST POP PUSH3 0x18E PUSH3 0x2E3 CALLDATASIZE PUSH1 0x4 PUSH3 0x2581 JUMP JUMPDEST PUSH3 0x1A1E JUMP JUMPDEST CALLVALUE DUP1 ISZERO PUSH3 0x2F6 JUMPI PUSH1 0x0 DUP1 REVERT JUMPDEST POP PUSH3 0x18E PUSH7 0x556F963B97FE00 DUP2 JUMP JUMPDEST CALLVALUE DUP1 ISZERO PUSH3 0x313 JUMPI PUSH1 0x0 DUP1 REVERT JUMPDEST POP PUSH3 0x1CC PUSH3 0x325 CALLDATASIZE PUSH1 0x4 PUSH3 0x25A4 JUMP JUMPDEST PUSH3 0x1AFC JUMP JUMPDEST PUSH1 0x1 PUSH1 0x20 MSTORE PUSH1 0x0 SWAP1 DUP2 MSTORE PUSH1 0x40 SWAP1 KECCAK256 DUP1 SLOAD DUP2 SWAP1 PUSH3 0x348 SWAP1 PUSH3 0x25BE JUMP JUMPDEST DUP1 PUSH1 0x1F ADD PUSH1 0x20 DUP1 SWAP2 DIV MUL PUSH1 0x20 ADD PUSH1 0x40 MLOAD SWAP1 DUP2 ADD PUSH1 0x40 MSTORE DUP1 SWAP3 SWAP2 SWAP1 DUP2 DUP2 MSTORE PUSH1 0x20 ADD DUP3 DUP1 SLOAD PUSH3 0x376 SWAP1 PUSH3 0x25BE JUMP JUMPDEST DUP1 ISZERO PUSH3 0x3C7 JUMPI DUP1 PUSH1 0x1F LT PUSH3 0x39B JUMPI PUSH2 0x100 DUP1 DUP4 SLOAD DIV MUL DUP4 MSTORE SWAP2 PUSH1 0x20 ADD SWAP2 PUSH3 0x3C7 JUMP JUMPDEST DUP3 ADD SWAP2 SWAP1 PUSH1 0x0 MSTORE PUSH1 0x20 PUSH1 0x0 KECCAK256 SWAP1 JUMPDEST DUP2 SLOAD DUP2 MSTORE SWAP1 PUSH1 0x1 ADD SWAP1 PUSH1 0x20 ADD DUP1 DUP4 GT PUSH3 0x3A9 JUMPI DUP3 SWAP1 SUB PUSH1 0x1F AND DUP3 ADD SWAP2 JUMPDEST POP POP POP POP POP SWAP1 DUP1 PUSH1 0x1 ADD DUP1 SLOAD PUSH3 0x3DE SWAP1 PUSH3 0x25BE JUMP JUMPDEST DUP1 PUSH1 0x1F ADD PUSH1 0x20 DUP1 SWAP2 DIV MUL PUSH1 0x20 ADD PUSH1 0x40 MLOAD SWAP1 DUP2 ADD PUSH1 0x40 MSTORE DUP1 SWAP3 SWAP2 SWAP1 DUP2 DUP2 MSTORE PUSH1 0x20 ADD DUP3 DUP1 SLOAD PUSH3 0x40C SWAP1 PUSH3 0x25BE JUMP JUMPDEST DUP1 ISZERO PUSH3 0x45D JUMPI DUP1 PUSH1 0x1F LT PUSH3 0x431 JUMPI PUSH2 0x100 DUP1 DUP4 SLOAD DIV MUL DUP4 MSTORE SWAP2 PUSH1 0x20 ADD SWAP2 PUSH3 0x45D JUMP JUMPDEST DUP3 ADD SWAP2 SWAP1 PUSH1 0x0 MSTORE PUSH1 0x20 PUSH1 0x0 KECCAK256 SWAP1 JUMPDEST DUP2 SLOAD DUP2 MSTORE SWAP1 PUSH1 0x1 ADD SWAP1 PUSH1 0x20 ADD DUP1 DUP4 GT PUSH3 0x43F JUMPI DUP3 SWAP1 SUB PUSH1 0x1F AND DUP3 ADD SWAP2 JUMPDEST POP POP POP POP POP SWAP1 DUP1 PUSH1 0x2 ADD DUP1 SLOAD PUSH3 0x474 SWAP1 PUSH3 0x25BE JUMP JUMPDEST DUP1 PUSH1 0x1F ADD PUSH1 0x20 DUP1 SWAP2 DIV MUL PUSH1 0x20 ADD PUSH1 0x40 MLOAD SWAP1 DUP2 ADD PUSH1 0x40 MSTORE DUP1 SWAP3 SWAP2 SWAP1 DUP2 DUP2 MSTORE PUSH1 0x20 ADD DUP3 DUP1 SLOAD PUSH3 0x4A2 SWAP1 PUSH3 0x25BE JUMP JUMPDEST DUP1 ISZERO PUSH3 0x4F3 JUMPI DUP1 PUSH1 0x1F LT PUSH3 0x4C7 JUMPI PUSH2 0x100 DUP1 DUP4 SLOAD DIV MUL DUP4 MSTORE SWAP2 PUSH1 0x20 ADD SWAP2 PUSH3 0x4F3 JUMP JUMPDEST DUP3 ADD SWAP2 SWAP1 PUSH1 0x0 MSTORE PUSH1 0x20 PUSH1 0x0 KECCAK256 SWAP1 JUMPDEST DUP2 SLOAD DUP2 MSTORE SWAP1 PUSH1 0x1 ADD SWAP1 PUSH1 0x20 ADD DUP1 DUP4 GT PUSH3 0x4D5 JUMPI DUP3 SWAP1 SUB PUSH1 0x1F AND DUP3 ADD SWAP2 JUMPDEST POP POP POP POP POP SWAP1 DUP1 PUSH1 0x3 ADD DUP1 SLOAD PUSH3 0x50A SWAP1 PUSH3 0x25BE JUMP JUMPDEST DUP1 PUSH1 0x1F ADD PUSH1 0x20 DUP1 SWAP2 DIV MUL PUSH1 0x20 ADD PUSH1 0x40 MLOAD SWAP1 DUP2 ADD PUSH1 0x40 MSTORE DUP1 SWAP3 SWAP2 SWAP1 DUP2 DUP2 MSTORE PUSH1 0x20 ADD DUP3 DUP1 SLOAD PUSH3 0x538 SWAP1 PUSH3 0x25BE JUMP JUMPDEST DUP1 ISZERO PUSH3 0x589 JUMPI DUP1 PUSH1 0x1F LT PUSH3 0x55D JUMPI PUSH2 0x100 DUP1 DUP4 SLOAD DIV MUL DUP4 MSTORE SWAP2 PUSH1 0x20 ADD SWAP2 PUSH3 0x589 JUMP JUMPDEST DUP3 ADD SWAP2 SWAP1 PUSH1 0x0 MSTORE PUSH1 0x20 PUSH1 0x0 KECCAK256 SWAP1 JUMPDEST DUP2 SLOAD DUP2 MSTORE SWAP1 PUSH1 0x1 ADD SWAP1 PUSH1 0x20 ADD DUP1 DUP4 GT PUSH3 0x56B JUMPI DUP3 SWAP1 SUB PUSH1 0x1F AND DUP3 ADD SWAP2 JUMPDEST POP POP POP POP POP SWAP1 DUP1 PUSH1 0x4 ADD DUP1 SLOAD PUSH3 0x5A0 SWAP1 PUSH3 0x25BE JUMP JUMPDEST DUP1 PUSH1 0x1F ADD PUSH1 0x20 DUP1 SWAP2 DIV MUL PUSH1 0x20 ADD PUSH1 0x40 MLOAD SWAP1 DUP2 ADD PUSH1 0x40 MSTORE DUP1 SWAP3 SWAP2 SWAP1 DUP2 DUP2 MSTORE PUSH1 0x20 ADD DUP3 DUP1 SLOAD PUSH3 0x5CE SWAP1 PUSH3 0x25BE JUMP JUMPDEST DUP1 ISZERO PUSH3 0x61F JUMPI DUP1 PUSH1 0x1F LT PUSH3 0x5F3 JUMPI PUSH2 0x100 DUP1 DUP4 SLOAD DIV MUL DUP4 MSTORE SWAP2 PUSH1 0x20 ADD SWAP2 PUSH3 0x61F JUMP JUMPDEST DUP3 ADD SWAP2 SWAP1 PUSH1 0x0 MSTORE PUSH1 0x20 PUSH1 0x0 KECCAK256 SWAP1 JUMPDEST DUP2 SLOAD DUP2 MSTORE SWAP1 PUSH1 0x1 ADD SWAP1 PUSH1 0x20 ADD DUP1 DUP4 GT PUSH3 0x601 JUMPI DUP3 SWAP1 SUB PUSH1 0x1F AND DUP3 ADD SWAP2 JUMPDEST POP POP POP POP POP SWAP1 DUP1 PUSH1 0x5 ADD DUP1 SLOAD PUSH3 0x636 SWAP1 PUSH3 0x25BE JUMP JUMPDEST DUP1 PUSH1 0x1F ADD PUSH1 0x20 DUP1 SWAP2 DIV MUL PUSH1 0x20 ADD PUSH1 0x40 MLOAD SWAP1 DUP2 ADD PUSH1 0x40 MSTORE DUP1 SWAP3 SWAP2 SWAP1 DUP2 DUP2 MSTORE PUSH1 0x20 ADD DUP3 DUP1 SLOAD PUSH3 0x664 SWAP1 PUSH3 0x25BE JUMP JUMPDEST DUP1 ISZERO PUSH3 0x6B5 JUMPI DUP1 PUSH1 0x1F LT PUSH3 0x689 JUMPI PUSH2 0x100 DUP1 DUP4 SLOAD DIV MUL DUP4 MSTORE SWAP2 PUSH1 0x20 ADD SWAP2 PUSH3 0x6B5 JUMP JUMPDEST DUP3 ADD SWAP2 SWAP1 PUSH1 0x0 MSTORE PUSH1 0x20 PUSH1 0x0 KECCAK256 SWAP1 JUMPDEST DUP2 SLOAD DUP2 MSTORE SWAP1 PUSH1 0x1 ADD SWAP1 PUSH1 0x20 ADD DUP1 DUP4 GT PUSH3 0x697 JUMPI DUP3 SWAP1 SUB PUSH1 0x1F AND DUP3 ADD SWAP2 JUMPDEST POP POP POP POP POP SWAP1 DUP1 PUSH1 0x6 ADD DUP1 SLOAD PUSH3 0x6CC SWAP1 PUSH3 0x25BE JUMP JUMPDEST DUP1 PUSH1 0x1F ADD PUSH1 0x20 DUP1 SWAP2 DIV MUL PUSH1 0x20 ADD PUSH1 0x40 MLOAD SWAP1 DUP2 ADD PUSH1 0x40 MSTORE DUP1 SWAP3 SWAP2 SWAP1 DUP2 DUP2 MSTORE PUSH1 0x20 ADD DUP3 DUP1 SLOAD PUSH3 0x6FA SWAP1 PUSH3 0x25BE JUMP JUMPDEST DUP1 ISZERO PUSH3 0x74B JUMPI DUP1 PUSH1 0x1F LT PUSH3 0x71F JUMPI PUSH2 0x100 DUP1 DUP4 SLOAD DIV MUL DUP4 MSTORE SWAP2 PUSH1 0x20 ADD SWAP2 PUSH3 0x74B JUMP JUMPDEST DUP3 ADD SWAP2 SWAP1 PUSH1 0x0 MSTORE PUSH1 0x20 PUSH1 0x0 KECCAK256 SWAP1 JUMPDEST DUP2 SLOAD DUP2 MSTORE SWAP1 PUSH1 0x1 ADD SWAP1 PUSH1 0x20 ADD DUP1 DUP4 GT PUSH3 0x72D JUMPI DUP3 SWAP1 SUB PUSH1 0x1F AND DUP3 ADD SWAP2 JUMPDEST POP POP POP POP POP SWAP1 DUP1 PUSH1 0x7 ADD DUP1 SLOAD PUSH3 0x762 SWAP1 PUSH3 0x25BE JUMP JUMPDEST DUP1 PUSH1 0x1F ADD PUSH1 0x20 DUP1 SWAP2 DIV MUL PUSH1 0x20 ADD PUSH1 0x40 MLOAD SWAP1 DUP2 ADD PUSH1 0x40 MSTORE DUP1 SWAP3 SWAP2 SWAP1 DUP2 DUP2 MSTORE PUSH1 0x20 ADD DUP3 DUP1 SLOAD PUSH3 0x790 SWAP1 PUSH3 0x25BE JUMP JUMPDEST DUP1 ISZERO PUSH3 0x7E1 JUMPI DUP1 PUSH1 0x1F LT PUSH3 0x7B5 JUMPI PUSH2 0x100 DUP1 DUP4 SLOAD DIV MUL DUP4 MSTORE SWAP2 PUSH1 0x20 ADD SWAP2 PUSH3 0x7E1 JUMP JUMPDEST DUP3 ADD SWAP2 SWAP1 PUSH1 0x0 MSTORE PUSH1 0x20 PUSH1 0x0 KECCAK256 SWAP1 JUMPDEST DUP2 SLOAD DUP2 MSTORE SWAP1 PUSH1 0x1 ADD SWAP1 PUSH1 0x20 ADD DUP1 DUP4 GT PUSH3 0x7C3 JUMPI DUP3 SWAP1 SUB PUSH1 0x1F AND DUP3 ADD SWAP2 JUMPDEST POP POP POP PUSH1 0x8 DUP5 ADD SLOAD PUSH1 0x9 DUP6 ADD SLOAD PUSH1 0xA DUP7 ADD SLOAD PUSH1 0xB SWAP1 SWAP7 ADD SLOAD SWAP5 SWAP6 SWAP2 SWAP5 PUSH1 0x1 PUSH1 0x1 PUSH1 0xA0 SHL SUB SWAP2 DUP3 AND SWAP5 POP SWAP2 AND SWAP2 POP DUP13 JUMP JUMPDEST PUSH3 0x828 PUSH8 0xDE0B6B3A7640000 PUSH3 0xF4240 PUSH3 0x260A JUMP JUMPDEST DUP2 JUMP JUMPDEST PUSH1 0x0 PUSH6 0x5AF3107A4000 CALLVALUE LT ISZERO PUSH3 0x889 JUMPI PUSH1 0x40 MLOAD PUSH3 0x461BCD PUSH1 0xE5 SHL DUP2 MSTORE PUSH1 0x20 PUSH1 0x4 DUP3 ADD MSTORE PUSH1 0x19 PUSH1 0x24 DUP3 ADD MSTORE PUSH32 0x496E73756666696369656E74206372656174696F6E2066656500000000000000 PUSH1 0x44 DUP3 ADD MSTORE PUSH1 0x64 ADD JUMPDEST PUSH1 0x40 MLOAD DUP1 SWAP2 SUB SWAP1 REVERT JUMPDEST PUSH1 0x0 DUP10 DUP10 PUSH1 0x5 PUSH3 0x8A6 PUSH8 0xDE0B6B3A7640000 PUSH3 0xF4240 PUSH3 0x260A JUMP JUMPDEST PUSH3 0x8B2 SWAP2 SWAP1 PUSH3 0x2624 JUMP JUMPDEST PUSH1 0x40 MLOAD PUSH3 0x8C0 SWAP1 PUSH3 0x1F97 JUMP JUMPDEST PUSH3 0x8CE SWAP4 SWAP3 SWAP2 SWAP1 PUSH3 0x2647 JUMP JUMPDEST PUSH1 0x40 MLOAD DUP1 SWAP2 SUB SWAP1 PUSH1 0x0 CREATE DUP1 ISZERO DUP1 ISZERO PUSH3 0x8EB JUMPI RETURNDATASIZE PUSH1 0x0 DUP1 RETURNDATACOPY RETURNDATASIZE PUSH1 0x0 REVERT JUMPDEST POP PUSH1 0x40 DUP1 MLOAD PUSH2 0x180 DUP2 ADD DUP3 MSTORE DUP13 DUP2 MSTORE PUSH1 0x20 DUP1 DUP3 ADD DUP14 SWAP1 MSTORE DUP2 DUP4 ADD DUP12 SWAP1 MSTORE PUSH1 0x60 DUP3 ADD DUP13 SWAP1 MSTORE PUSH1 0x80 DUP3 ADD DUP9 SWAP1 MSTORE PUSH1 0xA0 DUP3 ADD DUP11 SWAP1 MSTORE PUSH1 0xC0 DUP3 ADD DUP10 SWAP1 MSTORE PUSH1 0xE0 DUP3 ADD DUP8 SWAP1 MSTORE PUSH1 0x0 PUSH2 0x100 DUP4 ADD DUP2 SWAP1 MSTORE PUSH1 0x1 PUSH1 0x1 PUSH1 0xA0 SHL SUB DUP6 AND PUSH2 0x120 DUP5 ADD DUP2 SWAP1 MSTORE CALLER PUSH2 0x140 DUP6 ADD MSTORE PUSH2 0x160 DUP5 ADD DUP3 SWAP1 MSTORE DUP2 SLOAD PUSH1 0x1 DUP2 DUP2 ADD DUP5 SSTORE PUSH32 0x290DECD9548B62A8D60345A988386FC84BA6BC95484008F6362F93160EF3E563 SWAP1 SWAP2 ADD DUP1 SLOAD PUSH1 0x1 PUSH1 0x1 PUSH1 0xA0 SHL SUB NOT AND DUP4 OR SWAP1 SSTORE SWAP1 DUP3 MSTORE SWAP1 SWAP2 MSTORE SWAP2 SWAP1 SWAP2 KECCAK256 DUP2 MLOAD SWAP3 SWAP4 POP DUP4 SWAP3 DUP3 SWAP2 SWAP1 DUP2 SWAP1 PUSH3 0x9B5 SWAP1 DUP3 PUSH3 0x26D6 JUMP JUMPDEST POP PUSH1 0x20 DUP3 ADD MLOAD PUSH1 0x1 DUP3 ADD SWAP1 PUSH3 0x9CC SWAP1 DUP3 PUSH3 0x26D6 JUMP JUMPDEST POP PUSH1 0x40 DUP3 ADD MLOAD PUSH1 0x2 DUP3 ADD SWAP1 PUSH3 0x9E3 SWAP1 DUP3 PUSH3 0x26D6 JUMP JUMPDEST POP PUSH1 0x60 DUP3 ADD MLOAD PUSH1 0x3 DUP3 ADD SWAP1 PUSH3 0x9FA SWAP1 DUP3 PUSH3 0x26D6 JUMP JUMPDEST POP PUSH1 0x80 DUP3 ADD MLOAD PUSH1 0x4 DUP3 ADD SWAP1 PUSH3 0xA11 SWAP1 DUP3 PUSH3 0x26D6 JUMP JUMPDEST POP PUSH1 0xA0 DUP3 ADD MLOAD PUSH1 0x5 DUP3 ADD SWAP1 PUSH3 0xA28 SWAP1 DUP3 PUSH3 0x26D6 JUMP JUMPDEST POP PUSH1 0xC0 DUP3 ADD MLOAD PUSH1 0x6 DUP3 ADD SWAP1 PUSH3 0xA3F SWAP1 DUP3 PUSH3 0x26D6 JUMP JUMPDEST POP PUSH1 0xE0 DUP3 ADD MLOAD PUSH1 0x7 DUP3 ADD SWAP1 PUSH3 0xA56 SWAP1 DUP3 PUSH3 0x26D6 JUMP JUMPDEST POP PUSH2 0x100 DUP3 ADD MLOAD PUSH1 0x8 DUP3 ADD SSTORE PUSH2 0x120 DUP3 ADD MLOAD PUSH1 0x9 DUP3 ADD DUP1 SLOAD PUSH1 0x1 PUSH1 0x1 PUSH1 0xA0 SHL SUB SWAP3 DUP4 AND PUSH1 0x1 PUSH1 0x1 PUSH1 0xA0 SHL SUB NOT SWAP2 DUP3 AND OR SWAP1 SWAP2 SSTORE PUSH2 0x140 DUP5 ADD MLOAD PUSH1 0xA DUP5 ADD DUP1 SLOAD SWAP2 SWAP1 SWAP4 AND SWAP2 AND OR SWAP1 SSTORE PUSH2 0x160 SWAP1 SWAP2 ADD MLOAD PUSH1 0xB SWAP1 SWAP2 ADD SSTORE POP SWAP2 POP POP SWAP9 SWAP8 POP POP POP POP POP POP POP POP JUMP JUMPDEST PUSH1 0x0 DUP1 SLOAD PUSH1 0x60 SWAP2 SWAP1 PUSH8 0xFFFFFFFFFFFFFFFF DUP2 GT ISZERO PUSH3 0xADE JUMPI PUSH3 0xADE PUSH3 0x21A1 JUMP JUMPDEST PUSH1 0x40 MLOAD SWAP1 DUP1 DUP3 MSTORE DUP1 PUSH1 0x20 MUL PUSH1 0x20 ADD DUP3 ADD PUSH1 0x40 MSTORE DUP1 ISZERO PUSH3 0xB1B JUMPI DUP2 PUSH1 0x20 ADD JUMPDEST PUSH3 0xB07 PUSH3 0x1FA5 JUMP JUMPDEST DUP2 MSTORE PUSH1 0x20 ADD SWAP1 PUSH1 0x1 SWAP1 SUB SWAP1 DUP2 PUSH3 0xAFD JUMPI SWAP1 POP JUMPDEST POP SWAP1 POP PUSH1 0x0 JUMPDEST PUSH1 0x0 SLOAD DUP2 LT ISZERO PUSH3 0x10A5 JUMPI PUSH1 0x1 PUSH1 0x0 DUP1 DUP4 DUP2 SLOAD DUP2 LT PUSH3 0xB45 JUMPI PUSH3 0xB45 PUSH3 0x27A3 JUMP JUMPDEST PUSH1 0x0 SWAP2 DUP3 MSTORE PUSH1 0x20 DUP1 DUP4 KECCAK256 SWAP1 SWAP2 ADD SLOAD PUSH1 0x1 PUSH1 0x1 PUSH1 0xA0 SHL SUB AND DUP4 MSTORE DUP3 ADD SWAP3 SWAP1 SWAP3 MSTORE PUSH1 0x40 SWAP1 DUP2 ADD SWAP1 SWAP2 KECCAK256 DUP2 MLOAD PUSH2 0x180 DUP2 ADD SWAP1 SWAP3 MSTORE DUP1 SLOAD DUP3 SWAP1 DUP3 SWAP1 PUSH3 0xB87 SWAP1 PUSH3 0x25BE JUMP JUMPDEST DUP1 PUSH1 0x1F ADD PUSH1 0x20 DUP1 SWAP2 DIV MUL PUSH1 0x20 ADD PUSH1 0x40 MLOAD SWAP1 DUP2 ADD PUSH1 0x40 MSTORE DUP1 SWAP3 SWAP2 SWAP1 DUP2 DUP2 MSTORE PUSH1 0x20 ADD DUP3 DUP1 SLOAD PUSH3 0xBB5 SWAP1 PUSH3 0x25BE JUMP JUMPDEST DUP1 ISZERO PUSH3 0xC06 JUMPI DUP1 PUSH1 0x1F LT PUSH3 0xBDA JUMPI PUSH2 0x100 DUP1 DUP4 SLOAD DIV MUL DUP4 MSTORE SWAP2 PUSH1 0x20 ADD SWAP2 PUSH3 0xC06 JUMP JUMPDEST DUP3 ADD SWAP2 SWAP1 PUSH1 0x0 MSTORE PUSH1 0x20 PUSH1 0x0 KECCAK256 SWAP1 JUMPDEST DUP2 SLOAD DUP2 MSTORE SWAP1 PUSH1 0x1 ADD SWAP1 PUSH1 0x20 ADD DUP1 DUP4 GT PUSH3 0xBE8 JUMPI DUP3 SWAP1 SUB PUSH1 0x1F AND DUP3 ADD SWAP2 JUMPDEST POP POP POP POP POP DUP2 MSTORE PUSH1 0x20 ADD PUSH1 0x1 DUP3 ADD DUP1 SLOAD PUSH3 0xC21 SWAP1 PUSH3 0x25BE JUMP JUMPDEST DUP1 PUSH1 0x1F ADD PUSH1 0x20 DUP1 SWAP2 DIV MUL PUSH1 0x20 ADD PUSH1 0x40 MLOAD SWAP1 DUP2 ADD PUSH1 0x40 MSTORE DUP1 SWAP3 SWAP2 SWAP1 DUP2 DUP2 MSTORE PUSH1 0x20 ADD DUP3 DUP1 SLOAD PUSH3 0xC4F SWAP1 PUSH3 0x25BE JUMP JUMPDEST DUP1 ISZERO PUSH3 0xCA0 JUMPI DUP1 PUSH1 0x1F LT PUSH3 0xC74 JUMPI PUSH2 0x100 DUP1 DUP4 SLOAD DIV MUL DUP4 MSTORE SWAP2 PUSH1 0x20 ADD SWAP2 PUSH3 0xCA0 JUMP JUMPDEST DUP3 ADD SWAP2 SWAP1 PUSH1 0x0 MSTORE PUSH1 0x20 PUSH1 0x0 KECCAK256 SWAP1 JUMPDEST DUP2 SLOAD DUP2 MSTORE SWAP1 PUSH1 0x1 ADD SWAP1 PUSH1 0x20 ADD DUP1 DUP4 GT PUSH3 0xC82 JUMPI DUP3 SWAP1 SUB PUSH1 0x1F AND DUP3 ADD SWAP2 JUMPDEST POP POP POP POP POP DUP2 MSTORE PUSH1 0x20 ADD PUSH1 0x2 DUP3 ADD DUP1 SLOAD PUSH3 0xCBB SWAP1 PUSH3 0x25BE JUMP JUMPDEST DUP1 PUSH1 0x1F ADD PUSH1 0x20 DUP1 SWAP2 DIV MUL PUSH1 0x20 ADD PUSH1 0x40 MLOAD SWAP1 DUP2 ADD PUSH1 0x40 MSTORE DUP1 SWAP3 SWAP2 SWAP1 DUP2 DUP2 MSTORE PUSH1 0x20 ADD DUP3 DUP1 SLOAD PUSH3 0xCE9 SWAP1 PUSH3 0x25BE JUMP JUMPDEST DUP1 ISZERO PUSH3 0xD3A JUMPI DUP1 PUSH1 0x1F LT PUSH3 0xD0E JUMPI PUSH2 0x100 DUP1 DUP4 SLOAD DIV MUL DUP4 MSTORE SWAP2 PUSH1 0x20 ADD SWAP2 PUSH3 0xD3A JUMP JUMPDEST DUP3 ADD SWAP2 SWAP1 PUSH1 0x0 MSTORE PUSH1 0x20 PUSH1 0x0 KECCAK256 SWAP1 JUMPDEST DUP2 SLOAD DUP2 MSTORE SWAP1 PUSH1 0x1 ADD SWAP1 PUSH1 0x20 ADD DUP1 DUP4 GT PUSH3 0xD1C JUMPI DUP3 SWAP1 SUB PUSH1 0x1F AND DUP3 ADD SWAP2 JUMPDEST POP POP POP POP POP DUP2 MSTORE PUSH1 0x20 ADD PUSH1 0x3 DUP3 ADD DUP1 SLOAD PUSH3 0xD55 SWAP1 PUSH3 0x25BE JUMP JUMPDEST DUP1 PUSH1 0x1F ADD PUSH1 0x20 DUP1 SWAP2 DIV MUL PUSH1 0x20 ADD PUSH1 0x40 MLOAD SWAP1 DUP2 ADD PUSH1 0x40 MSTORE DUP1 SWAP3 SWAP2 SWAP1 DUP2 DUP2 MSTORE PUSH1 0x20 ADD DUP3 DUP1 SLOAD PUSH3 0xD83 SWAP1 PUSH3 0x25BE JUMP JUMPDEST DUP1 ISZERO PUSH3 0xDD4 JUMPI DUP1 PUSH1 0x1F LT PUSH3 0xDA8 JUMPI PUSH2 0x100 DUP1 DUP4 SLOAD DIV MUL DUP4 MSTORE SWAP2 PUSH1 0x20 ADD SWAP2 PUSH3 0xDD4 JUMP JUMPDEST DUP3 ADD SWAP2 SWAP1 PUSH1 0x0 MSTORE PUSH1 0x20 PUSH1 0x0 KECCAK256 SWAP1 JUMPDEST DUP2 SLOAD DUP2 MSTORE SWAP1 PUSH1 0x1 ADD SWAP1 PUSH1 0x20 ADD DUP1 DUP4 GT PUSH3 0xDB6 JUMPI DUP3 SWAP1 SUB PUSH1 0x1F AND DUP3 ADD SWAP2 JUMPDEST POP POP POP POP POP DUP2 MSTORE PUSH1 0x20 ADD PUSH1 0x4 DUP3 ADD DUP1 SLOAD PUSH3 0xDEF SWAP1 PUSH3 0x25BE JUMP JUMPDEST DUP1 PUSH1 0x1F ADD PUSH1 0x20 DUP1 SWAP2 DIV MUL PUSH1 0x20 ADD PUSH1 0x40 MLOAD SWAP1 DUP2 ADD PUSH1 0x40 MSTORE DUP1 SWAP3 SWAP2 SWAP1 DUP2 DUP2 MSTORE PUSH1 0x20 ADD DUP3 DUP1 SLOAD PUSH3 0xE1D SWAP1 PUSH3 0x25BE JUMP JUMPDEST DUP1 ISZERO PUSH3 0xE6E JUMPI DUP1 PUSH1 0x1F LT PUSH3 0xE42 JUMPI PUSH2 0x100 DUP1 DUP4 SLOAD DIV MUL DUP4 MSTORE SWAP2 PUSH1 0x20 ADD SWAP2 PUSH3 0xE6E JUMP JUMPDEST DUP3 ADD SWAP2 SWAP1 PUSH1 0x0 MSTORE PUSH1 0x20 PUSH1 0x0 KECCAK256 SWAP1 JUMPDEST DUP2 SLOAD DUP2 MSTORE SWAP1 PUSH1 0x1 ADD SWAP1 PUSH1 0x20 ADD DUP1 DUP4 GT PUSH3 0xE50 JUMPI DUP3 SWAP1 SUB PUSH1 0x1F AND DUP3 ADD SWAP2 JUMPDEST POP POP POP POP POP DUP2 MSTORE PUSH1 0x20 ADD PUSH1 0x5 DUP3 ADD DUP1 SLOAD PUSH3 0xE89 SWAP1 PUSH3 0x25BE JUMP JUMPDEST DUP1 PUSH1 0x1F ADD PUSH1 0x20 DUP1 SWAP2 DIV MUL PUSH1 0x20 ADD PUSH1 0x40 MLOAD SWAP1 DUP2 ADD PUSH1 0x40 MSTORE DUP1 SWAP3 SWAP2 SWAP1 DUP2 DUP2 MSTORE PUSH1 0x20 ADD DUP3 DUP1 SLOAD PUSH3 0xEB7 SWAP1 PUSH3 0x25BE JUMP JUMPDEST DUP1 ISZERO PUSH3 0xF08 JUMPI DUP1 PUSH1 0x1F LT PUSH3 0xEDC JUMPI PUSH2 0x100 DUP1 DUP4 SLOAD DIV MUL DUP4 MSTORE SWAP2 PUSH1 0x20 ADD SWAP2 PUSH3 0xF08 JUMP JUMPDEST DUP3 ADD SWAP2 SWAP1 PUSH1 0x0 MSTORE PUSH1 0x20 PUSH1 0x0 KECCAK256 SWAP1 JUMPDEST DUP2 SLOAD DUP2 MSTORE SWAP1 PUSH1 0x1 ADD SWAP1 PUSH1 0x20 ADD DUP1 DUP4 GT PUSH3 0xEEA JUMPI DUP3 SWAP1 SUB PUSH1 0x1F AND DUP3 ADD SWAP2 JUMPDEST POP POP POP POP POP DUP2 MSTORE PUSH1 0x20 ADD PUSH1 0x6 DUP3 ADD DUP1 SLOAD PUSH3 0xF23 SWAP1 PUSH3 0x25BE JUMP JUMPDEST DUP1 PUSH1 0x1F ADD PUSH1 0x20 DUP1 SWAP2 DIV MUL PUSH1 0x20 ADD PUSH1 0x40 MLOAD SWAP1 DUP2 ADD PUSH1 0x40 MSTORE DUP1 SWAP3 SWAP2 SWAP1 DUP2 DUP2 MSTORE PUSH1 0x20 ADD DUP3 DUP1 SLOAD PUSH3 0xF51 SWAP1 PUSH3 0x25BE JUMP JUMPDEST DUP1 ISZERO PUSH3 0xFA2 JUMPI DUP1 PUSH1 0x1F LT PUSH3 0xF76 JUMPI PUSH2 0x100 DUP1 DUP4 SLOAD DIV MUL DUP4 MSTORE SWAP2 PUSH1 0x20 ADD SWAP2 PUSH3 0xFA2 JUMP JUMPDEST DUP3 ADD SWAP2 SWAP1 PUSH1 0x0 MSTORE PUSH1 0x20 PUSH1 0x0 KECCAK256 SWAP1 JUMPDEST DUP2 SLOAD DUP2 MSTORE SWAP1 PUSH1 0x1 ADD SWAP1 PUSH1 0x20 ADD DUP1 DUP4 GT PUSH3 0xF84 JUMPI DUP3 SWAP1 SUB PUSH1 0x1F AND DUP3 ADD SWAP2 JUMPDEST POP POP POP POP POP DUP2 MSTORE PUSH1 0x20 ADD PUSH1 0x7 DUP3 ADD DUP1 SLOAD PUSH3 0xFBD SWAP1 PUSH3 0x25BE JUMP JUMPDEST DUP1 PUSH1 0x1F ADD PUSH1 0x20 DUP1 SWAP2 DIV MUL PUSH1 0x20 ADD PUSH1 0x40 MLOAD SWAP1 DUP2 ADD PUSH1 0x40 MSTORE DUP1 SWAP3 SWAP2 SWAP1 DUP2 DUP2 MSTORE PUSH1 0x20 ADD DUP3 DUP1 SLOAD PUSH3 0xFEB SWAP1 PUSH3 0x25BE JUMP JUMPDEST DUP1 ISZERO PUSH3 0x103C JUMPI DUP1 PUSH1 0x1F LT PUSH3 0x1010 JUMPI PUSH2 0x100 DUP1 DUP4 SLOAD DIV MUL DUP4 MSTORE SWAP2 PUSH1 0x20 ADD SWAP2 PUSH3 0x103C JUMP JUMPDEST DUP3 ADD SWAP2 SWAP1 PUSH1 0x0 MSTORE PUSH1 0x20 PUSH1 0x0 KECCAK256 SWAP1 JUMPDEST DUP2 SLOAD DUP2 MSTORE SWAP1 PUSH1 0x1 ADD SWAP1 PUSH1 0x20 ADD DUP1 DUP4 GT PUSH3 0x101E JUMPI DUP3 SWAP1 SUB PUSH1 0x1F AND DUP3 ADD SWAP2 JUMPDEST POP POP POP SWAP2 DUP4 MSTORE POP POP PUSH1 0x8 DUP3 ADD SLOAD PUSH1 0x20 DUP3 ADD MSTORE PUSH1 0x9 DUP3 ADD SLOAD PUSH1 0x1 PUSH1 0x1 PUSH1 0xA0 SHL SUB SWAP1 DUP2 AND PUSH1 0x40 DUP4 ADD MSTORE PUSH1 0xA DUP4 ADD SLOAD AND PUSH1 0x60 DUP3 ADD MSTORE PUSH1 0xB SWAP1 SWAP2 ADD SLOAD PUSH1 0x80 SWAP1 SWAP2 ADD MSTORE DUP3 MLOAD DUP4 SWAP1 DUP4 SWAP1 DUP2 LT PUSH3 0x1091 JUMPI PUSH3 0x1091 PUSH3 0x27A3 JUMP JUMPDEST PUSH1 0x20 SWAP1 DUP2 MUL SWAP2 SWAP1 SWAP2 ADD ADD MSTORE PUSH1 0x1 ADD PUSH3 0xB21 JUMP JUMPDEST POP SWAP2 SWAP1 POP JUMP JUMPDEST PUSH3 0x10B5 PUSH3 0x1FA5 JUMP JUMPDEST PUSH1 0x1 PUSH1 0x1 PUSH1 0xA0 SHL SUB DUP3 AND PUSH1 0x0 DUP2 DUP2 MSTORE PUSH1 0x1 PUSH1 0x20 SWAP1 DUP2 MSTORE PUSH1 0x40 SWAP2 DUP3 SWAP1 KECCAK256 DUP3 MLOAD PUSH4 0x18160DDD PUSH1 0xE0 SHL DUP2 MSTORE SWAP3 MLOAD SWAP1 SWAP4 DUP7 SWAP4 SWAP1 SWAP3 PUSH4 0x18160DDD SWAP3 PUSH1 0x4 DUP1 DUP5 ADD SWAP4 DUP3 SWAP1 SUB ADD DUP2 DUP7 GAS STATICCALL ISZERO DUP1 ISZERO PUSH3 0x110B JUMPI RETURNDATASIZE PUSH1 0x0 DUP1 RETURNDATACOPY RETURNDATASIZE PUSH1 0x0 REVERT JUMPDEST POP POP POP POP PUSH1 0x40 MLOAD RETURNDATASIZE PUSH1 0x1F NOT PUSH1 0x1F DUP3 ADD AND DUP3 ADD DUP1 PUSH1 0x40 MSTORE POP DUP2 ADD SWAP1 PUSH3 0x1131 SWAP2 SWAP1 PUSH3 0x27B9 JUMP JUMPDEST PUSH1 0xB DUP4 ADD SSTORE PUSH1 0x1 PUSH1 0x1 PUSH1 0xA0 SHL SUB DUP5 AND PUSH1 0x0 SWAP1 DUP2 MSTORE PUSH1 0x1 PUSH1 0x20 MSTORE PUSH1 0x40 SWAP1 DUP2 SWAP1 KECCAK256 DUP2 MLOAD PUSH2 0x180 DUP2 ADD SWAP1 SWAP3 MSTORE DUP1 SLOAD DUP3 SWAP1 DUP3 SWAP1 PUSH3 0x116B SWAP1 PUSH3 0x25BE JUMP JUMPDEST DUP1 PUSH1 0x1F ADD PUSH1 0x20 DUP1 SWAP2 DIV MUL PUSH1 0x20 ADD PUSH1 0x40 MLOAD SWAP1 DUP2 ADD PUSH1 0x40 MSTORE DUP1 SWAP3 SWAP2 SWAP1 DUP2 DUP2 MSTORE PUSH1 0x20 ADD DUP3 DUP1 SLOAD PUSH3 0x1199 SWAP1 PUSH3 0x25BE JUMP JUMPDEST DUP1 ISZERO PUSH3 0x11EA JUMPI DUP1 PUSH1 0x1F LT PUSH3 0x11BE JUMPI PUSH2 0x100 DUP1 DUP4 SLOAD DIV MUL DUP4 MSTORE SWAP2 PUSH1 0x20 ADD SWAP2 PUSH3 0x11EA JUMP JUMPDEST DUP3 ADD SWAP2 SWAP1 PUSH1 0x0 MSTORE PUSH1 0x20 PUSH1 0x0 KECCAK256 SWAP1 JUMPDEST DUP2 SLOAD DUP2 MSTORE SWAP1 PUSH1 0x1 ADD SWAP1 PUSH1 0x20 ADD DUP1 DUP4 GT PUSH3 0x11CC JUMPI DUP3 SWAP1 SUB PUSH1 0x1F AND DUP3 ADD SWAP2 JUMPDEST POP POP POP POP POP DUP2 MSTORE PUSH1 0x20 ADD PUSH1 0x1 DUP3 ADD DUP1 SLOAD PUSH3 0x1205 SWAP1 PUSH3 0x25BE JUMP JUMPDEST DUP1 PUSH1 0x1F ADD PUSH1 0x20 DUP1 SWAP2 DIV MUL PUSH1 0x20 ADD PUSH1 0x40 MLOAD SWAP1 DUP2 ADD PUSH1 0x40 MSTORE DUP1 SWAP3 SWAP2 SWAP1 DUP2 DUP2 MSTORE PUSH1 0x20 ADD DUP3 DUP1 SLOAD PUSH3 0x1233 SWAP1 PUSH3 0x25BE JUMP JUMPDEST DUP1 ISZERO PUSH3 0x1284 JUMPI DUP1 PUSH1 0x1F LT PUSH3 0x1258 JUMPI PUSH2 0x100 DUP1 DUP4 SLOAD DIV MUL DUP4 MSTORE SWAP2 PUSH1 0x20 ADD SWAP2 PUSH3 0x1284 JUMP JUMPDEST DUP3 ADD SWAP2 SWAP1 PUSH1 0x0 MSTORE PUSH1 0x20 PUSH1 0x0 KECCAK256 SWAP1 JUMPDEST DUP2 SLOAD DUP2 MSTORE SWAP1 PUSH1 0x1 ADD SWAP1 PUSH1 0x20 ADD DUP1 DUP4 GT PUSH3 0x1266 JUMPI DUP3 SWAP1 SUB PUSH1 0x1F AND DUP3 ADD SWAP2 JUMPDEST POP POP POP POP POP DUP2 MSTORE PUSH1 0x20 ADD PUSH1 0x2 DUP3 ADD DUP1 SLOAD PUSH3 0x129F SWAP1 PUSH3 0x25BE JUMP JUMPDEST DUP1 PUSH1 0x1F ADD PUSH1 0x20 DUP1 SWAP2 DIV MUL PUSH1 0x20 ADD PUSH1 0x40 MLOAD SWAP1 DUP2 ADD PUSH1 0x40 MSTORE DUP1 SWAP3 SWAP2 SWAP1 DUP2 DUP2 MSTORE PUSH1 0x20 ADD DUP3 DUP1 SLOAD PUSH3 0x12CD SWAP1 PUSH3 0x25BE JUMP JUMPDEST DUP1 ISZERO PUSH3 0x131E JUMPI DUP1 PUSH1 0x1F LT PUSH3 0x12F2 JUMPI PUSH2 0x100 DUP1 DUP4 SLOAD DIV MUL DUP4 MSTORE SWAP2 PUSH1 0x20 ADD SWAP2 PUSH3 0x131E JUMP JUMPDEST DUP3 ADD SWAP2 SWAP1 PUSH1 0x0 MSTORE PUSH1 0x20 PUSH1 0x0 KECCAK256 SWAP1 JUMPDEST DUP2 SLOAD DUP2 MSTORE SWAP1 PUSH1 0x1 ADD SWAP1 PUSH1 0x20 ADD DUP1 DUP4 GT PUSH3 0x1300 JUMPI DUP3 SWAP1 SUB PUSH1 0x1F AND DUP3 ADD SWAP2 JUMPDEST POP POP POP POP POP DUP2 MSTORE PUSH1 0x20 ADD PUSH1 0x3 DUP3 ADD DUP1 SLOAD PUSH3 0x1339 SWAP1 PUSH3 0x25BE JUMP JUMPDEST DUP1 PUSH1 0x1F ADD PUSH1 0x20 DUP1 SWAP2 DIV MUL PUSH1 0x20 ADD PUSH1 0x40 MLOAD SWAP1 DUP2 ADD PUSH1 0x40 MSTORE DUP1 SWAP3 SWAP2 SWAP1 DUP2 DUP2 MSTORE PUSH1 0x20 ADD DUP3 DUP1 SLOAD PUSH3 0x1367 SWAP1 PUSH3 0x25BE JUMP JUMPDEST DUP1 ISZERO PUSH3 0x13B8 JUMPI DUP1 PUSH1 0x1F LT PUSH3 0x138C JUMPI PUSH2 0x100 DUP1 DUP4 SLOAD DIV MUL DUP4 MSTORE SWAP2 PUSH1 0x20 ADD SWAP2 PUSH3 0x13B8 JUMP JUMPDEST DUP3 ADD SWAP2 SWAP1 PUSH1 0x0 MSTORE PUSH1 0x20 PUSH1 0x0 KECCAK256 SWAP1 JUMPDEST DUP2 SLOAD DUP2 MSTORE SWAP1 PUSH1 0x1 ADD SWAP1 PUSH1 0x20 ADD DUP1 DUP4 GT PUSH3 0x139A JUMPI DUP3 SWAP1 SUB PUSH1 0x1F AND DUP3 ADD SWAP2 JUMPDEST POP POP POP POP POP DUP2 MSTORE PUSH1 0x20 ADD PUSH1 0x4 DUP3 ADD DUP1 SLOAD PUSH3 0x13D3 SWAP1 PUSH3 0x25BE JUMP JUMPDEST DUP1 PUSH1 0x1F ADD PUSH1 0x20 DUP1 SWAP2 DIV MUL PUSH1 0x20 ADD PUSH1 0x40 MLOAD SWAP1 DUP2 ADD PUSH1 0x40 MSTORE DUP1 SWAP3 SWAP2 SWAP1 DUP2 DUP2 MSTORE PUSH1 0x20 ADD DUP3 DUP1 SLOAD PUSH3 0x1401 SWAP1 PUSH3 0x25BE JUMP JUMPDEST DUP1 ISZERO PUSH3 0x1452 JUMPI DUP1 PUSH1 0x1F LT PUSH3 0x1426 JUMPI PUSH2 0x100 DUP1 DUP4 SLOAD DIV MUL DUP4 MSTORE SWAP2 PUSH1 0x20 ADD SWAP2 PUSH3 0x1452 JUMP JUMPDEST DUP3 ADD SWAP2 SWAP1 PUSH1 0x0 MSTORE PUSH1 0x20 PUSH1 0x0 KECCAK256 SWAP1 JUMPDEST DUP2 SLOAD DUP2 MSTORE SWAP1 PUSH1 0x1 ADD SWAP1 PUSH1 0x20 ADD DUP1 DUP4 GT PUSH3 0x1434 JUMPI DUP3 SWAP1 SUB PUSH1 0x1F AND DUP3 ADD SWAP2 JUMPDEST POP POP POP POP POP DUP2 MSTORE PUSH1 0x20 ADD PUSH1 0x5 DUP3 ADD DUP1 SLOAD PUSH3 0x146D SWAP1 PUSH3 0x25BE JUMP JUMPDEST DUP1 PUSH1 0x1F ADD PUSH1 0x20 DUP1 SWAP2 DIV MUL PUSH1 0x20 ADD PUSH1 0x40 MLOAD SWAP1 DUP2 ADD PUSH1 0x40 MSTORE DUP1 SWAP3 SWAP2 SWAP1 DUP2 DUP2 MSTORE PUSH1 0x20 ADD DUP3 DUP1 SLOAD PUSH3 0x149B SWAP1 PUSH3 0x25BE JUMP JUMPDEST DUP1 ISZERO PUSH3 0x14EC JUMPI DUP1 PUSH1 0x1F LT PUSH3 0x14C0 JUMPI PUSH2 0x100 DUP1 DUP4 SLOAD DIV MUL DUP4 MSTORE SWAP2 PUSH1 0x20 ADD SWAP2 PUSH3 0x14EC JUMP JUMPDEST DUP3 ADD SWAP2 SWAP1 PUSH1 0x0 MSTORE PUSH1 0x20 PUSH1 0x0 KECCAK256 SWAP1 JUMPDEST DUP2 SLOAD DUP2 MSTORE SWAP1 PUSH1 0x1 ADD SWAP1 PUSH1 0x20 ADD DUP1 DUP4 GT PUSH3 0x14CE JUMPI DUP3 SWAP1 SUB PUSH1 0x1F AND DUP3 ADD SWAP2 JUMPDEST POP POP POP POP POP DUP2 MSTORE PUSH1 0x20 ADD PUSH1 0x6 DUP3 ADD DUP1 SLOAD PUSH3 0x1507 SWAP1 PUSH3 0x25BE JUMP JUMPDEST DUP1 PUSH1 0x1F ADD PUSH1 0x20 DUP1 SWAP2 DIV MUL PUSH1 0x20 ADD PUSH1 0x40 MLOAD SWAP1 DUP2 ADD PUSH1 0x40 MSTORE DUP1 SWAP3 SWAP2 SWAP1 DUP2 DUP2 MSTORE PUSH1 0x20 ADD DUP3 DUP1 SLOAD PUSH3 0x1535 SWAP1 PUSH3 0x25BE JUMP JUMPDEST DUP1 ISZERO PUSH3 0x1586 JUMPI DUP1 PUSH1 0x1F LT PUSH3 0x155A JUMPI PUSH2 0x100 DUP1 DUP4 SLOAD DIV MUL DUP4 MSTORE SWAP2 PUSH1 0x20 ADD SWAP2 PUSH3 0x1586 JUMP JUMPDEST DUP3 ADD SWAP2 SWAP1 PUSH1 0x0 MSTORE PUSH1 0x20 PUSH1 0x0 KECCAK256 SWAP1 JUMPDEST DUP2 SLOAD DUP2 MSTORE SWAP1 PUSH1 0x1 ADD SWAP1 PUSH1 0x20 ADD DUP1 DUP4 GT PUSH3 0x1568 JUMPI DUP3 SWAP1 SUB PUSH1 0x1F AND DUP3 ADD SWAP2 JUMPDEST POP POP POP POP POP DUP2 MSTORE PUSH1 0x20 ADD PUSH1 0x7 DUP3 ADD DUP1 SLOAD PUSH3 0x15A1 SWAP1 PUSH3 0x25BE JUMP JUMPDEST DUP1 PUSH1 0x1F ADD PUSH1 0x20 DUP1 SWAP2 DIV MUL PUSH1 0x20 ADD PUSH1 0x40 MLOAD SWAP1 DUP2 ADD PUSH1 0x40 MSTORE DUP1 SWAP3 SWAP2 SWAP1 DUP2 DUP2 MSTORE PUSH1 0x20 ADD DUP3 DUP1 SLOAD PUSH3 0x15CF SWAP1 PUSH3 0x25BE JUMP JUMPDEST DUP1 ISZERO PUSH3 0x1620 JUMPI DUP1 PUSH1 0x1F LT PUSH3 0x15F4 JUMPI PUSH2 0x100 DUP1 DUP4 SLOAD DIV MUL DUP4 MSTORE SWAP2 PUSH1 0x20 ADD SWAP2 PUSH3 0x1620 JUMP JUMPDEST DUP3 ADD SWAP2 SWAP1 PUSH1 0x0 MSTORE PUSH1 0x20 PUSH1 0x0 KECCAK256 SWAP1 JUMPDEST DUP2 SLOAD DUP2 MSTORE SWAP1 PUSH1 0x1 ADD SWAP1 PUSH1 0x20 ADD DUP1 DUP4 GT PUSH3 0x1602 JUMPI DUP3 SWAP1 SUB PUSH1 0x1F AND DUP3 ADD SWAP2 JUMPDEST POP POP POP SWAP2 DUP4 MSTORE POP POP PUSH1 0x8 DUP3 ADD SLOAD PUSH1 0x20 DUP3 ADD MSTORE PUSH1 0x9 DUP3 ADD SLOAD PUSH1 0x1 PUSH1 0x1 PUSH1 0xA0 SHL SUB SWAP1 DUP2 AND PUSH1 0x40 DUP4 ADD MSTORE PUSH1 0xA DUP4 ADD SLOAD AND PUSH1 0x60 DUP3 ADD MSTORE PUSH1 0xB SWAP1 SWAP2 ADD SLOAD PUSH1 0x80 SWAP1 SWAP2 ADD MSTORE SWAP5 SWAP4 POP POP POP POP JUMP JUMPDEST PUSH1 0x1 PUSH1 0x1 PUSH1 0xA0 SHL SUB DUP3 DUP2 AND PUSH1 0x0 SWAP1 DUP2 MSTORE PUSH1 0x1 PUSH1 0x20 MSTORE PUSH1 0x40 DUP2 KECCAK256 PUSH1 0x9 ADD SLOAD SWAP1 SWAP2 AND PUSH3 0x16CA JUMPI PUSH1 0x40 MLOAD PUSH3 0x461BCD PUSH1 0xE5 SHL DUP2 MSTORE PUSH1 0x20 PUSH1 0x4 DUP3 ADD MSTORE PUSH1 0x13 PUSH1 0x24 DUP3 ADD MSTORE PUSH19 0x151BDAD95B881A5CC81B9BDD081B1A5CDD1959 PUSH1 0x6A SHL PUSH1 0x44 DUP3 ADD MSTORE PUSH1 0x64 ADD PUSH3 0x880 JUMP JUMPDEST PUSH1 0x1 PUSH1 0x1 PUSH1 0xA0 SHL SUB DUP4 AND PUSH1 0x0 SWAP1 DUP2 MSTORE PUSH1 0x1 PUSH1 0x20 MSTORE PUSH1 0x40 SWAP1 KECCAK256 PUSH1 0x8 DUP2 ADD SLOAD DUP5 SWAP1 PUSH7 0x556F963B97FE00 LT ISZERO PUSH3 0x1741 JUMPI PUSH1 0x40 MLOAD PUSH3 0x461BCD PUSH1 0xE5 SHL DUP2 MSTORE PUSH1 0x20 PUSH1 0x4 DUP3 ADD MSTORE PUSH1 0x1F PUSH1 0x24 DUP3 ADD MSTORE PUSH32 0x46756E64696E672068617320616C7265616479206265656E2072616973656400 PUSH1 0x44 DUP3 ADD MSTORE PUSH1 0x64 ADD PUSH3 0x880 JUMP JUMPDEST PUSH1 0x0 DUP2 PUSH1 0x1 PUSH1 0x1 PUSH1 0xA0 SHL SUB AND PUSH4 0x18160DDD PUSH1 0x40 MLOAD DUP2 PUSH4 0xFFFFFFFF AND PUSH1 0xE0 SHL DUP2 MSTORE PUSH1 0x4 ADD PUSH1 0x20 PUSH1 0x40 MLOAD DUP1 DUP4 SUB DUP2 DUP7 GAS STATICCALL ISZERO DUP1 ISZERO PUSH3 0x1782 JUMPI RETURNDATASIZE PUSH1 0x0 DUP1 RETURNDATACOPY RETURNDATASIZE PUSH1 0x0 REVERT JUMPDEST POP POP POP POP PUSH1 0x40 MLOAD RETURNDATASIZE PUSH1 0x1F NOT PUSH1 0x1F DUP3 ADD AND DUP3 ADD DUP1 PUSH1 0x40 MSTORE POP DUP2 ADD SWAP1 PUSH3 0x17A8 SWAP2 SWAP1 PUSH3 0x27B9 JUMP JUMPDEST SWAP1 POP PUSH1 0x0 DUP2 PUSH3 0x17C4 PUSH8 0xDE0B6B3A7640000 PUSH3 0xF4240 PUSH3 0x260A JUMP JUMPDEST PUSH3 0x17D0 SWAP2 SWAP1 PUSH3 0x27D3 JUMP JUMPDEST SWAP1 POP PUSH1 0x0 PUSH3 0x17E8 PUSH8 0xDE0B6B3A7640000 DUP4 PUSH3 0x2624 JUMP JUMPDEST SWAP1 POP PUSH1 0x0 PUSH3 0x1800 PUSH8 0xDE0B6B3A7640000 DUP10 PUSH3 0x260A JUMP JUMPDEST SWAP1 POP DUP2 DUP9 GT ISZERO PUSH3 0x1854 JUMPI PUSH1 0x40 MLOAD PUSH3 0x461BCD PUSH1 0xE5 SHL DUP2 MSTORE PUSH1 0x20 PUSH1 0x4 DUP3 ADD MSTORE PUSH1 0x1B PUSH1 0x24 DUP3 ADD MSTORE PUSH32 0x4E6F7420656E6F75676820617661696C61626C6520737570706C790000000000 PUSH1 0x44 DUP3 ADD MSTORE PUSH1 0x64 ADD PUSH3 0x880 JUMP JUMPDEST PUSH1 0x0 PUSH8 0xDE0B6B3A7640000 PUSH1 0x5 PUSH3 0x1870 DUP3 PUSH3 0xF4240 PUSH3 0x260A JUMP JUMPDEST PUSH3 0x187C SWAP2 SWAP1 PUSH3 0x2624 JUMP JUMPDEST PUSH3 0x1888 SWAP1 DUP8 PUSH3 0x27D3 JUMP JUMPDEST PUSH3 0x1894 SWAP2 SWAP1 PUSH3 0x2624 JUMP JUMPDEST SWAP1 POP PUSH1 0x0 PUSH3 0x18A4 DUP3 DUP12 PUSH3 0x1A1E JUMP JUMPDEST SWAP1 POP DUP1 CALLVALUE LT ISZERO PUSH3 0x18F8 JUMPI PUSH1 0x40 MLOAD PUSH3 0x461BCD PUSH1 0xE5 SHL DUP2 MSTORE PUSH1 0x20 PUSH1 0x4 DUP3 ADD MSTORE PUSH1 0x1B PUSH1 0x24 DUP3 ADD MSTORE PUSH32 0x496E636F72726563742076616C7565206F66204554482073656E740000000000 PUSH1 0x44 DUP3 ADD MSTORE PUSH1 0x64 ADD PUSH3 0x880 JUMP JUMPDEST CALLVALUE DUP9 PUSH1 0x8 ADD PUSH1 0x0 DUP3 DUP3 SLOAD PUSH3 0x190E SWAP2 SWAP1 PUSH3 0x27E9 JUMP JUMPDEST SWAP1 SWAP2 SSTORE POP POP PUSH1 0x8 DUP9 ADD SLOAD PUSH7 0x556F963B97FE00 GT PUSH3 0x1971 JUMPI PUSH3 0x1931 DUP12 PUSH3 0x1B27 JUMP JUMPDEST POP PUSH1 0x0 PUSH1 0x5 PUSH3 0x194D PUSH8 0xDE0B6B3A7640000 PUSH3 0xF4240 PUSH3 0x260A JUMP JUMPDEST PUSH3 0x1959 SWAP2 SWAP1 PUSH3 0x2624 JUMP JUMPDEST PUSH1 0x8 DUP11 ADD SLOAD SWAP1 SWAP2 POP PUSH3 0x196E DUP14 DUP4 DUP4 PUSH3 0x1C2D JUMP JUMPDEST POP POP JUMPDEST PUSH1 0x40 MLOAD PUSH4 0x94BF804D PUSH1 0xE0 SHL DUP2 MSTORE PUSH1 0x4 DUP2 ADD DUP5 SWAP1 MSTORE CALLER PUSH1 0x24 DUP3 ADD MSTORE PUSH1 0x1 PUSH1 0x1 PUSH1 0xA0 SHL SUB DUP9 AND SWAP1 PUSH4 0x94BF804D SWAP1 PUSH1 0x44 ADD PUSH1 0x20 PUSH1 0x40 MLOAD DUP1 DUP4 SUB DUP2 PUSH1 0x0 DUP8 GAS CALL ISZERO DUP1 ISZERO PUSH3 0x19BF JUMPI RETURNDATASIZE PUSH1 0x0 DUP1 RETURNDATACOPY RETURNDATASIZE PUSH1 0x0 REVERT JUMPDEST POP POP POP POP PUSH1 0x40 MLOAD RETURNDATASIZE PUSH1 0x1F NOT PUSH1 0x1F DUP3 ADD AND DUP3 ADD DUP1 PUSH1 0x40 MSTORE POP DUP2 ADD SWAP1 PUSH3 0x19E5 SWAP2 SWAP1 PUSH3 0x27FF JUMP JUMPDEST POP PUSH1 0x1 SWAP9 POP POP POP POP POP POP POP POP POP JUMPDEST SWAP3 SWAP2 POP POP JUMP JUMPDEST PUSH1 0x5 PUSH3 0x1A12 PUSH8 0xDE0B6B3A7640000 PUSH3 0xF4240 PUSH3 0x260A JUMP JUMPDEST PUSH3 0x828 SWAP2 SWAP1 PUSH3 0x2624 JUMP JUMPDEST PUSH1 0x0 DUP1 PUSH5 0xE8D4A51000 PUSH3 0x1A33 DUP5 DUP7 PUSH3 0x27E9 JUMP JUMPDEST PUSH3 0x1A46 SWAP1 PUSH7 0x11C37937E08000 PUSH3 0x260A JUMP JUMPDEST PUSH3 0x1A52 SWAP2 SWAP1 PUSH3 0x2624 JUMP JUMPDEST SWAP1 POP PUSH1 0x0 PUSH5 0xE8D4A51000 PUSH3 0x1A6F DUP7 PUSH7 0x11C37937E08000 PUSH3 0x260A JUMP JUMPDEST PUSH3 0x1A7B SWAP2 SWAP1 PUSH3 0x2624 JUMP JUMPDEST SWAP1 POP PUSH1 0x0 PUSH3 0x1A8A DUP4 PUSH3 0x1DFB JUMP JUMPDEST SWAP1 POP PUSH1 0x0 PUSH3 0x1A99 DUP4 PUSH3 0x1DFB JUMP JUMPDEST SWAP1 POP PUSH1 0x0 PUSH7 0x11C37937E08000 PUSH3 0x1AB1 DUP4 DUP6 PUSH3 0x27D3 JUMP JUMPDEST PUSH3 0x1AC8 PUSH6 0x1B48EB57E000 PUSH5 0xE8D4A51000 PUSH3 0x260A JUMP JUMPDEST PUSH3 0x1AD4 SWAP2 SWAP1 PUSH3 0x260A JUMP JUMPDEST PUSH3 0x1AE0 SWAP2 SWAP1 PUSH3 0x2624 JUMP JUMPDEST SWAP1 POP PUSH3 0x1AF0 PUSH2 0x3E8 DUP3 PUSH3 0x2624 JUMP JUMPDEST SWAP9 SWAP8 POP POP POP POP POP POP POP POP JUMP JUMPDEST PUSH1 0x0 DUP2 DUP2 SLOAD DUP2 LT PUSH3 0x1B0D JUMPI PUSH1 0x0 DUP1 REVERT JUMPDEST PUSH1 0x0 SWAP2 DUP3 MSTORE PUSH1 0x20 SWAP1 SWAP2 KECCAK256 ADD SLOAD PUSH1 0x1 PUSH1 0x1 PUSH1 0xA0 SHL SUB AND SWAP1 POP DUP2 JUMP JUMPDEST PUSH1 0x40 MLOAD PUSH4 0xA1671295 PUSH1 0xE0 SHL DUP2 MSTORE PUSH1 0x1 PUSH1 0x1 PUSH1 0xA0 SHL SUB DUP3 AND PUSH1 0x4 DUP3 ADD MSTORE PUSH1 0x6 PUSH1 0x21 PUSH1 0x99 SHL ADD PUSH1 0x24 DUP3 ADD MSTORE PUSH2 0xBB8 PUSH1 0x44 DUP3 ADD MSTORE PUSH1 0x0 SWAP1 PUSH20 0x227628F3F023BB0B980B67D528571C95C6DAC1C SWAP1 DUP2 SWAP1 PUSH4 0xA1671295 SWAP1 PUSH1 0x64 ADD PUSH1 0x20 PUSH1 0x40 MLOAD DUP1 DUP4 SUB DUP2 PUSH1 0x0 DUP8 GAS CALL ISZERO DUP1 ISZERO PUSH3 0x1B9C JUMPI RETURNDATASIZE PUSH1 0x0 DUP1 RETURNDATACOPY RETURNDATASIZE PUSH1 0x0 REVERT JUMPDEST POP POP POP POP PUSH1 0x40 MLOAD RETURNDATASIZE PUSH1 0x1F NOT PUSH1 0x1F DUP3 ADD AND DUP3 ADD DUP1 PUSH1 0x40 MSTORE POP DUP2 ADD SWAP1 PUSH3 0x1BC2 SWAP2 SWAP1 PUSH3 0x2823 JUMP JUMPDEST PUSH1 0x40 MLOAD PUSH4 0xF637731D PUSH1 0xE0 SHL DUP2 MSTORE PUSH1 0x1 PUSH1 0x60 SHL PUSH1 0x4 DUP3 ADD DUP2 SWAP1 MSTORE SWAP2 SWAP4 POP PUSH1 0x1 PUSH1 0x1 PUSH1 0xA0 SHL SUB DUP5 AND SWAP1 PUSH4 0xF637731D SWAP1 PUSH1 0x24 ADD PUSH1 0x0 PUSH1 0x40 MLOAD DUP1 DUP4 SUB DUP2 PUSH1 0x0 DUP8 DUP1 EXTCODESIZE ISZERO DUP1 ISZERO PUSH3 0x1C0D JUMPI PUSH1 0x0 DUP1 REVERT JUMPDEST POP GAS CALL ISZERO DUP1 ISZERO PUSH3 0x1C22 JUMPI RETURNDATASIZE PUSH1 0x0 DUP1 RETURNDATACOPY RETURNDATASIZE PUSH1 0x0 REVERT JUMPDEST POP POP POP POP POP POP SWAP2 SWAP1 POP JUMP JUMPDEST PUSH3 0x1C4E DUP4 PUSH20 0x1238536071E1C677A632429E3655C799B22CDA52 DUP5 PUSH3 0x1E72 JUMP JUMPDEST PUSH1 0x40 DUP1 MLOAD PUSH2 0x160 DUP2 ADD SWAP1 SWAP2 MSTORE PUSH20 0x1238536071E1C677A632429E3655C799B22CDA52 SWAP1 PUSH1 0x0 SWAP1 DUP1 PUSH1 0x6 PUSH1 0x21 PUSH1 0x99 SHL ADD PUSH1 0x1 PUSH1 0x1 PUSH1 0xA0 SHL SUB DUP9 AND LT PUSH3 0x1C9A JUMPI PUSH1 0x6 PUSH1 0x21 PUSH1 0x99 SHL ADD PUSH3 0x1C9C JUMP JUMPDEST DUP7 JUMPDEST PUSH1 0x1 PUSH1 0x1 PUSH1 0xA0 SHL SUB AND DUP2 MSTORE PUSH1 0x20 ADD PUSH1 0x6 PUSH1 0x21 PUSH1 0x99 SHL ADD PUSH1 0x1 PUSH1 0x1 PUSH1 0xA0 SHL SUB AND DUP8 PUSH1 0x1 PUSH1 0x1 PUSH1 0xA0 SHL SUB AND LT PUSH3 0x1CD2 JUMPI DUP7 PUSH3 0x1CDB JUMP JUMPDEST PUSH1 0x6 PUSH1 0x21 PUSH1 0x99 SHL ADD JUMPDEST PUSH1 0x1 PUSH1 0x1 PUSH1 0xA0 SHL SUB SWAP1 DUP2 AND DUP3 MSTORE PUSH2 0xBB8 PUSH1 0x20 DUP4 ADD MSTORE PUSH3 0xD89B3 NOT PUSH1 0x40 DUP4 ADD MSTORE PUSH3 0xD89B4 PUSH1 0x60 DUP4 ADD MSTORE PUSH1 0x80 SWAP1 SWAP2 ADD SWAP1 PUSH1 0x6 PUSH1 0x21 PUSH1 0x99 SHL ADD SWAP1 DUP9 AND LT PUSH3 0x1D21 JUMPI DUP5 PUSH3 0x1D23 JUMP JUMPDEST DUP6 JUMPDEST DUP2 MSTORE PUSH1 0x20 ADD PUSH1 0x6 PUSH1 0x21 PUSH1 0x99 SHL ADD PUSH1 0x1 PUSH1 0x1 PUSH1 0xA0 SHL SUB DUP9 AND LT PUSH3 0x1D47 JUMPI DUP6 PUSH3 0x1D49 JUMP JUMPDEST DUP5 JUMPDEST DUP2 MSTORE PUSH1 0x20 ADD PUSH1 0x0 DUP2 MSTORE PUSH1 0x20 ADD PUSH1 0x0 DUP2 MSTORE PUSH1 0x20 ADD ADDRESS PUSH1 0x1 PUSH1 0x1 PUSH1 0xA0 SHL SUB AND DUP2 MSTORE PUSH1 0x20 ADD TIMESTAMP DUP2 MSTORE POP SWAP1 POP PUSH1 0x0 DUP1 PUSH1 0x0 DUP1 DUP6 PUSH1 0x1 PUSH1 0x1 PUSH1 0xA0 SHL SUB AND PUSH4 0x88316456 DUP9 DUP8 PUSH1 0x40 MLOAD DUP4 PUSH4 0xFFFFFFFF AND PUSH1 0xE0 SHL DUP2 MSTORE PUSH1 0x4 ADD PUSH3 0x1DA6 SWAP2 SWAP1 PUSH3 0x2843 JUMP JUMPDEST PUSH1 0x80 PUSH1 0x40 MLOAD DUP1 DUP4 SUB DUP2 DUP6 DUP9 GAS CALL ISZERO DUP1 ISZERO PUSH3 0x1DC5 JUMPI RETURNDATASIZE PUSH1 0x0 DUP1 RETURNDATACOPY RETURNDATASIZE PUSH1 0x0 REVERT JUMPDEST POP POP POP POP POP PUSH1 0x40 MLOAD RETURNDATASIZE PUSH1 0x1F NOT PUSH1 0x1F DUP3 ADD AND DUP3 ADD DUP1 PUSH1 0x40 MSTORE POP DUP2 ADD SWAP1 PUSH3 0x1DEC SWAP2 SWAP1 PUSH3 0x290C JUMP JUMPDEST POP POP POP POP POP POP POP POP POP POP POP POP POP JUMP JUMPDEST PUSH1 0x0 PUSH5 0xE8D4A51000 DUP1 DUP4 PUSH1 0x1 JUMPDEST PUSH1 0x14 DUP2 GT PUSH3 0x1E68 JUMPI PUSH3 0x1E22 DUP2 PUSH5 0xE8D4A51000 PUSH3 0x260A JUMP JUMPDEST PUSH3 0x1E2E DUP4 DUP6 PUSH3 0x260A JUMP JUMPDEST PUSH3 0x1E3A SWAP2 SWAP1 PUSH3 0x2624 JUMP JUMPDEST SWAP3 POP PUSH3 0x1E48 DUP4 DUP6 PUSH3 0x27E9 JUMP JUMPDEST SWAP4 POP PUSH1 0x1 DUP4 LT PUSH3 0x1E68 JUMPI DUP1 PUSH3 0x1E5F DUP2 PUSH3 0x2961 JUMP JUMPDEST SWAP2 POP POP PUSH3 0x1E08 JUMP JUMPDEST POP SWAP2 SWAP5 SWAP4 POP POP POP POP JUMP JUMPDEST PUSH1 0x40 DUP1 MLOAD PUSH1 0x1 PUSH1 0x1 PUSH1 0xA0 SHL SUB DUP5 DUP2 AND PUSH1 0x24 DUP4 ADD MSTORE PUSH1 0x44 DUP1 DUP4 ADD DUP6 SWAP1 MSTORE DUP4 MLOAD DUP1 DUP5 SUB SWAP1 SWAP2 ADD DUP2 MSTORE PUSH1 0x64 SWAP1 SWAP3 ADD DUP4 MSTORE PUSH1 0x20 DUP3 ADD DUP1 MLOAD PUSH1 0x1 PUSH1 0x1 PUSH1 0xE0 SHL SUB AND PUSH4 0x95EA7B3 PUSH1 0xE0 SHL OR SWAP1 MSTORE SWAP2 MLOAD PUSH1 0x0 SWAP3 DUP4 SWAP3 SWAP1 DUP8 AND SWAP2 PUSH3 0x1ED0 SWAP2 SWAP1 PUSH3 0x297D JUMP JUMPDEST PUSH1 0x0 PUSH1 0x40 MLOAD DUP1 DUP4 SUB DUP2 PUSH1 0x0 DUP7 GAS CALL SWAP2 POP POP RETURNDATASIZE DUP1 PUSH1 0x0 DUP2 EQ PUSH3 0x1F0F JUMPI PUSH1 0x40 MLOAD SWAP2 POP PUSH1 0x1F NOT PUSH1 0x3F RETURNDATASIZE ADD AND DUP3 ADD PUSH1 0x40 MSTORE RETURNDATASIZE DUP3 MSTORE RETURNDATASIZE PUSH1 0x0 PUSH1 0x20 DUP5 ADD RETURNDATACOPY PUSH3 0x1F14 JUMP JUMPDEST PUSH1 0x60 SWAP2 POP JUMPDEST POP SWAP2 POP SWAP2 POP DUP2 DUP1 ISZERO PUSH3 0x1F42 JUMPI POP DUP1 MLOAD ISZERO DUP1 PUSH3 0x1F42 JUMPI POP DUP1 DUP1 PUSH1 0x20 ADD SWAP1 MLOAD DUP2 ADD SWAP1 PUSH3 0x1F42 SWAP2 SWAP1 PUSH3 0x27FF JUMP JUMPDEST PUSH3 0x1F90 JUMPI PUSH1 0x40 MLOAD PUSH3 0x461BCD PUSH1 0xE5 SHL DUP2 MSTORE PUSH1 0x20 PUSH1 0x4 DUP3 ADD MSTORE PUSH1 0x1E PUSH1 0x24 DUP3 ADD MSTORE PUSH32 0x5472616E7366657248656C7065723A20415050524F56455F4641494C45440000 PUSH1 0x44 DUP3 ADD MSTORE PUSH1 0x64 ADD PUSH3 0x880 JUMP JUMPDEST POP POP POP POP POP JUMP JUMPDEST PUSH2 0xD16 DUP1 PUSH3 0x299C DUP4 CODECOPY ADD SWAP1 JUMP JUMPDEST PUSH1 0x40 MLOAD DUP1 PUSH2 0x180 ADD PUSH1 0x40 MSTORE DUP1 PUSH1 0x60 DUP2 MSTORE PUSH1 0x20 ADD PUSH1 0x60 DUP2 MSTORE PUSH1 0x20 ADD PUSH1 0x60 DUP2 MSTORE PUSH1 0x20 ADD PUSH1 0x60 DUP2 MSTORE PUSH1 0x20 ADD PUSH1 0x60 DUP2 MSTORE PUSH1 0x20 ADD PUSH1 0x60 DUP2 MSTORE PUSH1 0x20 ADD PUSH1 0x60 DUP2 MSTORE PUSH1 0x20 ADD PUSH1 0x60 DUP2 MSTORE PUSH1 0x20 ADD PUSH1 0x0 DUP2 MSTORE PUSH1 0x20 ADD PUSH1 0x0 PUSH1 0x1 PUSH1 0x1 PUSH1 0xA0 SHL SUB AND DUP2 MSTORE PUSH1 0x20 ADD PUSH1 0x0 PUSH1 0x1 PUSH1 0x1 PUSH1 0xA0 SHL SUB AND DUP2 MSTORE PUSH1 0x20 ADD PUSH1 0x0 DUP2 MSTORE POP SWAP1 JUMP JUMPDEST PUSH1 0x1 PUSH1 0x1 PUSH1 0xA0 SHL SUB DUP2 AND DUP2 EQ PUSH3 0x202E JUMPI PUSH1 0x0 DUP1 REVERT JUMPDEST POP JUMP JUMPDEST PUSH1 0x0 PUSH1 0x20 DUP3 DUP5 SUB SLT ISZERO PUSH3 0x2044 JUMPI PUSH1 0x0 DUP1 REVERT JUMPDEST DUP2 CALLDATALOAD PUSH3 0x2051 DUP2 PUSH3 0x2018 JUMP JUMPDEST SWAP4 SWAP3 POP POP POP JUMP JUMPDEST PUSH1 0x0 JUMPDEST DUP4 DUP2 LT ISZERO PUSH3 0x2075 JUMPI DUP2 DUP2 ADD MLOAD DUP4 DUP3 ADD MSTORE PUSH1 0x20 ADD PUSH3 0x205B JUMP JUMPDEST POP POP PUSH1 0x0 SWAP2 ADD MSTORE JUMP JUMPDEST PUSH1 0x0 DUP2 MLOAD DUP1 DUP5 MSTORE PUSH3 0x2098 DUP2 PUSH1 0x20 DUP7 ADD PUSH1 0x20 DUP7 ADD PUSH3 0x2058 JUMP JUMPDEST PUSH1 0x1F ADD PUSH1 0x1F NOT AND SWAP3 SWAP1 SWAP3 ADD PUSH1 0x20 ADD SWAP3 SWAP2 POP POP JUMP JUMPDEST PUSH2 0x180 DUP2 MSTORE PUSH1 0x0 PUSH3 0x20C3 PUSH2 0x180 DUP4 ADD DUP16 PUSH3 0x207E JUMP JUMPDEST DUP3 DUP2 SUB PUSH1 0x20 DUP5 ADD MSTORE PUSH3 0x20D7 DUP2 DUP16 PUSH3 0x207E JUMP JUMPDEST SWAP1 POP DUP3 DUP2 SUB PUSH1 0x40 DUP5 ADD MSTORE PUSH3 0x20ED DUP2 DUP15 PUSH3 0x207E JUMP JUMPDEST SWAP1 POP DUP3 DUP2 SUB PUSH1 0x60 DUP5 ADD MSTORE PUSH3 0x2103 DUP2 DUP14 PUSH3 0x207E JUMP JUMPDEST SWAP1 POP DUP3 DUP2 SUB PUSH1 0x80 DUP5 ADD MSTORE PUSH3 0x2119 DUP2 DUP13 PUSH3 0x207E JUMP JUMPDEST SWAP1 POP DUP3 DUP2 SUB PUSH1 0xA0 DUP5 ADD MSTORE PUSH3 0x212F DUP2 DUP12 PUSH3 0x207E JUMP JUMPDEST SWAP1 POP DUP3 DUP2 SUB PUSH1 0xC0 DUP5 ADD MSTORE PUSH3 0x2145 DUP2 DUP11 PUSH3 0x207E JUMP JUMPDEST SWAP1 POP DUP3 DUP2 SUB PUSH1 0xE0 DUP5 ADD MSTORE PUSH3 0x215B DUP2 DUP10 PUSH3 0x207E JUMP JUMPDEST SWAP2 POP POP DUP6 PUSH2 0x100 DUP4 ADD MSTORE PUSH3 0x217C PUSH2 0x120 DUP4 ADD DUP7 PUSH1 0x1 PUSH1 0x1 PUSH1 0xA0 SHL SUB AND SWAP1 MSTORE JUMP JUMPDEST PUSH1 0x1 PUSH1 0x1 PUSH1 0xA0 SHL SUB SWAP4 SWAP1 SWAP4 AND PUSH2 0x140 DUP3 ADD MSTORE PUSH2 0x160 ADD MSTORE SWAP11 SWAP10 POP POP POP POP POP POP POP POP POP POP JUMP JUMPDEST PUSH4 0x4E487B71 PUSH1 0xE0 SHL PUSH1 0x0 MSTORE PUSH1 0x41 PUSH1 0x4 MSTORE PUSH1 0x24 PUSH1 0x0 REVERT JUMPDEST PUSH1 0x0 DUP3 PUSH1 0x1F DUP4 ADD SLT PUSH3 0x21C9 JUMPI PUSH1 0x0 DUP1 REVERT JUMPDEST DUP2 CALLDATALOAD PUSH8 0xFFFFFFFFFFFFFFFF DUP1 DUP3 GT ISZERO PUSH3 0x21E7 JUMPI PUSH3 0x21E7 PUSH3 0x21A1 JUMP JUMPDEST PUSH1 0x40 MLOAD PUSH1 0x1F DUP4 ADD PUSH1 0x1F NOT SWAP1 DUP2 AND PUSH1 0x3F ADD AND DUP2 ADD SWAP1 DUP3 DUP3 GT DUP2 DUP4 LT OR ISZERO PUSH3 0x2212 JUMPI PUSH3 0x2212 PUSH3 0x21A1 JUMP JUMPDEST DUP2 PUSH1 0x40 MSTORE DUP4 DUP2 MSTORE DUP7 PUSH1 0x20 DUP6 DUP9 ADD ADD GT ISZERO PUSH3 0x222C JUMPI PUSH1 0x0 DUP1 REVERT JUMPDEST DUP4 PUSH1 0x20 DUP8 ADD PUSH1 0x20 DUP4 ADD CALLDATACOPY PUSH1 0x0 PUSH1 0x20 DUP6 DUP4 ADD ADD MSTORE DUP1 SWAP5 POP POP POP POP POP SWAP3 SWAP2 POP POP JUMP JUMPDEST PUSH1 0x0 DUP1 PUSH1 0x0 DUP1 PUSH1 0x0 DUP1 PUSH1 0x0 DUP1 PUSH2 0x100 DUP10 DUP12 SUB SLT ISZERO PUSH3 0x226A JUMPI PUSH1 0x0 DUP1 REVERT JUMPDEST DUP9 CALLDATALOAD PUSH8 0xFFFFFFFFFFFFFFFF DUP1 DUP3 GT ISZERO PUSH3 0x2283 JUMPI PUSH1 0x0 DUP1 REVERT JUMPDEST PUSH3 0x2291 DUP13 DUP4 DUP14 ADD PUSH3 0x21B7 JUMP JUMPDEST SWAP10 POP PUSH1 0x20 DUP12 ADD CALLDATALOAD SWAP2 POP DUP1 DUP3 GT ISZERO PUSH3 0x22A8 JUMPI PUSH1 0x0 DUP1 REVERT JUMPDEST PUSH3 0x22B6 DUP13 DUP4 DUP14 ADD PUSH3 0x21B7 JUMP JUMPDEST SWAP9 POP PUSH1 0x40 DUP12 ADD CALLDATALOAD SWAP2 POP DUP1 DUP3 GT ISZERO PUSH3 0x22CD JUMPI PUSH1 0x0 DUP1 REVERT JUMPDEST PUSH3 0x22DB DUP13 DUP4 DUP14 ADD PUSH3 0x21B7 JUMP JUMPDEST SWAP8 POP PUSH1 0x60 DUP12 ADD CALLDATALOAD SWAP2 POP DUP1 DUP3 GT ISZERO PUSH3 0x22F2 JUMPI PUSH1 0x0 DUP1 REVERT JUMPDEST PUSH3 0x2300 DUP13 DUP4 DUP14 ADD PUSH3 0x21B7 JUMP JUMPDEST SWAP7 POP PUSH1 0x80 DUP12 ADD CALLDATALOAD SWAP2 POP DUP1 DUP3 GT ISZERO PUSH3 0x2317 JUMPI PUSH1 0x0 DUP1 REVERT JUMPDEST PUSH3 0x2325 DUP13 DUP4 DUP14 ADD PUSH3 0x21B7 JUMP JUMPDEST SWAP6 POP PUSH1 0xA0 DUP12 ADD CALLDATALOAD SWAP2 POP DUP1 DUP3 GT ISZERO PUSH3 0x233C JUMPI PUSH1 0x0 DUP1 REVERT JUMPDEST PUSH3 0x234A DUP13 DUP4 DUP14 ADD PUSH3 0x21B7 JUMP JUMPDEST SWAP5 POP PUSH1 0xC0 DUP12 ADD CALLDATALOAD SWAP2 POP DUP1 DUP3 GT ISZERO PUSH3 0x2361 JUMPI PUSH1 0x0 DUP1 REVERT JUMPDEST PUSH3 0x236F DUP13 DUP4 DUP14 ADD PUSH3 0x21B7 JUMP JUMPDEST SWAP4 POP PUSH1 0xE0 DUP12 ADD CALLDATALOAD SWAP2 POP DUP1 DUP3 GT ISZERO PUSH3 0x2386 JUMPI PUSH1 0x0 DUP1 REVERT JUMPDEST POP PUSH3 0x2395 DUP12 DUP3 DUP13 ADD PUSH3 0x21B7 JUMP JUMPDEST SWAP2 POP POP SWAP3 SWAP6 SWAP9 POP SWAP3 SWAP6 SWAP9 SWAP1 SWAP4 SWAP7 POP JUMP JUMPDEST PUSH1 0x0 PUSH2 0x180 DUP3 MLOAD DUP2 DUP6 MSTORE PUSH3 0x23BD DUP3 DUP7 ADD DUP3 PUSH3 0x207E JUMP JUMPDEST SWAP2 POP POP PUSH1 0x20 DUP4 ADD MLOAD DUP5 DUP3 SUB PUSH1 0x20 DUP7 ADD MSTORE PUSH3 0x23D9 DUP3 DUP3 PUSH3 0x207E JUMP JUMPDEST SWAP2 POP POP PUSH1 0x40 DUP4 ADD MLOAD DUP5 DUP3 SUB PUSH1 0x40 DUP7 ADD MSTORE PUSH3 0x23F5 DUP3 DUP3 PUSH3 0x207E JUMP JUMPDEST SWAP2 POP POP PUSH1 0x60 DUP4 ADD MLOAD DUP5 DUP3 SUB PUSH1 0x60 DUP7 ADD MSTORE PUSH3 0x2411 DUP3 DUP3 PUSH3 0x207E JUMP JUMPDEST SWAP2 POP POP PUSH1 0x80 DUP4 ADD MLOAD DUP5 DUP3 SUB PUSH1 0x80 DUP7 ADD MSTORE PUSH3 0x242D DUP3 DUP3 PUSH3 0x207E JUMP JUMPDEST SWAP2 POP POP PUSH1 0xA0 DUP4 ADD MLOAD DUP5 DUP3 SUB PUSH1 0xA0 DUP7 ADD MSTORE PUSH3 0x2449 DUP3 DUP3 PUSH3 0x207E JUMP JUMPDEST SWAP2 POP POP PUSH1 0xC0 DUP4 ADD MLOAD DUP5 DUP3 SUB PUSH1 0xC0 DUP7 ADD MSTORE PUSH3 0x2465 DUP3 DUP3 PUSH3 0x207E JUMP JUMPDEST SWAP2 POP POP PUSH1 0xE0 DUP4 ADD MLOAD DUP5 DUP3 SUB PUSH1 0xE0 DUP7 ADD MSTORE PUSH3 0x2481 DUP3 DUP3 PUSH3 0x207E JUMP JUMPDEST SWAP2 POP POP PUSH2 0x100 DUP1 DUP5 ADD MLOAD DUP2 DUP7 ADD MSTORE POP PUSH2 0x120 DUP1 DUP5 ADD MLOAD PUSH3 0x24AC DUP3 DUP8 ADD DUP3 PUSH1 0x1 PUSH1 0x1 PUSH1 0xA0 SHL SUB AND SWAP1 MSTORE JUMP JUMPDEST POP POP PUSH2 0x140 DUP4 DUP2 ADD MLOAD PUSH1 0x1 PUSH1 0x1 PUSH1 0xA0 SHL SUB AND SWAP1 DUP6 ADD MSTORE PUSH2 0x160 SWAP3 DUP4 ADD MLOAD SWAP3 SWAP1 SWAP4 ADD SWAP2 SWAP1 SWAP2 MSTORE POP SWAP1 JUMP JUMPDEST PUSH1 0x0 PUSH1 0x20 DUP1 DUP4 ADD PUSH1 0x20 DUP5 MSTORE DUP1 DUP6 MLOAD DUP1 DUP4 MSTORE PUSH1 0x40 DUP7 ADD SWAP2 POP PUSH1 0x40 DUP2 PUSH1 0x5 SHL DUP8 ADD ADD SWAP3 POP PUSH1 0x20 DUP8 ADD PUSH1 0x0 JUMPDEST DUP3 DUP2 LT ISZERO PUSH3 0x2530 JUMPI PUSH1 0x3F NOT DUP9 DUP7 SUB ADD DUP5 MSTORE PUSH3 0x251D DUP6 DUP4 MLOAD PUSH3 0x23A5 JUMP JUMPDEST SWAP5 POP SWAP3 DUP6 ADD SWAP3 SWAP1 DUP6 ADD SWAP1 PUSH1 0x1 ADD PUSH3 0x24FE JUMP JUMPDEST POP SWAP3 SWAP8 SWAP7 POP POP POP POP POP POP POP JUMP JUMPDEST PUSH1 0x20 DUP2 MSTORE PUSH1 0x0 PUSH3 0x2051 PUSH1 0x20 DUP4 ADD DUP5 PUSH3 0x23A5 JUMP JUMPDEST PUSH1 0x0 DUP1 PUSH1 0x40 DUP4 DUP6 SUB SLT ISZERO PUSH3 0x2566 JUMPI PUSH1 0x0 DUP1 REVERT JUMPDEST DUP3 CALLDATALOAD PUSH3 0x2573 DUP2 PUSH3 0x2018 JUMP JUMPDEST SWAP5 PUSH1 0x20 SWAP4 SWAP1 SWAP4 ADD CALLDATALOAD SWAP4 POP POP POP JUMP JUMPDEST PUSH1 0x0 DUP1 PUSH1 0x40 DUP4 DUP6 SUB SLT ISZERO PUSH3 0x2595 JUMPI PUSH1 0x0 DUP1 REVERT JUMPDEST POP POP DUP1 CALLDATALOAD SWAP3 PUSH1 0x20 SWAP1 SWAP2 ADD CALLDATALOAD SWAP2 POP JUMP JUMPDEST PUSH1 0x0 PUSH1 0x20 DUP3 DUP5 SUB SLT ISZERO PUSH3 0x25B7 JUMPI PUSH1 0x0 DUP1 REVERT JUMPDEST POP CALLDATALOAD SWAP2 SWAP1 POP JUMP JUMPDEST PUSH1 0x1 DUP2 DUP2 SHR SWAP1 DUP3 AND DUP1 PUSH3 0x25D3 JUMPI PUSH1 0x7F DUP3 AND SWAP2 POP JUMPDEST PUSH1 0x20 DUP3 LT DUP2 SUB PUSH3 0x10A5 JUMPI PUSH4 0x4E487B71 PUSH1 0xE0 SHL PUSH1 0x0 MSTORE PUSH1 0x22 PUSH1 0x4 MSTORE PUSH1 0x24 PUSH1 0x0 REVERT JUMPDEST PUSH4 0x4E487B71 PUSH1 0xE0 SHL PUSH1 0x0 MSTORE PUSH1 0x11 PUSH1 0x4 MSTORE PUSH1 0x24 PUSH1 0x0 REVERT JUMPDEST DUP1 DUP3 MUL DUP2 ISZERO DUP3 DUP3 DIV DUP5 EQ OR PUSH3 0x19F3 JUMPI PUSH3 0x19F3 PUSH3 0x25F4 JUMP JUMPDEST PUSH1 0x0 DUP3 PUSH3 0x2642 JUMPI PUSH4 0x4E487B71 PUSH1 0xE0 SHL PUSH1 0x0 MSTORE PUSH1 0x12 PUSH1 0x4 MSTORE PUSH1 0x24 PUSH1 0x0 REVERT JUMPDEST POP DIV SWAP1 JUMP JUMPDEST PUSH1 0x60 DUP2 MSTORE PUSH1 0x0 PUSH3 0x265C PUSH1 0x60 DUP4 ADD DUP7 PUSH3 0x207E JUMP JUMPDEST DUP3 DUP2 SUB PUSH1 0x20 DUP5 ADD MSTORE PUSH3 0x2670 DUP2 DUP7 PUSH3 0x207E JUMP JUMPDEST SWAP2 POP POP DUP3 PUSH1 0x40 DUP4 ADD MSTORE SWAP5 SWAP4 POP POP POP POP JUMP JUMPDEST PUSH1 0x1F DUP3 GT ISZERO PUSH3 0x26D1 JUMPI PUSH1 0x0 DUP2 PUSH1 0x0 MSTORE PUSH1 0x20 PUSH1 0x0 KECCAK256 PUSH1 0x1F DUP6 ADD PUSH1 0x5 SHR DUP2 ADD PUSH1 0x20 DUP7 LT ISZERO PUSH3 0x26AC JUMPI POP DUP1 JUMPDEST PUSH1 0x1F DUP6 ADD PUSH1 0x5 SHR DUP3 ADD SWAP2 POP JUMPDEST DUP2 DUP2 LT ISZERO PUSH3 0x26CD JUMPI DUP3 DUP2 SSTORE PUSH1 0x1 ADD PUSH3 0x26B8 JUMP JUMPDEST POP POP POP JUMPDEST POP POP POP JUMP JUMPDEST DUP2 MLOAD PUSH8 0xFFFFFFFFFFFFFFFF DUP2 GT ISZERO PUSH3 0x26F3 JUMPI PUSH3 0x26F3 PUSH3 0x21A1 JUMP JUMPDEST PUSH3 0x270B DUP2 PUSH3 0x2704 DUP5 SLOAD PUSH3 0x25BE JUMP JUMPDEST DUP5 PUSH3 0x2681 JUMP JUMPDEST PUSH1 0x20 DUP1 PUSH1 0x1F DUP4 GT PUSH1 0x1 DUP2 EQ PUSH3 0x2743 JUMPI PUSH1 0x0 DUP5 ISZERO PUSH3 0x272A JUMPI POP DUP6 DUP4 ADD MLOAD JUMPDEST PUSH1 0x0 NOT PUSH1 0x3 DUP7 SWAP1 SHL SHR NOT AND PUSH1 0x1 DUP6 SWAP1 SHL OR DUP6 SSTORE PUSH3 0x26CD JUMP JUMPDEST PUSH1 0x0 DUP6 DUP2 MSTORE PUSH1 0x20 DUP2 KECCAK256 PUSH1 0x1F NOT DUP7 AND SWAP2 JUMPDEST DUP3 DUP2 LT ISZERO PUSH3 0x2774 JUMPI DUP9 DUP7 ADD MLOAD DUP3 SSTORE SWAP5 DUP5 ADD SWAP5 PUSH1 0x1 SWAP1 SWAP2 ADD SWAP1 DUP5 ADD PUSH3 0x2753 JUMP JUMPDEST POP DUP6 DUP3 LT ISZERO PUSH3 0x2793 JUMPI DUP8 DUP6 ADD MLOAD PUSH1 0x0 NOT PUSH1 0x3 DUP9 SWAP1 SHL PUSH1 0xF8 AND SHR NOT AND DUP2 SSTORE JUMPDEST POP POP POP POP POP PUSH1 0x1 SWAP1 DUP2 SHL ADD SWAP1 SSTORE POP JUMP JUMPDEST PUSH4 0x4E487B71 PUSH1 0xE0 SHL PUSH1 0x0 MSTORE PUSH1 0x32 PUSH1 0x4 MSTORE PUSH1 0x24 PUSH1 0x0 REVERT JUMPDEST PUSH1 0x0 PUSH1 0x20 DUP3 DUP5 SUB SLT ISZERO PUSH3 0x27CC JUMPI PUSH1 0x0 DUP1 REVERT JUMPDEST POP MLOAD SWAP2 SWAP1 POP JUMP JUMPDEST DUP2 DUP2 SUB DUP2 DUP2 GT ISZERO PUSH3 0x19F3 JUMPI PUSH3 0x19F3 PUSH3 0x25F4 JUMP JUMPDEST DUP1 DUP3 ADD DUP1 DUP3 GT ISZERO PUSH3 0x19F3 JUMPI PUSH3 0x19F3 PUSH3 0x25F4 JUMP JUMPDEST PUSH1 0x0 PUSH1 0x20 DUP3 DUP5 SUB SLT ISZERO PUSH3 0x2812 JUMPI PUSH1 0x0 DUP1 REVERT JUMPDEST DUP2 MLOAD DUP1 ISZERO ISZERO DUP2 EQ PUSH3 0x2051 JUMPI PUSH1 0x0 DUP1 REVERT JUMPDEST PUSH1 0x0 PUSH1 0x20 DUP3 DUP5 SUB SLT ISZERO PUSH3 0x2836 JUMPI PUSH1 0x0 DUP1 REVERT JUMPDEST DUP2 MLOAD PUSH3 0x2051 DUP2 PUSH3 0x2018 JUMP JUMPDEST DUP2 MLOAD PUSH1 0x1 PUSH1 0x1 PUSH1 0xA0 SHL SUB AND DUP2 MSTORE PUSH2 0x160 DUP2 ADD PUSH1 0x20 DUP4 ADD MLOAD PUSH3 0x2870 PUSH1 0x20 DUP5 ADD DUP3 PUSH1 0x1 PUSH1 0x1 PUSH1 0xA0 SHL SUB AND SWAP1 MSTORE JUMP JUMPDEST POP PUSH1 0x40 DUP4 ADD MLOAD PUSH3 0x2888 PUSH1 0x40 DUP5 ADD DUP3 PUSH3 0xFFFFFF AND SWAP1 MSTORE JUMP JUMPDEST POP PUSH1 0x60 DUP4 ADD MLOAD PUSH3 0x289E PUSH1 0x60 DUP5 ADD DUP3 PUSH1 0x2 SIGNEXTEND SWAP1 MSTORE JUMP JUMPDEST POP PUSH1 0x80 DUP4 ADD MLOAD PUSH3 0x28B4 PUSH1 0x80 DUP5 ADD DUP3 PUSH1 0x2 SIGNEXTEND SWAP1 MSTORE JUMP JUMPDEST POP PUSH1 0xA0 DUP4 ADD MLOAD PUSH1 0xA0 DUP4 ADD MSTORE PUSH1 0xC0 DUP4 ADD MLOAD PUSH1 0xC0 DUP4 ADD MSTORE PUSH1 0xE0 DUP4 ADD MLOAD PUSH1 0xE0 DUP4 ADD MSTORE PUSH2 0x100 DUP1 DUP5 ADD MLOAD DUP2 DUP5 ADD MSTORE POP PUSH2 0x120 DUP1 DUP5 ADD MLOAD PUSH3 0x28FB DUP3 DUP6 ADD DUP3 PUSH1 0x1 PUSH1 0x1 PUSH1 0xA0 SHL SUB AND SWAP1 MSTORE JUMP JUMPDEST POP POP PUSH2 0x140 SWAP3 DUP4 ADD MLOAD SWAP2 SWAP1 SWAP3 ADD MSTORE SWAP1 JUMP JUMPDEST PUSH1 0x0 DUP1 PUSH1 0x0 DUP1 PUSH1 0x80 DUP6 DUP8 SUB SLT ISZERO PUSH3 0x2923 JUMPI PUSH1 0x0 DUP1 REVERT JUMPDEST DUP5 MLOAD SWAP4 POP PUSH1 0x20 DUP6 ADD MLOAD PUSH16 0xFFFFFFFFFFFFFFFFFFFFFFFFFFFFFFFF DUP2 AND DUP2 EQ PUSH3 0x294B JUMPI PUSH1 0x0 DUP1 REVERT JUMPDEST PUSH1 0x40 DUP7 ADD MLOAD PUSH1 0x60 SWAP1 SWAP7 ADD MLOAD SWAP5 SWAP8 SWAP1 SWAP7 POP SWAP3 POP POP POP JUMP JUMPDEST PUSH1 0x0 PUSH1 0x1 DUP3 ADD PUSH3 0x2976 JUMPI PUSH3 0x2976 PUSH3 0x25F4 JUMP JUMPDEST POP PUSH1 0x1 ADD SWAP1 JUMP JUMPDEST PUSH1 0x0 DUP3 MLOAD PUSH3 0x2991 DUP2 DUP5 PUSH1 0x20 DUP8 ADD PUSH3 0x2058 JUMP JUMPDEST SWAP2 SWAP1 SWAP2 ADD SWAP3 SWAP2 POP POP JUMP INVALID PUSH1 0x80 PUSH1 0x40 MSTORE CALLVALUE DUP1 ISZERO PUSH3 0x11 JUMPI PUSH1 0x0 DUP1 REVERT JUMPDEST POP PUSH1 0x40 MLOAD PUSH3 0xD16 CODESIZE SUB DUP1 PUSH3 0xD16 DUP4 CODECOPY DUP2 ADD PUSH1 0x40 DUP2 SWAP1 MSTORE PUSH3 0x34 SWAP2 PUSH3 0x2C0 JUMP JUMPDEST DUP3 DUP3 PUSH1 0x3 PUSH3 0x44 DUP4 DUP3 PUSH3 0x3C4 JUMP JUMPDEST POP PUSH1 0x4 PUSH3 0x53 DUP3 DUP3 PUSH3 0x3C4 JUMP JUMPDEST POP POP POP PUSH3 0x68 CALLER DUP3 PUSH3 0x83 PUSH1 0x20 SHL PUSH1 0x20 SHR JUMP JUMPDEST POP POP PUSH1 0x5 DUP1 SLOAD PUSH1 0x1 PUSH1 0x1 PUSH1 0xA0 SHL SUB NOT AND CALLER OR SWAP1 SSTORE POP PUSH3 0x4B8 JUMP JUMPDEST PUSH1 0x1 PUSH1 0x1 PUSH1 0xA0 SHL SUB DUP3 AND PUSH3 0xB3 JUMPI PUSH1 0x40 MLOAD PUSH4 0xEC442F05 PUSH1 0xE0 SHL DUP2 MSTORE PUSH1 0x0 PUSH1 0x4 DUP3 ADD MSTORE PUSH1 0x24 ADD JUMPDEST PUSH1 0x40 MLOAD DUP1 SWAP2 SUB SWAP1 REVERT JUMPDEST PUSH3 0xC1 PUSH1 0x0 DUP4 DUP4 PUSH3 0xC5 JUMP JUMPDEST POP POP JUMP JUMPDEST PUSH1 0x1 PUSH1 0x1 PUSH1 0xA0 SHL SUB DUP4 AND PUSH3 0xF4 JUMPI DUP1 PUSH1 0x2 PUSH1 0x0 DUP3 DUP3 SLOAD PUSH3 0xE8 SWAP2 SWAP1 PUSH3 0x490 JUMP JUMPDEST SWAP1 SWAP2 SSTORE POP PUSH3 0x168 SWAP1 POP JUMP JUMPDEST PUSH1 0x1 PUSH1 0x1 PUSH1 0xA0 SHL SUB DUP4 AND PUSH1 0x0 SWAP1 DUP2 MSTORE PUSH1 0x20 DUP2 SWAP1 MSTORE PUSH1 0x40 SWAP1 KECCAK256 SLOAD DUP2 DUP2 LT ISZERO PUSH3 0x149 JUMPI PUSH1 0x40 MLOAD PUSH4 0x391434E3 PUSH1 0xE2 SHL DUP2 MSTORE PUSH1 0x1 PUSH1 0x1 PUSH1 0xA0 SHL SUB DUP6 AND PUSH1 0x4 DUP3 ADD MSTORE PUSH1 0x24 DUP2 ADD DUP3 SWAP1 MSTORE PUSH1 0x44 DUP2 ADD DUP4 SWAP1 MSTORE PUSH1 0x64 ADD PUSH3 0xAA JUMP JUMPDEST PUSH1 0x1 PUSH1 0x1 PUSH1 0xA0 SHL SUB DUP5 AND PUSH1 0x0 SWAP1 DUP2 MSTORE PUSH1 0x20 DUP2 SWAP1 MSTORE PUSH1 0x40 SWAP1 KECCAK256 SWAP1 DUP3 SWAP1 SUB SWAP1 SSTORE JUMPDEST PUSH1 0x1 PUSH1 0x1 PUSH1 0xA0 SHL SUB DUP3 AND PUSH3 0x186 JUMPI PUSH1 0x2 DUP1 SLOAD DUP3 SWAP1 SUB SWAP1 SSTORE PUSH3 0x1A5 JUMP JUMPDEST PUSH1 0x1 PUSH1 0x1 PUSH1 0xA0 SHL SUB DUP3 AND PUSH1 0x0 SWAP1 DUP2 MSTORE PUSH1 0x20 DUP2 SWAP1 MSTORE PUSH1 0x40 SWAP1 KECCAK256 DUP1 SLOAD DUP3 ADD SWAP1 SSTORE JUMPDEST DUP2 PUSH1 0x1 PUSH1 0x1 PUSH1 0xA0 SHL SUB AND DUP4 PUSH1 0x1 PUSH1 0x1 PUSH1 0xA0 SHL SUB AND PUSH32 0xDDF252AD1BE2C89B69C2B068FC378DAA952BA7F163C4A11628F55A4DF523B3EF DUP4 PUSH1 0x40 MLOAD PUSH3 0x1EB SWAP2 DUP2 MSTORE PUSH1 0x20 ADD SWAP1 JUMP JUMPDEST PUSH1 0x40 MLOAD DUP1 SWAP2 SUB SWAP1 LOG3 POP POP POP JUMP JUMPDEST PUSH4 0x4E487B71 PUSH1 0xE0 SHL PUSH1 0x0 MSTORE PUSH1 0x41 PUSH1 0x4 MSTORE PUSH1 0x24 PUSH1 0x0 REVERT JUMPDEST PUSH1 0x0 DUP3 PUSH1 0x1F DUP4 ADD SLT PUSH3 0x220 JUMPI PUSH1 0x0 DUP1 REVERT JUMPDEST DUP2 MLOAD PUSH1 0x1 PUSH1 0x1 PUSH1 0x40 SHL SUB DUP1 DUP3 GT ISZERO PUSH3 0x23D JUMPI PUSH3 0x23D PUSH3 0x1F8 JUMP JUMPDEST PUSH1 0x40 MLOAD PUSH1 0x1F DUP4 ADD PUSH1 0x1F NOT SWAP1 DUP2 AND PUSH1 0x3F ADD AND DUP2 ADD SWAP1 DUP3 DUP3 GT DUP2 DUP4 LT OR ISZERO PUSH3 0x268 JUMPI PUSH3 0x268 PUSH3 0x1F8 JUMP JUMPDEST DUP2 PUSH1 0x40 MSTORE DUP4 DUP2 MSTORE PUSH1 0x20 SWAP3 POP DUP7 PUSH1 0x20 DUP6 DUP9 ADD ADD GT ISZERO PUSH3 0x286 JUMPI PUSH1 0x0 DUP1 REVERT JUMPDEST PUSH1 0x0 SWAP2 POP JUMPDEST DUP4 DUP3 LT ISZERO PUSH3 0x2AA JUMPI DUP6 DUP3 ADD DUP4 ADD MLOAD DUP2 DUP4 ADD DUP5 ADD MSTORE SWAP1 DUP3 ADD SWAP1 PUSH3 0x28B JUMP JUMPDEST PUSH1 0x0 PUSH1 0x20 DUP6 DUP4 ADD ADD MSTORE DUP1 SWAP5 POP POP POP POP POP SWAP3 SWAP2 POP POP JUMP JUMPDEST PUSH1 0x0 DUP1 PUSH1 0x0 PUSH1 0x60 DUP5 DUP7 SUB SLT ISZERO PUSH3 0x2D6 JUMPI PUSH1 0x0 DUP1 REVERT JUMPDEST DUP4 MLOAD PUSH1 0x1 PUSH1 0x1 PUSH1 0x40 SHL SUB DUP1 DUP3 GT ISZERO PUSH3 0x2EE JUMPI PUSH1 0x0 DUP1 REVERT JUMPDEST PUSH3 0x2FC DUP8 DUP4 DUP9 ADD PUSH3 0x20E JUMP JUMPDEST SWAP5 POP PUSH1 0x20 DUP7 ADD MLOAD SWAP2 POP DUP1 DUP3 GT ISZERO PUSH3 0x313 JUMPI PUSH1 0x0 DUP1 REVERT JUMPDEST POP PUSH3 0x322 DUP7 DUP3 DUP8 ADD PUSH3 0x20E JUMP JUMPDEST SWAP3 POP POP PUSH1 0x40 DUP5 ADD MLOAD SWAP1 POP SWAP3 POP SWAP3 POP SWAP3 JUMP JUMPDEST PUSH1 0x1 DUP2 DUP2 SHR SWAP1 DUP3 AND DUP1 PUSH3 0x348 JUMPI PUSH1 0x7F DUP3 AND SWAP2 POP JUMPDEST PUSH1 0x20 DUP3 LT DUP2 SUB PUSH3 0x369 JUMPI PUSH4 0x4E487B71 PUSH1 0xE0 SHL PUSH1 0x0 MSTORE PUSH1 0x22 PUSH1 0x4 MSTORE PUSH1 0x24 PUSH1 0x0 REVERT JUMPDEST POP SWAP2 SWAP1 POP JUMP JUMPDEST PUSH1 0x1F DUP3 GT ISZERO PUSH3 0x3BF JUMPI PUSH1 0x0 DUP2 PUSH1 0x0 MSTORE PUSH1 0x20 PUSH1 0x0 KECCAK256 PUSH1 0x1F DUP6 ADD PUSH1 0x5 SHR DUP2 ADD PUSH1 0x20 DUP7 LT ISZERO PUSH3 0x39A JUMPI POP DUP1 JUMPDEST PUSH1 0x1F DUP6 ADD PUSH1 0x5 SHR DUP3 ADD SWAP2 POP JUMPDEST DUP2 DUP2 LT ISZERO PUSH3 0x3BB JUMPI DUP3 DUP2 SSTORE PUSH1 0x1 ADD PUSH3 0x3A6 JUMP JUMPDEST POP POP POP JUMPDEST POP POP POP JUMP JUMPDEST DUP2 MLOAD PUSH1 0x1 PUSH1 0x1 PUSH1 0x40 SHL SUB DUP2 GT ISZERO PUSH3 0x3E0 JUMPI PUSH3 0x3E0 PUSH3 0x1F8 JUMP JUMPDEST PUSH3 0x3F8 DUP2 PUSH3 0x3F1 DUP5 SLOAD PUSH3 0x333 JUMP JUMPDEST DUP5 PUSH3 0x36F JUMP JUMPDEST PUSH1 0x20 DUP1 PUSH1 0x1F DUP4 GT PUSH1 0x1 DUP2 EQ PUSH3 0x430 JUMPI PUSH1 0x0 DUP5 ISZERO PUSH3 0x417 JUMPI POP DUP6 DUP4 ADD MLOAD JUMPDEST PUSH1 0x0 NOT PUSH1 0x3 DUP7 SWAP1 SHL SHR NOT AND PUSH1 0x1 DUP6 SWAP1 SHL OR DUP6 SSTORE PUSH3 0x3BB JUMP JUMPDEST PUSH1 0x0 DUP6 DUP2 MSTORE PUSH1 0x20 DUP2 KECCAK256 PUSH1 0x1F NOT DUP7 AND SWAP2 JUMPDEST DUP3 DUP2 LT ISZERO PUSH3 0x461 JUMPI DUP9 DUP7 ADD MLOAD DUP3 SSTORE SWAP5 DUP5 ADD SWAP5 PUSH1 0x1 SWAP1 SWAP2 ADD SWAP1 DUP5 ADD PUSH3 0x440 JUMP JUMPDEST POP DUP6 DUP3 LT ISZERO PUSH3 0x480 JUMPI DUP8 DUP6 ADD MLOAD PUSH1 0x0 NOT PUSH1 0x3 DUP9 SWAP1 SHL PUSH1 0xF8 AND SHR NOT AND DUP2 SSTORE JUMPDEST POP POP POP POP POP PUSH1 0x1 SWAP1 DUP2 SHL ADD SWAP1 SSTORE POP JUMP JUMPDEST DUP1 DUP3 ADD DUP1 DUP3 GT ISZERO PUSH3 0x4B2 JUMPI PUSH4 0x4E487B71 PUSH1 0xE0 SHL PUSH1 0x0 MSTORE PUSH1 0x11 PUSH1 0x4 MSTORE PUSH1 0x24 PUSH1 0x0 REVERT JUMPDEST SWAP3 SWAP2 POP POP JUMP JUMPDEST PUSH2 0x84E DUP1 PUSH3 0x4C8 PUSH1 0x0 CODECOPY PUSH1 0x0 RETURN INVALID PUSH1 0x80 PUSH1 0x40 MSTORE CALLVALUE DUP1 ISZERO PUSH2 0x10 JUMPI PUSH1 0x0 DUP1 REVERT JUMPDEST POP PUSH1 0x4 CALLDATASIZE LT PUSH2 0xA9 JUMPI PUSH1 0x0 CALLDATALOAD PUSH1 0xE0 SHR DUP1 PUSH4 0x70A08231 GT PUSH2 0x71 JUMPI DUP1 PUSH4 0x70A08231 EQ PUSH2 0x123 JUMPI DUP1 PUSH4 0x8DA5CB5B EQ PUSH2 0x14C JUMPI DUP1 PUSH4 0x94BF804D EQ PUSH2 0x177 JUMPI DUP1 PUSH4 0x95D89B41 EQ PUSH2 0x18A JUMPI DUP1 PUSH4 0xA9059CBB EQ PUSH2 0x192 JUMPI DUP1 PUSH4 0xDD62ED3E EQ PUSH2 0x1A5 JUMPI PUSH1 0x0 DUP1 REVERT JUMPDEST DUP1 PUSH4 0x6FDDE03 EQ PUSH2 0xAE JUMPI DUP1 PUSH4 0x95EA7B3 EQ PUSH2 0xCC JUMPI DUP1 PUSH4 0x18160DDD EQ PUSH2 0xEF JUMPI DUP1 PUSH4 0x23B872DD EQ PUSH2 0x101 JUMPI DUP1 PUSH4 0x313CE567 EQ PUSH2 0x114 JUMPI JUMPDEST PUSH1 0x0 DUP1 REVERT JUMPDEST PUSH2 0xB6 PUSH2 0x1DE JUMP JUMPDEST PUSH1 0x40 MLOAD PUSH2 0xC3 SWAP2 SWAP1 PUSH2 0x674 JUMP JUMPDEST PUSH1 0x40 MLOAD DUP1 SWAP2 SUB SWAP1 RETURN JUMPDEST PUSH2 0xDF PUSH2 0xDA CALLDATASIZE PUSH1 0x4 PUSH2 0x6DF JUMP JUMPDEST PUSH2 0x270 JUMP JUMPDEST PUSH1 0x40 MLOAD SWAP1 ISZERO ISZERO DUP2 MSTORE PUSH1 0x20 ADD PUSH2 0xC3 JUMP JUMPDEST PUSH1 0x2 SLOAD JUMPDEST PUSH1 0x40 MLOAD SWAP1 DUP2 MSTORE PUSH1 0x20 ADD PUSH2 0xC3 JUMP JUMPDEST PUSH2 0xDF PUSH2 0x10F CALLDATASIZE PUSH1 0x4 PUSH2 0x709 JUMP JUMPDEST PUSH2 0x28A JUMP JUMPDEST PUSH1 0x40 MLOAD PUSH1 0x12 DUP2 MSTORE PUSH1 0x20 ADD PUSH2 0xC3 JUMP JUMPDEST PUSH2 0xF3 PUSH2 0x131 CALLDATASIZE PUSH1 0x4 PUSH2 0x745 JUMP JUMPDEST PUSH1 0x1 PUSH1 0x1 PUSH1 0xA0 SHL SUB AND PUSH1 0x0 SWAP1 DUP2 MSTORE PUSH1 0x20 DUP2 SWAP1 MSTORE PUSH1 0x40 SWAP1 KECCAK256 SLOAD SWAP1 JUMP JUMPDEST PUSH1 0x5 SLOAD PUSH2 0x15F SWAP1 PUSH1 0x1 PUSH1 0x1 PUSH1 0xA0 SHL SUB AND DUP2 JUMP JUMPDEST PUSH1 0x40 MLOAD PUSH1 0x1 PUSH1 0x1 PUSH1 0xA0 SHL SUB SWAP1 SWAP2 AND DUP2 MSTORE PUSH1 0x20 ADD PUSH2 0xC3 JUMP JUMPDEST PUSH2 0xDF PUSH2 0x185 CALLDATASIZE PUSH1 0x4 PUSH2 0x767 JUMP JUMPDEST PUSH2 0x2AE JUMP JUMPDEST PUSH2 0xB6 PUSH2 0x32F JUMP JUMPDEST PUSH2 0xDF PUSH2 0x1A0 CALLDATASIZE PUSH1 0x4 PUSH2 0x6DF JUMP JUMPDEST PUSH2 0x33E JUMP JUMPDEST PUSH2 0xF3 PUSH2 0x1B3 CALLDATASIZE PUSH1 0x4 PUSH2 0x793 JUMP JUMPDEST PUSH1 0x1 PUSH1 0x1 PUSH1 0xA0 SHL SUB SWAP2 DUP3 AND PUSH1 0x0 SWAP1 DUP2 MSTORE PUSH1 0x1 PUSH1 0x20 SWAP1 DUP2 MSTORE PUSH1 0x40 DUP1 DUP4 KECCAK256 SWAP4 SWAP1 SWAP5 AND DUP3 MSTORE SWAP2 SWAP1 SWAP2 MSTORE KECCAK256 SLOAD SWAP1 JUMP JUMPDEST PUSH1 0x60 PUSH1 0x3 DUP1 SLOAD PUSH2 0x1ED SWAP1 PUSH2 0x7BD JUMP JUMPDEST DUP1 PUSH1 0x1F ADD PUSH1 0x20 DUP1 SWAP2 DIV MUL PUSH1 0x20 ADD PUSH1 0x40 MLOAD SWAP1 DUP2 ADD PUSH1 0x40 MSTORE DUP1 SWAP3 SWAP2 SWAP1 DUP2 DUP2 MSTORE PUSH1 0x20 ADD DUP3 DUP1 SLOAD PUSH2 0x219 SWAP1 PUSH2 0x7BD JUMP JUMPDEST DUP1 ISZERO PUSH2 0x266 JUMPI DUP1 PUSH1 0x1F LT PUSH2 0x23B JUMPI PUSH2 0x100 DUP1 DUP4 SLOAD DIV MUL DUP4 MSTORE SWAP2 PUSH1 0x20 ADD SWAP2 PUSH2 0x266 JUMP JUMPDEST DUP3 ADD SWAP2 SWAP1 PUSH1 0x0 MSTORE PUSH1 0x20 PUSH1 0x0 KECCAK256 SWAP1 JUMPDEST DUP2 SLOAD DUP2 MSTORE SWAP1 PUSH1 0x1 ADD SWAP1 PUSH1 0x20 ADD DUP1 DUP4 GT PUSH2 0x249 JUMPI DUP3 SWAP1 SUB PUSH1 0x1F AND DUP3 ADD SWAP2 JUMPDEST POP POP POP POP POP SWAP1 POP SWAP1 JUMP JUMPDEST PUSH1 0x0 CALLER PUSH2 0x27E DUP2 DUP6 DUP6 PUSH2 0x34C JUMP JUMPDEST PUSH1 0x1 SWAP2 POP POP JUMPDEST SWAP3 SWAP2 POP POP JUMP JUMPDEST PUSH1 0x0 CALLER PUSH2 0x298 DUP6 DUP3 DUP6 PUSH2 0x35E JUMP JUMPDEST PUSH2 0x2A3 DUP6 DUP6 DUP6 PUSH2 0x3DC JUMP JUMPDEST POP PUSH1 0x1 SWAP5 SWAP4 POP POP POP POP JUMP JUMPDEST PUSH1 0x5 SLOAD PUSH1 0x0 SWAP1 PUSH1 0x1 PUSH1 0x1 PUSH1 0xA0 SHL SUB AND CALLER EQ PUSH2 0x31C JUMPI PUSH1 0x40 MLOAD PUSH3 0x461BCD PUSH1 0xE5 SHL DUP2 MSTORE PUSH1 0x20 PUSH1 0x4 DUP3 ADD MSTORE PUSH1 0x24 DUP1 DUP3 ADD MSTORE PUSH32 0x4D696E742063616E206F6E6C792062652063616C6C656420627920746865206F PUSH1 0x44 DUP3 ADD MSTORE PUSH4 0x3BB732B9 PUSH1 0xE1 SHL PUSH1 0x64 DUP3 ADD MSTORE PUSH1 0x84 ADD JUMPDEST PUSH1 0x40 MLOAD DUP1 SWAP2 SUB SWAP1 REVERT JUMPDEST PUSH2 0x326 DUP3 DUP5 PUSH2 0x43B JUMP JUMPDEST POP PUSH1 0x1 SWAP3 SWAP2 POP POP JUMP JUMPDEST PUSH1 0x60 PUSH1 0x4 DUP1 SLOAD PUSH2 0x1ED SWAP1 PUSH2 0x7BD JUMP JUMPDEST PUSH1 0x0 CALLER PUSH2 0x27E DUP2 DUP6 DUP6 PUSH2 0x3DC JUMP JUMPDEST PUSH2 0x359 DUP4 DUP4 DUP4 PUSH1 0x1 PUSH2 0x475 JUMP JUMPDEST POP POP POP JUMP JUMPDEST PUSH1 0x1 PUSH1 0x1 PUSH1 0xA0 SHL SUB DUP4 DUP2 AND PUSH1 0x0 SWAP1 DUP2 MSTORE PUSH1 0x1 PUSH1 0x20 SWAP1 DUP2 MSTORE PUSH1 0x40 DUP1 DUP4 KECCAK256 SWAP4 DUP7 AND DUP4 MSTORE SWAP3 SWAP1 MSTORE KECCAK256 SLOAD PUSH1 0x0 NOT DUP2 EQ PUSH2 0x3D6 JUMPI DUP2 DUP2 LT ISZERO PUSH2 0x3C7 JUMPI PUSH1 0x40 MLOAD PUSH4 0x7DC7A0D9 PUSH1 0xE1 SHL DUP2 MSTORE PUSH1 0x1 PUSH1 0x1 PUSH1 0xA0 SHL SUB DUP5 AND PUSH1 0x4 DUP3 ADD MSTORE PUSH1 0x24 DUP2 ADD DUP3 SWAP1 MSTORE PUSH1 0x44 DUP2 ADD DUP4 SWAP1 MSTORE PUSH1 0x64 ADD PUSH2 0x313 JUMP JUMPDEST PUSH2 0x3D6 DUP5 DUP5 DUP5 DUP5 SUB PUSH1 0x0 PUSH2 0x475 JUMP JUMPDEST POP POP POP POP JUMP JUMPDEST PUSH1 0x1 PUSH1 0x1 PUSH1 0xA0 SHL SUB DUP4 AND PUSH2 0x406 JUMPI PUSH1 0x40 MLOAD PUSH4 0x4B637E8F PUSH1 0xE1 SHL DUP2 MSTORE PUSH1 0x0 PUSH1 0x4 DUP3 ADD MSTORE PUSH1 0x24 ADD PUSH2 0x313 JUMP JUMPDEST PUSH1 0x1 PUSH1 0x1 PUSH1 0xA0 SHL SUB DUP3 AND PUSH2 0x430 JUMPI PUSH1 0x40 MLOAD PUSH4 0xEC442F05 PUSH1 0xE0 SHL DUP2 MSTORE PUSH1 0x0 PUSH1 0x4 DUP3 ADD MSTORE PUSH1 0x24 ADD PUSH2 0x313 JUMP JUMPDEST PUSH2 0x359 DUP4 DUP4 DUP4 PUSH2 0x54A JUMP JUMPDEST PUSH1 0x1 PUSH1 0x1 PUSH1 0xA0 SHL SUB DUP3 AND PUSH2 0x465 JUMPI PUSH1 0x40 MLOAD PUSH4 0xEC442F05 PUSH1 0xE0 SHL DUP2 MSTORE PUSH1 0x0 PUSH1 0x4 DUP3 ADD MSTORE PUSH1 0x24 ADD PUSH2 0x313 JUMP JUMPDEST PUSH2 0x471 PUSH1 0x0 DUP4 DUP4 PUSH2 0x54A JUMP JUMPDEST POP POP JUMP JUMPDEST PUSH1 0x1 PUSH1 0x1 PUSH1 0xA0 SHL SUB DUP5 AND PUSH2 0x49F JUMPI PUSH1 0x40 MLOAD PUSH4 0xE602DF05 PUSH1 0xE0 SHL DUP2 MSTORE PUSH1 0x0 PUSH1 0x4 DUP3 ADD MSTORE PUSH1 0x24 ADD PUSH2 0x313 JUMP JUMPDEST PUSH1 0x1 PUSH1 0x1 PUSH1 0xA0 SHL SUB DUP4 AND PUSH2 0x4C9 JUMPI PUSH1 0x40 MLOAD PUSH4 0x4A1406B1 PUSH1 0xE1 SHL DUP2 MSTORE PUSH1 0x0 PUSH1 0x4 DUP3 ADD MSTORE PUSH1 0x24 ADD PUSH2 0x313 JUMP JUMPDEST PUSH1 0x1 PUSH1 0x1 PUSH1 0xA0 SHL SUB DUP1 DUP6 AND PUSH1 0x0 SWAP1 DUP2 MSTORE PUSH1 0x1 PUSH1 0x20 SWAP1 DUP2 MSTORE PUSH1 0x40 DUP1 DUP4 KECCAK256 SWAP4 DUP8 AND DUP4 MSTORE SWAP3 SWAP1 MSTORE KECCAK256 DUP3 SWAP1 SSTORE DUP1 ISZERO PUSH2 0x3D6 JUMPI DUP3 PUSH1 0x1 PUSH1 0x1 PUSH1 0xA0 SHL SUB AND DUP5 PUSH1 0x1 PUSH1 0x1 PUSH1 0xA0 SHL SUB AND PUSH32 0x8C5BE1E5EBEC7D5BD14F71427D1E84F3DD0314C0F7B2291E5B200AC8C7C3B925 DUP5 PUSH1 0x40 MLOAD PUSH2 0x53C SWAP2 DUP2 MSTORE PUSH1 0x20 ADD SWAP1 JUMP JUMPDEST PUSH1 0x40 MLOAD DUP1 SWAP2 SUB SWAP1 LOG3 POP POP POP POP JUMP JUMPDEST PUSH1 0x1 PUSH1 0x1 PUSH1 0xA0 SHL SUB DUP4 AND PUSH2 0x575 JUMPI DUP1 PUSH1 0x2 PUSH1 0x0 DUP3 DUP3 SLOAD PUSH2 0x56A SWAP2 SWAP1 PUSH2 0x7F7 JUMP JUMPDEST SWAP1 SWAP2 SSTORE POP PUSH2 0x5E7 SWAP1 POP JUMP JUMPDEST PUSH1 0x1 PUSH1 0x1 PUSH1 0xA0 SHL SUB DUP4 AND PUSH1 0x0 SWAP1 DUP2 MSTORE PUSH1 0x20 DUP2 SWAP1 MSTORE PUSH1 0x40 SWAP1 KECCAK256 SLOAD DUP2 DUP2 LT ISZERO PUSH2 0x5C8 JUMPI PUSH1 0x40 MLOAD PUSH4 0x391434E3 PUSH1 0xE2 SHL DUP2 MSTORE PUSH1 0x1 PUSH1 0x1 PUSH1 0xA0 SHL SUB DUP6 AND PUSH1 0x4 DUP3 ADD MSTORE PUSH1 0x24 DUP2 ADD DUP3 SWAP1 MSTORE PUSH1 0x44 DUP2 ADD DUP4 SWAP1 MSTORE PUSH1 0x64 ADD PUSH2 0x313 JUMP JUMPDEST PUSH1 0x1 PUSH1 0x1 PUSH1 0xA0 SHL SUB DUP5 AND PUSH1 0x0 SWAP1 DUP2 MSTORE PUSH1 0x20 DUP2 SWAP1 MSTORE PUSH1 0x40 SWAP1 KECCAK256 SWAP1 DUP3 SWAP1 SUB SWAP1 SSTORE JUMPDEST PUSH1 0x1 PUSH1 0x1 PUSH1 0xA0 SHL SUB DUP3 AND PUSH2 0x603 JUMPI PUSH1 0x2 DUP1 SLOAD DUP3 SWAP1 SUB SWAP1 SSTORE PUSH2 0x622 JUMP JUMPDEST PUSH1 0x1 PUSH1 0x1 PUSH1 0xA0 SHL SUB DUP3 AND PUSH1 0x0 SWAP1 DUP2 MSTORE PUSH1 0x20 DUP2 SWAP1 MSTORE PUSH1 0x40 SWAP1 KECCAK256 DUP1 SLOAD DUP3 ADD SWAP1 SSTORE JUMPDEST DUP2 PUSH1 0x1 PUSH1 0x1 PUSH1 0xA0 SHL SUB AND DUP4 PUSH1 0x1 PUSH1 0x1 PUSH1 0xA0 SHL SUB AND PUSH32 0xDDF252AD1BE2C89B69C2B068FC378DAA952BA7F163C4A11628F55A4DF523B3EF DUP4 PUSH1 0x40 MLOAD PUSH2 0x667 SWAP2 DUP2 MSTORE PUSH1 0x20 ADD SWAP1 JUMP JUMPDEST PUSH1 0x40 MLOAD DUP1 SWAP2 SUB SWAP1 LOG3 POP POP POP JUMP JUMPDEST PUSH1 0x0 PUSH1 0x20 DUP1 DUP4 MSTORE DUP4 MLOAD DUP1 PUSH1 0x20 DUP6 ADD MSTORE PUSH1 0x0 JUMPDEST DUP2 DUP2 LT ISZERO PUSH2 0x6A2 JUMPI DUP6 DUP2 ADD DUP4 ADD MLOAD DUP6 DUP3 ADD PUSH1 0x40 ADD MSTORE DUP3 ADD PUSH2 0x686 JUMP JUMPDEST POP PUSH1 0x0 PUSH1 0x40 DUP3 DUP7 ADD ADD MSTORE PUSH1 0x40 PUSH1 0x1F NOT PUSH1 0x1F DUP4 ADD AND DUP6 ADD ADD SWAP3 POP POP POP SWAP3 SWAP2 POP POP JUMP JUMPDEST DUP1 CALLDATALOAD PUSH1 0x1 PUSH1 0x1 PUSH1 0xA0 SHL SUB DUP2 AND DUP2 EQ PUSH2 0x6DA JUMPI PUSH1 0x0 DUP1 REVERT JUMPDEST SWAP2 SWAP1 POP JUMP JUMPDEST PUSH1 0x0 DUP1 PUSH1 0x40 DUP4 DUP6 SUB SLT ISZERO PUSH2 0x6F2 JUMPI PUSH1 0x0 DUP1 REVERT JUMPDEST PUSH2 0x6FB DUP4 PUSH2 0x6C3 JUMP JUMPDEST SWAP5 PUSH1 0x20 SWAP4 SWAP1 SWAP4 ADD CALLDATALOAD SWAP4 POP POP POP JUMP JUMPDEST PUSH1 0x0 DUP1 PUSH1 0x0 PUSH1 0x60 DUP5 DUP7 SUB SLT ISZERO PUSH2 0x71E JUMPI PUSH1 0x0 DUP1 REVERT JUMPDEST PUSH2 0x727 DUP5 PUSH2 0x6C3 JUMP JUMPDEST SWAP3 POP PUSH2 0x735 PUSH1 0x20 DUP6 ADD PUSH2 0x6C3 JUMP JUMPDEST SWAP2 POP PUSH1 0x40 DUP5 ADD CALLDATALOAD SWAP1 POP SWAP3 POP SWAP3 POP SWAP3 JUMP JUMPDEST PUSH1 0x0 PUSH1 0x20 DUP3 DUP5 SUB SLT ISZERO PUSH2 0x757 JUMPI PUSH1 0x0 DUP1 REVERT JUMPDEST PUSH2 0x760 DUP3 PUSH2 0x6C3 JUMP JUMPDEST SWAP4 SWAP3 POP POP POP JUMP JUMPDEST PUSH1 0x0 DUP1 PUSH1 0x40 DUP4 DUP6 SUB SLT ISZERO PUSH2 0x77A JUMPI PUSH1 0x0 DUP1 REVERT JUMPDEST DUP3 CALLDATALOAD SWAP2 POP PUSH2 0x78A PUSH1 0x20 DUP5 ADD PUSH2 0x6C3 JUMP JUMPDEST SWAP1 POP SWAP3 POP SWAP3 SWAP1 POP JUMP JUMPDEST PUSH1 0x0 DUP1 PUSH1 0x40 DUP4 DUP6 SUB SLT ISZERO PUSH2 0x7A6 JUMPI PUSH1 0x0 DUP1 REVERT JUMPDEST PUSH2 0x7AF DUP4 PUSH2 0x6C3 JUMP JUMPDEST SWAP2 POP PUSH2 0x78A PUSH1 0x20 DUP5 ADD PUSH2 0x6C3 JUMP JUMPDEST PUSH1 0x1 DUP2 DUP2 SHR SWAP1 DUP3 AND DUP1 PUSH2 0x7D1 JUMPI PUSH1 0x7F DUP3 AND SWAP2 POP JUMPDEST PUSH1 0x20 DUP3 LT DUP2 SUB PUSH2 0x7F1 JUMPI PUSH4 0x4E487B71 PUSH1 0xE0 SHL PUSH1 0x0 MSTORE PUSH1 0x22 PUSH1 0x4 MSTORE PUSH1 0x24 PUSH1 0x0 REVERT JUMPDEST POP SWAP2 SWAP1 POP JUMP JUMPDEST DUP1 DUP3 ADD DUP1 DUP3 GT ISZERO PUSH2 0x284 JUMPI PUSH4 0x4E487B71 PUSH1 0xE0 SHL PUSH1 0x0 MSTORE PUSH1 0x11 PUSH1 0x4 MSTORE PUSH1 0x24 PUSH1 0x0 REVERT INVALID LOG2 PUSH5 0x6970667358 0x22 SLT KECCAK256 0xB3 0xCD LOG2 0xBE MSIZE DUP6 0xAE 0xD SWAP7 0xE4 0x4F XOR DUP5 0xAC PUSH19 0x40F3CE3914BFED1C30CC1B5D0A36CDF1FD6473 PUSH16 0x6C63430008180033A264697066735822 SLT KECCAK256 0xB3 DUP3 MSIZE DUP15 DUP2 MULMOD PUSH12 0xCF1ADAB52CCBA72CF91F9074 PUSH13 0x475954271382B2529AFF176264 PUSH20 0x6F6C634300081800330000000000000000000000 "},"methodIdentifiers":{"DECIMALS()":"2e0f2625","IDEACOIN_FUNDING_GOAL()":"e0f857bd","IDEATOKEN_CREATION_FEE()":"91898cb9","INITIAL_PRICE()":"7c5e2795","INIT_SUPPLY()":"956cc859","K()":"a932492f","MAX_SUPPLY()":"32cb6b0c","addressToIdeaTokenMapping(address)":"14145f94","buyIdeaToken(address,uint256)":"6dec7398","calculateCost(uint256,uint256)":"ce394696","createIdeaToken(string,string,string,string,string,string,string,string)":"55756a6a","getAllIdeaTokens()":"580e9ebb","getIdeaToken(address)":"5beb78d9","ideaTokenAddresses(uint256)":"e2ce39e5","poolFee()":"089fe6aa"}}}}}